:020000040800F2
:10000000000003206D060008612600086326000832
:100010006526000867260008692600080000000021
:1000200000000000000000000000000091780008BF
:100030006B26000800000000217900089571000877
:10004000BD060008BD060008BD060008BD06000884
:10005000BD060008BD060008BD060008BD06000874
:10006000BD060008BD060008BD060008BD06000864
:10007000BD060008BD060008BD060008BD06000854
:10008000BD060008BD060008BD060008BD06000844
:10009000BD060008BD060008BD060008BD06000834
:1000A000BD060008BD060008BD060008BD06000824
:1000B000BD060008BD060008BD060008BD06000814
:1000C000BD060008BD060008BD060008BD06000804
:1000D000BD060008BD060008BD060008BD060008F4
:1000E000BD060008BD060008BD060008BD060008E4
:1000F000BD060008BD060008BD060008BD060008D4
:10010000BD060008BD060008BD060008BD060008C3
:10011000BD060008BD0600086D260008BD060008E3
:10012000BD060008BD060008BD060008BD060008A3
:10013000BD060008BD060008BD060008BD06000893
:10014000BD060008BD060008BD060008BD06000883
:10015000BD060008BD060008BD060008BD06000873
:10016000BD060008BD060008BD060008BD06000863
:10017000BD06000879260008BD0600080000000042
:10018000BD060008BD060008BD060008BD06000843
:10019000BD060008BD060008BD060008BD06000833
:0C01A00085260008BD0600089126000816
:1001B00010B5054C237833B9044B13B10448AFF3A1
:1001C00000800123237010BD800400200000000087
:1001D0009037020808B5034B1BB103490348AFF33E
:1001E000008008BD00000000840400209037020851
:1001F000034613F8012B002AFBD1181A0138704767
:1002000001F0FF01102A2BDB10F0070F08D010F8C7
:10021000013B013A8B422DD010F0070F42B3F6D1CB
:10022000F0B441EA012141EA014122F007047FF0E4
:1002300000070023F0E80256083C85EA010586EA3B
:10024000010685FA47F5A3FA87F586FA47F6A5FA77
:1002500087F68EB9EED1F0BC01F0FF0102F0070283
:1002600032B110F8013B013A83EA010313B1F8D12E
:100270000020704701387047002D06BF354603380F
:10028000073815F0010F07D1013015F4807F02BF48
:10029000013015F4C03F0130F0BC0138704700BF99
:1002A0007BB972B90029BEBF00204FF0004106E0C3
:1002B00008BF00281CBF6FF000414FF0FF3000F076
:1002C000D3B9ADF1080C6DE904CE002909DB002B90
:1002D0001ADB00F04DF8DDF804E0DDE9022304B09C
:1002E0007047404261EB4101002B1BDB00F040F8FE
:1002F000DDF804E0DDE9022304B0404261EB410196
:10030000524263EB43037047524263EB430300F0F6
:100310002FF8DDF804E0DDE9022304B0404261EB90
:1003200041017047524263EB430300F021F8DDF8CE
:1003300004E0DDE9022304B0524263EB430370475B
:1003400053B94AB9002908BF00281CBF4FF0FF313C
:100350004FF0FF3000F088B9ADF1080C6DE904CE24
:1003600000F006F8DDF804E0DDE9022304B0704790
:100370002DE9F047089D8E4604468846002B4AD159
:100380008A42174662D9B2FA82F64EB1C6F120030C
:1003900001FA06F820FA03F3B74043EA0808B4402C
:1003A0004FEA174E1FFA87FCB8FBFEF1230C0EFB39
:1003B000118843EA084301FB0CF29A4209D9FB1861
:1003C00001F1FF3080F0EA809A4240F2E780023982
:1003D0003B449A1AA3B2B2FBFEF00EFB102243EA92
:1003E000024300FB0CFC9C4509D9FB1800F1FF32CD
:1003F00080F0D6809C4540F2D3803B44023840EAEE
:100400000140A3EB0C0300211DB1F3400022C5E91C
:100410000032BDE8F0878B4205D90DB1C5E9000176
:1004200000210846F5E7B3FA83F1002946D1734568
:1004300002D3824200F20581841A6EEB030201208E
:100440009046002DE5D0C5E90048E2E7002A00F01B
:100450009080B2FA82F6002E40F0A4808A1A030C33
:100460004FEA174E80B2BCB20121B2FBFEFC0EFB7C
:100470001C2243EA024304FB0CF29A4207D9FB1800
:100480000CF1FF3802D29A4200F2E080C4469B1A77
:10049000B3FBFEF20EFB123340EA034302FB04F40B
:1004A0009C4207D9FB1802F1FF3002D29C4200F2B5
:1004B000CA8002461B1B42EA0C40A5E7C1F1200698
:1004C0008B4022FA06F71F430EFA01F420FA06F3D6
:1004D0002EFA06FE4FEA1749234300FA01F81FFAE5
:1004E00087FCBEFBF9F01C0C09FB10EE44EA0E443D
:1004F00000FB0CFEA64502FA01F209D93C1900F1F5
:10050000FF3A80F09C80A64540F2998002383C4436
:10051000A4EB0E041FFA83FEB4FBF9F309FB1344AA
:100520004EEA044403FB0CFCA44508D93C1903F132
:10053000FF3E80F08280A4457FD9023B3C4443EAE1
:100540000040A4EB0C04A0FB02EC64457346E146BA
:1005500062D35FD05DB1B8EB030264EB090404FA27
:1005600006F622FA01F31E43CC40C5E900640021DF
:100570004FE7B1FBF2FC010C41EA0E4180B240EAC8
:1005800001423B4638463C46B846BE462026B1FBB3
:10059000F7F1A2EB080241EA0C4166E7014618E7D1
:1005A00010462CE7C6F120022EFA02F3B740B14004
:1005B00020FA02F24FEA174E0A43B3FBFEF8BCB230
:1005C0000EFB1833110C41EA034108FB04F9B0405B
:1005D00089454FEA104380B23ED9791808F1FF3CB3
:1005E00001D289451FD8A1EB0901B1FBFEF909FB36
:1005F00004F80EFB191192B242EA0142424529D297
:10060000BA1809F1FF31C4D24245C2D2A9F10201A0
:100610003A44BEE7F0459DD2BEEB02036CEB070CFB
:100620000138E14696E7A7EB09094944A8F1020C15
:10063000B1FBFEF909FB04F8DBE773467FE75046A0
:1006400066E70846FDE63B44023A33E7ACF1020CAC
:100650003B441CE749469CE7A1EB0901C446B1FBBA
:10066000FEF909FB04F8C4E7704700BFDFF834D097
:10067000002103E00C4B5B58435004310B480C4BFA
:1006800042189A42F6D30B4A02E0002342F8043B98
:10069000094B9A42F9D303F0F1F822F00BFB01F079
:1006A00075FA704700000320105602080000002071
:1006B0007402002080040020644C0120FEE7704793
:1006C00008B500F0BBFDBDE8084000F03FBD00F0FC
:1006D000B7BD704710B50421044621F0FEF820464E
:1006E00010BD000038B50C4B0C4C18800C4B822010
:1006F00019806368984740F6110398420AD1094D62
:1007000023682C60822098472B688220DB689847FA
:10071000002038BD0120FCE7A60400209C0000203A
:10072000A4040020A80400204FF4A071F020FFF7DB
:10073000D9BF0000F7B5394D2B6804461B698220EC
:100740009847208000284ED02B680DF106025B6987
:1007500001A982209847324B1B78002B4BD0BDF863
:10076000062040F674639A423FD9ADF80630BDF8D2
:1007700006209B1A9BB20A2B42D90B22B3FBF2F341
:10078000284A1288934201D9013A93B2BDF8042055
:10079000254840F6B8318A4234D8C2F571620E322B
:1007A000016892B20F25B2FBF5F2204D2D88AA42C6
:1007B00084BF05F1FF35AAB28A4215468EB22AD906
:1007C000921B91B21A4E3768BB42BAB28CBF9A1ACA
:1007D000D21A92B211440529C4BF05603360036880
:1007E00063803368A38003B0F0BDB32A9CBFB422FA
:1007F000ADF80620BBE7BDF80630A3F5B473B9E742
:100800000023C3E7C2F56D62083292B20E2A016876
:10081000C8D800252A46891A89B2D3E7A80400203F
:10082000D02E0020A4040020A0040020A604002054
:100830009C04002037B568460D461446FFF77AFF42
:10084000BDF8000030B1BDF802302B60BDF80430B7
:100850002360012003B030BD032821D8DFE800F079
:10086000020B12190F4B1A68B2FA82F252090421D4
:100870000D4803F097BA0B4B5A68B2FA82F252094C
:100880000821F5E7074B9A68B2FA82F25209102163
:10089000EEE7044BDA68B2FA82F252092021E7E768
:1008A000704700BFAC04002000100240032821D88C
:1008B000DFE800F0020B12190F4B1A68003A18BF5C
:1008C000012204210D4803F06DBA0B4B5A68003A1F
:1008D00018BF01220821F5E7074B9A68003A18BFB4
:1008E00001221021EEE7044BDA68003A18BF01221A
:1008F0002021E7E7704700BFAC0400200010024051
:1009000003280DD8DFE800F00206080A0421054894
:1009100003F04DBA0821FAE71021F8E72021F6E7A5
:10092000704700BF0010024008B5032811D8DFE867
:1009300000F0020A0C0E0421074803F02DFA431EB2
:100940005842584108BD0821F6E71021F4E720215C
:10095000F2E70020F3E700BF0010024070B5084D39
:1009600000240126E0B2FFF7DFFF18B12B68012B4E
:1009700018BF2E600134052C05F10405F2D170BDBD
:10098000AC040020012380F8781080F8793070479B
:100990007047002070470000034B4164003918BFC6
:1009A00001211970704700BF213F012070470020CE
:1009B0007047836B0BB10846184770474FF6FF70BE
:1009C0007047406803689B691847704770477047D5
:1009D0007047704710B5044600F048FD236803498E
:1009E000D3F890302046BDE810401847000000D0F2
:1009F00008B503680446D3F8843098472368204636
:100A0000DB6F984700F0ECF8236820465B6F98474F
:100A1000292001F045FB00F0E3F8236820465B6FD6
:100A20009847F8E710B504460AF098FA236820467C
:100A3000D3F8BC30BDE81040184700F0FBBC00F014
:100A4000FFBC00F031BD00F0D1BC00F041BD00F0B2
:100A500049BD00F0D5BC09F0A1BC10B58421044605
:100A600020F03BFF204610BD10B590F8341090F8F0
:100A700078400C4B8C421A7809D03AB90A4A0B4993
:100A80001488088810800C8001221A7010BD002A7A
:100A9000FCD0054A05491488088810800C80002283
:100AA000F3E700BF1A3F0120163F0120183F012045
:100AB00070B50D46194635B9094B0A4A0A4840F245
:100AC000FF2121F047FEC0E90F52084B003A18BF42
:100AD00001221A700368BDE87040D3F890301847BF
:100AE000003802083838020886380208203F012002
:100AF00008B5094B1B888B4203D8084B1B889342CF
:100B000005D9074B074A0848A32121F023FE074BCC
:100B10001980074B1A8008BD163F0120183F01209D
:100B2000CB3802082E390208863802081C3F012003
:100B30001E3F0120034690F87A0018B158680368F8
:100B40001B68184770470000012108B500220846BD
:100B500006F0AAFB0A4B186028B90A4B0A4A28215A
:100B60000A4821F0F7FD00220421012006F044FC90
:100B7000074B186018B9074B034A2C21F0E708BD52
:100B8000C004002071390208BA390208E9390208A4
:100B9000BC0400203A3A0208024B4FF0FF311868BB
:100BA00006F0CCBBC0040020014B186806F0F2BB75
:100BB000C0040020024B0021186806F0BFBB00BF34
:100BC000C0040020FFF7F0BF034804490068002379
:100BD0001A4606F04CBC00BFBC04002004000020F4
:100BE00013B5084C00231A4601A9206806F070FCD2
:100BF00020684FF0FF33002201A906F069FC02B023
:100C000010BD00BFBC04002003685B6C18470120C6
:100C1000704703689B6A1847FEE740F2EF30704761
:100C2000054B0360054B4FF08062C3F88820BFF38B
:100C30004F8FBFF36F8F70477843020800E100E0E9
:100C400010B504464FF45A61FFF7EAFF204620F042
:100C500044FE204610BD000082B0002301930E4BDD
:100C60001A6B42F400021A631A6B02F4000201923A
:100C7000019A1A6942F400021A611A6922F4000208
:100C80001A61064B064A1A61064A5A61064B4FF032
:100C900080629A6002B07047003802406C300020D9
:100CA000F90E0008190C000800E100E008B50A2858
:100CB00009D8DFE800F006100E0808080810101028
:100CC0001000022008BD054B054A0648902121F07E
:100CD00041FD0020F6E70120F4E700BF7C3A02085E
:100CE000973A0208E23A020838B50C46887FFFF7C7
:100CF000DDFFA58AE28A164B2169586342EA054264
:100D00005A64628BD963521B1A642568082D0ED170
:100D10009A611A615862207F0E4A42EA0062DA61E3
:100D2000E2681A620C4A5961D9601A6038BD002223
:100D3000D8611A61E1680A0A480902F4784200F4AD
:100D4000FC600243C1F3C4010A439A63034AECE71F
:100D500000B002400900010001230200012303004A
:100D600008B50B280BD8DFE800F00612100A0A0AB3
:100D70000A0808080808022008BD0520FCE7054B02
:100D8000054A06486F2121F0E5FC0020F4E7012028
:100D9000F2E700BF7C3A0208313B0208E23A02085F
:100DA0002DE9F04191F81D800C464046FFF7D8FF31
:100DB000A77F05463846FFF7D3FF06463846FFF7BC
:100DC00075FFA18A628B444B521A1A649A61228B76
:100DD000521A1A61E28A586342EA01425A6421694E
:100DE0006268D963DA602068802828D0227F0FD813
:100DF000202867D0402865D004281AD0364B45EA11
:100E0000026545F40035B845DD6161D0334A44E000
:100E1000B0F5807F04D0B0F5007FEFD1304800E01E
:100E2000304840EA0262DA61E2681A625E62596141
:100E300032E045EA026242F40032DA61F6E7A06885
:100E4000021DDA62227F45EA026545F40035DD6164
:100E50005E625961017841B1012921D0224B234AB8
:100E600023484FF48D7121F075FCDA69418822F432
:100E70007F42013922F0100242EA0122DA610121A7
:100E8000154BDA6942F02002DA61DA699206FCD485
:100E900010229A600029B9D0164A1A60BDE8F08184
:100EA000B2F1FF01DA69408822F47F4200F1FF309D
:100EB00022F0100242EA002242F0100218BF012183
:100EC000DA61DDE745EA0262034B42F40032B4E73F
:100ED00042F20132E1E700BF00B00240012301000D
:100EE000090002000A0002007B3B0208953B020851
:100EF000E23A020801230200024B1B6858680368AB
:100F00005B691847243F012070B5044625460A4B0B
:100F10000C30002660602672667245F8203B602225
:100F200029460AF071F904F55A63EE6024359D42B2
:100F3000FBD1204670BD00BF78430208034B1A68FE
:100F4000D207FCD423229A60704700BF00B0024051
:100F50007047000030B50F4C2568ED07FCD4232501
:100F60000904A56041F001010225FF2B656361645E
:100F7000E0630AD00849656241EA0363E361074B15
:100F800022626061E060236030BDE561039BA36382
:100F9000034BF8E700B00240090001000100020025
:100FA0000100030030B50E4C2568ED07FCD4232565
:100FB0001204A56042F001020225FF2B6563626402
:100FC000E063E16008D01B0643F00213E361054BC8
:100FD00065626061236030BD034BE3610123F9E783
:100FE00000B0024001000200020002FF30B50B4CCD
:100FF0002568ED07FCD4232512041B06A56043F4E5
:101000000033022542F0010265636264E063E1603F
:10101000E361034B65626061236030BD00B0024054
:1010200001000200012070470C2070470C2303FBD5
:101030000100083070470C2303FB010008307047A3
:10104000012070474FF46F6070474FF46F6303FBEC
:101050000100083070474FF46F6303FB0100083054
:101060007047012070471020704700EB01100830D6
:10107000704700EB011008307047084601F0FABCD9
:1010800010B5034B0360044608F0DCFE204610BD9B
:101090003044020810B50446FFF7F2FF2046142141
:1010A00020F01BFC204610BD10B5034B0360044626
:1010B00008F0C8FE204610BDFC43020810B50446E7
:1010C000FFF7F2FF204640F6F86120F006FC2046CC
:1010D00010BD000010B5034B0360044608F0B2FEDB
:1010E000204610BDC843020810B50446FFF7F2FFC2
:1010F0002046182120F0F1FB204610BD10B5084B0A
:101100000360044600F62470FFF7BAFF04F12C00D8
:10111000FFF7CAFF04F11400FFF7DCFF204610BD03
:101120006444020808B50248FFF7E8FF08BD00BFA5
:101130009C13002010B50446FFF7E0FF204641F263
:10114000980120F0CAFB204610BD00002DE9F341B4
:1011500001F012FB054601F013FB00240146234673
:1011600028462246009411F025FB274B274A1A6097
:10117000204601F0C3FE264D264B274A27489A6099
:1011800011F080FA2B68BFF35B8FDB0735D428465C
:1011900020F0A5FB88B3224C224B236004F63C765A
:1011A00004F1140004F12C0804F624776060C4F8FC
:1011B0000880E760266108F047FE1B4B63614046EC
:1011C00008F042FE194BE362384608F03DFE184B2A
:1011D000C4F8243F04F6387001F006FF224604F6F6
:1011E0003871304601F0F6FE304601F043FC1148FC
:1011F00021F0CEFA284620F07EFB0F4802B0BDE871
:10120000F041FFF7E7BB00BF883F01204805002001
:1012100098130020680500204C05002008000020DD
:101220009C13002064440208C8430208FC430208DF
:101230003044020825110008C40400207047000053
:101240000148FFF7D5BB00BFC404002070B5264E8F
:10125000264C274D274B23603046FFF755FE284686
:1012600016F0AEFB24480FF00BFB244B2448DC6047
:1012700000224FF48071C3E9121222491A86C3E991
:101280001A12214983F85820C3E91E011F49C3F8E7
:1012900080101F491F480B60F021C3E90422C3E9F5
:1012A0000622C3E90822C3E90A22C3E90E22C3E9E0
:1012B0001022C3E91422C3E917225A6683F870206A
:1012C0005A67C3E9016501801348018013484FF450
:1012D000A07101801248018012490A70012283F82E
:1012E0003420114A1A6070BDF405002094130020C8
:1012F00068050020F03702084C050020C4040020D7
:101300000000010101000001000450001A00140057
:10131000243F0120163F01201C3F0120183F0120DF
:101320001E3F01201A3F01208C4202080148FFF7AE
:1013300077BC00BFF4050020002070478180704713
:10134000C180704701817047418170477047704785
:1013500070477047704710B4C4880368121B8488B4
:101360005B6D091B12B25DF8044B09B218474FF6CA
:10137000FF7383814FF0FF3303621368C361106012
:101380007047002070478B8883800120704770472A
:1013900080F82610704790F82600704710B500229C
:1013A000B1F90840B1F90A10028042808480C180FE
:1013B00010BD0022028042808280C2807047017787
:1013C000704780ED080A704780F82410704780F855
:1013D0002510704701207047983070478C30704757
:1013E000843070477047704770470000034B90226D
:1013F00083F85A2383F85823704700BF00E100E0C8
:10140000094A0A49D3680A48C3F30A03013B9BB25D
:101410000B801169C1F30A01013901801364536B18
:1014200043F00103536370470068014036240020F5
:1014300034240020014BD3F8AC0070470068014011
:10144000024B0122C3F8AC105A6270470068014099
:1014500010B52C21044620F040FA204610BD10B5EE
:10146000BC21044620F039FA204610BD70B5044670
:1014700008F0E9FF23689D6E0DF09AFF01462046B3
:10148000A8472368054AD3F88C502046AC46002371
:10149000BDE87040A2F51631604700BF00B004D02F
:1014A00008F0B8BF08F0C2BF08F07EBF09F0EDB881
:1014B00090F8252012B103685B691847704790F8CF
:1014C00025201AB190F8242002B11860704700005E
:1014D000034B4FF080629A604FF080729A607047C1
:1014E00000E100E0084B4FF08062C3F88820BFF3B2
:1014F0004F8FBFF36F8F4FF08072C3F88820BFF318
:101500004F8FBFF36F8F704700E100E070B500238D
:10151000124E8380124B0360336893F858200546BF
:101520000AB1D86C00B998680368DB6A98473368D9
:10153000B0FA80F4D86C640930B10368DB6A98476C
:10154000002808BF44F001042CB9064B064A07489E
:101550002C2121F0FFF8284670BD00BF243F012058
:1015600078440208D33B0208313C02086A3C020876
:1015700070B5254E3568BFF35B8F15F0010540D17E
:10158000304620F0ACF900283BD0204C204B2561A0
:1015900004F13400C4E90035C4E90255E584A562CC
:1015A000A5850FF052FC04F158000BF0BFFF194B5A
:1015B000A3652046184B40F8843BFFF7A7FF174B65
:1015C000C4F884302433C4F88C304FF4C803C4E921
:1015D00028350023C4F8AC30C4F8B030C4F8B430B7
:1015E000C4F8B8300E480F4BC4F89050C4F89C5063
:1015F000C4F8A850C4F8983021F0CAF8304620F05A
:101600007AF9024870BD00BF382400203C24002035
:101610006449020898440208104502081849020863
:10162000E9130008F848020838B5184C23685BB382
:10163000174B184A1B6C11888B4216D1164B198810
:1016400003F0B8F9236893F86A200025013283F883
:101650006A2083F87C50FFF7B7FA206809F07EFC17
:101660002846BDE83840FFF7F7B803F0A3F924682F
:10167000236820461B6A9847012384F87C300020A9
:10168000BDE83840FFF712B938BD00BF243F012044
:1016900000680140362400203424002008B50C499D
:1016A0000C48012207F06CFE08B100F053FD0A4916
:1016B000084807F078FE08B100F04CFD054807F037
:1016C0008BFE18B1BDE8084000F044BD08BD00BF66
:1016D00040000020F82400205C0100201223014873
:1016E0000B8070472C000020042301480B807047BA
:1016F00028000020002370B54D1C1E46040FB0F1D9
:10170000204F34BF3034373401F8134005F81360EC
:101710000133DCB2A2424FEA0010EFD870BD0000E6
:101720001A2310B50B800A4BD3F8100AD3F8182AE5
:1017300080180AD0D3F8144A06490822FFF7DAFFC6
:10174000042210312046FFF7D5FF034810BD00BF2B
:101750000070FF1F0E0000200C00002010B5044C8C
:1017600004480A46214608F0FDF9204610BD00BF96
:10177000D4270020CC3C020810B5044C04480A468B
:10178000214608F0EFF9204610BD00BFD427002005
:10179000DF3C020810B5044C04480A46214608F014
:1017A000E1F9204610BD00BFD4270020F53C020817
:1017B00010B5044C04480A46214608F0D3F92046E7
:1017C00010BD00BFD4270020003D020830B50446FC
:1017D00089B01422002103A821F0C3F922681C4B10
:1017E0009A4233D11B4C1C4800250195236B43F0D2
:1017F00002032363236B03F002030193019B03A9FC
:101800004FF40053039302F0E3F94FF440420223F4
:10181000CDE9032303210C23CDE906130E480595DA
:101820000DEB030102F0D4F90295236B43F0005352
:101830002363236B03F0005302934D202A460521B6
:10184000029B02F07BF84D2002F0AAF809B030BDEF
:1018500000000440003802400004024000F29C41B5
:10186000D0F8E00407F0CABD242303FB0103D0F83D
:10187000E004D3F8602207F0F1BD242303FB010349
:10188000D0F8E0041A6A07F01EBED0F8E00407F0B2
:10189000B8BE10B5C179044621B1022901D000F0CB
:1018A00059FC0121D4F8E00407F08FFED4F8E004DD
:1018B000BDE8104007F05ABE10B50446D0F8E00469
:1018C00007F086FE2268D2F8003E43F00103C2F81A
:1018D000003EE37A23B1034A136943F00603136120
:1018E00010BD00BF00ED00E0D0F8E00407F07EBEC0
:1018F000D0F8E00407F0A5BED0F8E00407F08EBEF3
:10190000D0F8E00407F0B0BED0F8E00407F0AEBEB7
:1019100008B50278012A034627D11548C0F8E034FB
:10192000C3F8C802134B0360062303714FF400731E
:10193000C38002234372002343810373C281037473
:1019400003F056F808B100F005FC4FF400710848A8
:1019500003F073FD80220021054803F04FFD044889
:101960004FF4BA72012103F049FD002008BD00BF09
:10197000E82900200000044011F0800FD0F8C832A0
:101980004FF024021BBF01F07F0102FB013302FB79
:101990000133987D08BF93F856027047004870479E
:1019A000D4290020704718B102280CBF0120032061
:1019B000704708B5D0F8C80203F089F8BDE80840C0
:1019C000FFF7F1BF10B51446D0F8C8021A462346F7
:1019D00003F0AFF8BDE81040FFF7E5BF08B5D0F859
:1019E000C80203F0DFF8BDE80840FFF7DCBF08B528
:1019F000D0F8C80203F03DF9BDE80840FFF7D3BFB7
:101A000008B5D0F8C80203F06BF9BDE80840FFF74D
:101A1000CABF08B5D0F8C80203F078F8BDE808409E
:101A2000FFF7C1BF08B5D0F8C80203F007F9BDE859
:101A30000840FFF7B8BF08B5D0F8C80203F0E0F8D7
:101A4000BDE80840FFF7AFBF07B5064BADF806008D
:101A50001B68054801220DF1060104F041FA03B0AC
:101A60005DF804FB5C000020182F002008B5FFF78C
:101A700015FE642005F00CFCFBE7000007B51A4ECC
:101A80001A4C306805F054FD28B34FF0FF3330682E
:101A900000220DF1070105F01BFD9DF80730002520
:101AA000522B25706570A570E57018D0542B18D096
:101AB0004C2B07D101230E4823700422214608F045
:101AC00052F925700A480422214608F04CF90023F7
:101AD0006370A370E370012005F0DAFBD1E7022305
:101AE000E9E7FB23A370EDE7D42E0020B4300020FB
:101AF000F824002030B595B0102200210AA821F06A
:101B000030F81422002103A821F02BF800241D4BEB
:101B100001941A6C42F080521A641B6C03F08053DB
:101B20000193019B184B02941A6842F440421A60D8
:101B30001B6803F4404302930122029B4FF480335D
:101B4000CDE9082302254FF48003CDE90E5304218B
:101B5000A823CDE9101308A807231393129503F0C7
:101B600071FC0F23CDE903354FF4A0504FF480539F
:101B7000CDE90603052103A8059403F03FFE15B047
:101B800030BD00BF00380240007000402DE98048A1
:101B90009BB001F081FEFFF7ADFF142200210DA8DC
:101BA00020F0DFFF0024C74B00941A6BC648C74DD6
:101BB00042F010021A631A6B02F010020092009AAF
:101BC00001941A6B42F020021A631A6B02F0200291
:101BD0000192019A02941A6B42F080021A631A6B06
:101BE00002F080020292029A03941A6B42F00402FD
:101BF0001A631A6B02F004020392039A04941A6B9C
:101C000042F001021A631A6B02F001020492049A74
:101C100005941A6B42F002021A631A6B02F0020278
:101C20000592059A06941A6B42F040021A631A6BE9
:101C300002F040020692069A07941A6B42F00802DC
:101C40001A631B6B03F00803224607933C21079B92
:101C500002F0A8F89E480122022102F0A3F82246D1
:101C60009B48042102F09EF822469A484FF44051C6
:101C700002F098F801263C23CDE90D3692480F94E6
:101C800003230DA90227109301F0A2FF90480DA98C
:101C9000CDE90D76CDE90F4401F09AFF04238C487D
:101CA0000DA9CDE90D36CDE90F4701F091FF0DA942
:101CB0004FF440538748CDE90D36CDE90F4701F089
:101CC00087FF8548854B036001F078FEDFF834C25A
:101CD000834B2C62C5E900C328464FF48043C5E915
:101CE0000434C5E90244C5E9064402F069FA10214A
:101CF000284602F0ADFC2146284602F0C8FC794D8A
:101D0000DFF804E2AC624FF48273C5E900E34FF4FC
:101D100000781823C5E9068328460A23C5E902444A
:101D2000C5E90444C5E90844EB6204F07DF88F235B
:101D30002246394666488DF824308DF8344002F04A
:101D400031F832464FF47A7309A9284604F0C8F8EE
:101D50004FF47A7332460DA9284604F06DFA3246E4
:101D600039465B48604D02F01DF89DF83430D32BA6
:101D700004BF5E4B1E705E4B0127C5E900374FF074
:101D8000100A40230024C5E904A34FF4C073C5E939
:101D900006344FF40063C5E908344FF400530226BB
:101DA0004FF00409AB624FF0030B07230DA928463F
:101DB000CDE90D63CDE90F934FF00808C5E902495D
:101DC000CDE911B6139603F013FF4FF6FF7209A980
:101DD0002846CDE90A87089409970C9403F028FF58
:101DE000384601F085FD4FF6FF7209A92846CDE976
:101DF0000968CDE90B7403F01BFF4FF6FF7209A9C8
:101E00002846CDE909B8CDE90B9403F011FF4FF452
:101E10000C730893089B0C934FF6FF7209A9284690
:101E2000CDE909980B9703F003FF40F26A51284669
:101E300003F01CFF342221460DEB020020F091FE3E
:101E40002C4D2D4B2C61C5E900340923C5E905371C
:101E50001D23C5E9073B40F20D1240F24313C5E9CB
:101E6000092340F2171140F247132846C5E90B1326
:101E7000C5E90244AC8685F8364002F0A3FCFF2198
:101E8000F022CDE912144FF4806005214FF4A073C5
:101E9000CDE91401CDE90E240DA9CDE9164228465D
:101EA0002246164D1893CDE910360D94ADF86440D6
:101EB0008DF8664002F051FD114B2B601B6898476E
:101EC0002B6823E000380240001002401830002048
:101ED00000080240000C0240AC30002000300240FC
:101EE000A0860100182F0020E42E0020D02E002014
:101EF000400100A0702F002000680140CC2E00207F
:101F000064000020005C0040005001401B4DDB6875
:101F100098471B4B2846C5E90034C5E90264C5E96A
:101F20000A46C5E90C4401F059FD3946284601F03E
:101F30000BFEFEF7C5FBFEF7C2FB05F039F9114AAF
:101F40003146504605F058FA0F4B104A18602146AA
:101F50000F4805F059F90F4B0F4A186021460F48FA
:101F600005F052F90E4B0F4A186021460E4805F055
:101F70004BF90E4B186005F02DF9FEE76C30002090
:101F800000B0024054450208D42E0020B445020897
:101F90006D1A0008E02E002090450208CF060008C8
:101FA000DC2E00206C4502087D1A0008D82E002087
:101FB000704770477FB5094B8DF817201B68029357
:101FC0000DF117020123009201930A4601460448CD
:101FD00002F09EF907B05DF804FB00BF600000202E
:101FE000183000207FB500238DF81730084B1B6890
:101FF00002930A4601230DF1170100910193014656
:10200000044802F015FA9DF8170007B05DF804FBCC
:1020100060000020183000201FB5084C2468009292
:10202000CDE901340A4601230146054802F000FAD1
:10203000003818BF012004B010BD00BF60000020B0
:102040001830002001F054BC10B5064C0022204688
:10205000042101F0A7FE20460122BDE81040042122
:1020600001F0A0BE0008024038B50B4D0446012225
:102070000A484FF4005101F095FE00220421284641
:1020800001F090FE2046FFF7DFFC28460122BDE864
:102090003840042101F086BE00080240000C0240D6
:1020A00038B50B4D044600220A484FF4005101F0A8
:1020B00079FE00220421284601F074FE2046FFF735
:1020C000C3FC28460122BDE83840042101F06ABE65
:1020D00000080240000C0240F7B5144E144F0546AC
:1020E0000C4630460022042101F05CFE00224FF431
:1020F0000051384601F056FE2846FFF7A5FC0D4B6F
:102100000D481B68224601A904F096F838460122C2
:102110004FF40051019C01F045FE3046012204219C
:1021200001F040FE204603B0F0BD00BF00080240B1
:10213000000C02405C000020182F002001F0D8BBEA
:102140000268034B9A4201D101F0C0BB704700BF47
:10215000001000407047000082B00E4B0022009239
:10216000596C41F480415964596C01F480410091EB
:1021700000990192196C41F0805119641B6C03F0B5
:1021800080530193019B0F216FF0010002B001F019
:10219000D5BB00BF003802400268094B9A4282B0AA
:1021A0000BD100230193074B1A6B42F480521A6340
:1021B0001B6B03F480530193019B02B0704700BF77
:1021C000003002400038024007B50F4B02689A42C7
:1021D00016D10022A3F5F0430192196B41F40001DE
:1021E00019631B6B03F40003019305215A20019B23
:1021F00001F0A4FB5A2003B05DF804EB01F0D0BB62
:1022000003B05DF804FB00BF00B002402DE9F043CD
:10221000044689B01422002103A820F0A2FC226801
:10222000244B9A4243D1244C244800250095236B2B
:1022300043F004032363236B03F004030093009B28
:102240000195236B43F001032363236B03F0010328
:102250000193019B4FF012094FF400734FF00108F6
:102260000327042603A9CDE90339CDE9058707969D
:1022700001F0AEFC4FF480731148079603A9CDE935
:102280000339CDE9058701F0A3FC0295236C43F4E3
:1022900000032364236C03F400030293029B236A6C
:1022A00043F400032362236A23F40003236209B08A
:1022B000BDE8F083005C00400038024000080240A6
:1022C00000000240F0B599B004461422002107A88E
:1022D00020F047FC30220DEB0200002120F041FCF1
:1022E00022685E4B9A4240F0B78008230C93C023CB
:1022F0001093042312930CA84FF40033159303F0AA
:102300004BFB08B1FFF726FF554B564800240094BD
:102310005A6C42F080625A645A6C02F080620092F9
:10232000009A01941A6B42F020021A631A6B02F0B1
:1023300020020192019A02941A6B42F001021A6380
:102340001A6B02F001020292029A03941A6B42F095
:1023500002021A631A6B02F002020392039A0494B7
:102360001A6B42F040021A631A6B02F040020492A8
:10237000049A05941A6B42F004021A631A6B02F075
:1023800004020592059A06941A6B42F008021A6339
:102390001B6B03F00803069302250E26069B0B9683
:1023A0004FF4806307A9CDE90735CDE9094501F070
:1023B0000FFC41F658032C480B9607A9CDE90735C9
:1023C0000927CDE9094501F003FC032327480B97B2
:1023D00007A9CDE90735CDE9094501F0F9FB4FF42F
:1023E000706322480B9607A9CDE90735CDE9094569
:1023F00001F0EEFB4FF40C631D480B9607A9CDE9E5
:102400000735CDE9094501F0E3FBC02319480B96D8
:1024100007A9CDE90735CDE9094501F0D9FB082326
:1024200015480B9607A9CDE90735CDE9094501F017
:10243000CFFB4FF4A0530E480B9707A9CDE9073502
:10244000CDE9094501F0C4FB58202246052101F0E1
:1024500075FA582001F0A4FA19B0F0BD00680140E7
:102460000038024000140240000002400004024014
:102470000018024000080240000C024010B504465B
:1024800088B01422002103A820F06BFB2268144BB3
:102490009A4223D103F56843002101915A6C1148F7
:1024A00042F480125A645A6C02F480120192019A2A
:1024B00002911A6B42F020021A631B6B03F0200397
:1024C0000293029B4FF4607202230321CDE90323A0
:1024D0000523CDE9061303A901F07AFB08B010BD6E
:1024E00000500140001402402DE9F04186B0002365
:1024F00003932B4B1C68002C4FD14FF00108C3F8FD
:102500000080284B00949A6B274842EA08029A639D
:102510009B6B03EA08030093022703260C25009B0C
:1025200001A94FF63F03CDE90137CDE9046501F07C
:102530004FFB1E48059501A9CDE90187CDE903466A
:1025400001F046FB48F233131948059501A9CDE97E
:102550000137CDE9034601F03BFB4FF68373154885
:10256000059501A9CDE90137CDE9034601F030FB1E
:102570004CF203731048059501A9CDE90137CDE967
:10258000034601F025FB60230C48059501A9CDE920
:102590000137CDE9034601F01BFB06B0BDE8F08131
:1025A000B830002000380240001402400008024009
:1025B0000018024000100240000C024000040240DB
:1025C00070B588B000230293204B1A6C42F01002C1
:1025D0001A641B6C03F010030293054601A903A8BB
:1025E000029B03F0BBF9069B4BBB03F0A7F9184E07
:1025F000184B336040F2E733F360174BB0FBF3F353
:10260000013B7360304600233361B360B36103F074
:10261000E3FF044680B9304603F0B4FE044658B9DF
:10262000362001F0BDF90F2D0DD82246294636205F
:1026300001F084F9094B1D60204608B070BD03F01D
:102640007DF94000D3E70124F6E700BF00380240DF
:10265000BC3000200010004040420F00CC000020A1
:102660007047FEE7FEE7FEE7FEE77047014803F02C
:10267000C7BE00BFBC300020014802F077BB00BFDE
:10268000E8290020014802F00BB900BF702F00209C
:10269000014801F0CFB900BF6C3000200120704725
:1026A00008B520F001FB162303604FF0FF3008BD92
:1026B00008B520F0F9FA16230360FEE770B50D4661
:1026C00014460E46731B9C4201DC204670BDAFF3DE
:1026D000008006F8010BF5E770B50D4614460E466E
:1026E000731B9C4201DC204670BD16F8010BAFF352
:1026F0000080F5E74FF0FF3070474FF400534B6018
:102700000020704701207047002070470A4A116876
:1027100008B5034609B909491160106869460344C0
:102720008B4206D920F0C0FA0C2303604FF0FF3033
:1027300008BD1360FCE700BF04310020684C012095
:10274000704710B5042104461FF0C7F8204610BD9D
:10275000012908B506D0022908D059B900F00CFCAF
:10276000006808BD00F008FC4068FAE700F004FCCF
:102770008068F6E70020F4E700487047EC4502085F
:102780000120704713B5002451B1036801948DF8FE
:10279000034001AA9C680DF10303A04702B010BDDD
:1027A0000846FBE7C0897047008A7047C0887047B9
:1027B00080887047807A00F07F007047807AC00977
:1027C00070470020704700009FED010A704700BF6E
:1027D000000000007047704700F59873086849686A
:1027E00003C3704770477047416070477047704738
:1027F000064BC0F84C310023C0F8503100F5A273ED
:10280000C0F84801C0F84031704700BFB128000847
:10281000012303727047704710B4C26841685410B6
:10282000034601EB6200D20748BF0A599B685DF876
:10283000044B48BFD35818470346406830B19A68E4
:102840001AB9D86800F0010070470120704710B530
:102850000C2104461FF041F8204610BD10B5102190
:1028600004461FF03AF8204610BD10B54FF4AE7183
:1028700004461FF032F8204610BD10B50CF098FD4C
:102880000368BDE81040DB6B184710B50446D0F86C
:10289000400158B10368DB68984738B1D4F840016B
:1028A00003689B6898470023C4F8403110BD0000BE
:1028B0002DE9F14FD0E9556A0746B06803681B6AF5
:1028C0009847B0F56F6F05D2444B454AA321454860
:1028D0001FF040FF706803681B6A98470F2803D8F1
:1028E000414B3F4AA421F2E7F06803681B6A98470E
:1028F0000B2803D83D4B3A4AA521E8E70CF058FDD8
:10290000DFF8F09004300CF078FDD9F8000010B139
:102910000368DB689847D9F8000010B103681B68AA
:102920009847DFF8D480D8F8000010B103685B69DD
:102930009847D7F83C0110B103685B689847D8F80E
:10294000000010B103681B689847D7F83C0110B12C
:1029500003689B689847F068036800215B6A9847A2
:102960004FF0000B224BC0F804B0044680F808B0CA
:102970000360B068036859465B6A9847054600F0F3
:1029800067FB7068036859465B6A984729460646A4
:1029900000F03CFB331DC7F83C61C9F80040C8F8A3
:1029A0000050CAF800302B68C6F808A02846DB683B
:1029B000EE639847336830461B689847214628469F
:1029C0000EF032FF236820461B69984723685B6935
:1029D000204601B0BDE8F04F184700BF363D020861
:1029E000C43D0208963E0208DD3E0208803F020810
:1029F000744602086C3F0120683F0120044B1B68AD
:102A000093F858200AB1D86C00B99868704700BF95
:102A1000243F012070B504460D4616460CF08AFD91
:102A2000104A1460104A2260104A0023C4E951235E
:102A3000C4E95333C4E94F330D4B186803680121CF
:102A40009B68C4E955659847FFF7D8FF16F061FE0B
:102A5000FFF7D4FF16F0D8FEFFF7D0FF16F0E0FE28
:102A6000204670BD783F0120204602080846020833
:102A7000243F0120064BC0F84C310023C0F85031F0
:102A800000F5A273C0F84801C0F84031704700BF9C
:102A9000B1280008406A7047806A704770478A888A
:102AA0000B8810B5D20A4C88C1699BB251F822003C
:102AB00043EA0443184410BD10B50446BAB1107B74
:102AC00068B1537BD27A1B0203F4E0631A43236A92
:102AD00003EB82031A888A4202D193F9020010BDE7
:102AE00005D8013880B204330028F3D1F7E700207D
:102AF000F5E710B52C2104461EF0EFFE204610BD70
:102B000030B58BB00446BDF860500895BDF85C50F8
:102B100007959DF8505006959DF84C5005959DF8E9
:102B2000485004959DF8445003959DF840500295F7
:102B30009DF83C500195BDF8385000950EF042FAD2
:102B4000064B2360159BE361169B2362199B63620E
:102B50001A9BA36220460BB030BD00BF9846020806
:102B600070477047704770477047704710B5034B08
:102B7000036004460BF0CCFB204610BD0047020862
:102B800010B5064B036004460BF0C2FB204640F62E
:102B9000D8611EF0A2FE204610BD00BF004702080B
:102BA0002DE9F0411D460368BDF918701B6B044602
:102BB000164698472368314620465B6B9847236842
:102BC000294620469B6B9847236839462046DB6B95
:102BD000BDE8F041184700002DE9F34704460EF028
:102BE00077FC374B2360374B0025C4E910354FF491
:102BF000807304F16C06A4F86430FF2384F8663017
:102C000004F1B408C4E91255C4E91455C4E91655D1
:102C1000E5632566A566304609F070FF4046FEF77D
:102C200075FC294BC4F8B4302433C4F8BC3004F12B
:102C3000C80004F1400A4FF4A079C4F8C0504FF422
:102C400061610BF05BFB2A4629465046CDF80090A7
:102C5000F023FFF7A5FF271D4FF07F43A3665146E2
:102C6000384607F005F92A4629463046CDF8009047
:102C7000F023FFF795FF4FF4A063C4E926334FF428
:102C80008C63C4F8A030A023C4F8AC304FF43453A4
:102C9000C4F8A8303046C4F8A450B42109F046FF67
:102CA0004FF0FF333846C4F8C030A4F8C430C4F83D
:102CB0009480314607F0DCF8204602B0BDE8F0878A
:102CC00000470208584B02081849020870470000E4
:102CD00030B5164D2C6814F001048FB0BFF35B8F34
:102CE00020D128461EF0FBFDE0B13F230993104B95
:102CF0000893104B104911480A940122CDE906436C
:102D00000423CDE903320A230093CDE90B44CDE936
:102D100001440594FFF7F4FE09481FF039FD2846E9
:102D20001EF0E9FD05480FB030BD00BF083100209E
:102D3000C4550208D0550208945502080C310020F1
:102D4000CD2C00087047000030B5164D2C6814F0EB
:102D500001048FB0BFF35B8F20D128461EF0BFFD6A
:102D6000E0B13F230993104B0893104B10491148D1
:102D70000A940122CDE906430423CDE9033214234A
:102D80000093CDE90B44CDE901440594FFF7B8FE6B
:102D900009481FF0FDFC28461EF0ADFD05480FB0A8
:102DA00030BD00BF38310020C8550208D455020894
:102DB000A45502083C310020452D00087047000052
:102DC00030B5164D2C6814F001048FB0BFF35B8F43
:102DD00020D128461EF083FDE0B13F230993104B1C
:102DE0000893104B104911480A940122CDE906437B
:102DF0000423CDE9033228230093CDE90B44CDE928
:102E000001440594FFF77CFE09481FF0C1FC2846E9
:102E10001EF071FD05480FB030BD00BF68310020C5
:102E2000CC550208D8550208B45502086C31002070
:102E3000BD2D000800207047002070470EB403B578
:102E400003AB002153F8042B01930DF039FB02B0C2
:102E50005DF804EB03B070470CB407B504AB53F84E
:102E6000042B01930DF02CFB03B05DF804EB02B0D2
:102E700070470000436C10B5044673B3038F2BB941
:102E8000184B194AC52119481FF064FCC38E00EB8A
:102E900043035B8C0BB30FF0BAF9238F012B03D8DC
:102EA000134B144ACB21EEE7E28E531C9BB2092B45
:102EB000194688BFA3F10A0104EB410140F63F1017
:102EC000498C814209D10A2B04EB420228BF00231E
:102ED00004EB4303508C588451842046BDE81040D5
:102EE0000FF098B8234002082C400208D74002088F
:102EF000214102082F4102080FF053B838B518BB22
:102F0000124B13481C681349B4B122682244026072
:102F1000626822440A60A26814440F4B00221A809F
:102F200000F02AF8054600F025F80C4B1C600C4B0D
:102F30001D600C4B188007E00B4B03600B4B0B60C4
:102F40000B4B1C68002CE8D138BD00BFA431002019
:102F50009C31002098310020A03100207C3F0120CE
:102F6000843F0120803F0120E0550208DC55020823
:102F7000E45502080020704700487047A83100203F
:102F800010B5FFF7E1FE044C2060FFF719FF606009
:102F9000FFF79EFEA06010BDA831002010B50024F0
:102FA00004600C6014601C6010BD704710B54FF4D5
:102FB000AE7104461EF091FC204610BD10B50446CB
:102FC000D0F8580100F013F82046BDE810400CF08E
:102FD00071BA000010B50446FFF71CFD014B2360D9
:102FE000204610BD34470208002202607047704737
:102FF000704704387047704710B5102104461EF022
:103000006CFC204610BDA0F10400F5E700228260B0
:10301000024A026018324260C16070478847020865
:103020007047000010B5034B03600446FFF79EFD98
:10303000204610BDB047020810B50446FFF7F2FF66
:1030400020464FF46F611EF048FC204610BD000082
:1030500010B50446FFF7C0FD04F6D862094B2360A3
:103060000023136004F6DC62204613600023232251
:1030700084F8E03EC4F8E42EC4F8E83E84F8EC3E60
:1030800010BD00BFB047020881EAE173A3EBE17312
:103090001BB2002B82EAE273A3EBE2731BB207B50B
:1030A000D8BF0021002B65DD51EA020359D007EE9D
:1030B000902A9FED326ADFED326AB8EEE77A00F6C9
:1030C000D86327EE067AD3ED007A49420AB2A7EE1A
:1030D000A67A00F6DC6007EE902AF8EEE77A67EE53
:1030E000867A90ED006AE6EE267AF7EE086A27EE19
:1030F000267A67EEA67ADFED236AB4EEE67AF1EE81
:1031000010FA31DC9FED206AB4EE467AF1EE10FA47
:1031100048BFB0EE467AF4EEE67AF1EE10FA83EDAF
:10312000007A24DCDFED186AF4EE667AF1EE10FA2C
:1031300048BFF0EE667ABDEEC77A00230193C0ED7A
:10314000007A17EE103AFDEEE77A8DF8053004228A
:1031500017EE903A0D488DF806300DEB020106F09F
:1031600002FE03B05DF804FBB0EE667AD3E7DFED54
:10317000057AE0E70029F4D0002298E73333333FA3
:103180009A99993E0000FE42000000C3F8240020F6
:1031900007B5042200238DF804100648ADF8053069
:1031A0000DEB02018DF8073006F0DDFD03B05DF890
:1031B00004FB00BFF824002010B50446FFF7D5FC3F
:1031C000002384F8913010BD38B50B4609790446C8
:1031D00001BBB3F90820B3F906305B01C0F89830A1
:1031E0002323C0F8E43E4FF48C63C0F8A0305201B2
:1031F000A0230125C0F89C20C0F8AC3080F8915085
:103200006C300AF077F900F06DFB84F8E05EC4F8EA
:10321000E80E38BD0129FCD190F8EC5E45B9FFF706
:10322000B7FF142000F064FB29462046FFF7B0FFEB
:10323000002384F8EC3EECE738B590F8EC3E044609
:103240000D4613B9012380F8EC3EEA886B899B1A7E
:10325000144A13802A89AB899B1A134A138000F001
:1032600041FBB5F90C30B5F90A20C4F8E80E5B0152
:10327000C4F89C302323C4F8E43E4FF48C6352011D
:10328000C4F8A0300125A023C4F89820C4F8AC30BD
:1032900084F8915004F16C000AF02CF984F8E05E97
:1032A00038BD00BFB6310020B431002070B5204ECB
:1032B000204DB6F90010B5F9002051EA020304468A
:1032C00004D0FFF7E1FE002333802B8094F8E03E2A
:1032D00063B300F007FBD4F8E83EC31AB3F5FA7FF6
:1032E00004F104001CD207EE903ADFED136AB8EE49
:1032F000E77AC7EE267AB3EE0E7A67EE877AFDEEAE
:10330000E77A17EE903AC3F12303C4F8E43E5B0179
:1033100023EAE373C4F8A030BDE870400DF0FAB9B9
:10332000002384F8E03E84F89130F5E770BD00BFDB
:10333000B6310020B43100200000FA43F02070477D
:103340004FF4A07070472920FEF7AABE2820FEF790
:10335000A7BE08B5FEF778FECA20FEF7A1FEC3207F
:10336000FEF782FE0820FEF77FFE5020FEF77CFE6F
:10337000CF20FEF795FE0020FEF776FEC120FEF777
:1033800073FE3020FEF770FEED20FEF789FE64200C
:10339000FEF76AFE0320FEF767FE1220FEF764FECA
:1033A0008120FEF761FEE820FEF77AFE8520FEF719
:1033B0005BFE0020FEF758FE7820FEF755FECB207E
:1033C000FEF76EFE3920FEF74FFE2C20FEF74CFE76
:1033D0000020FEF749FE3420FEF746FE0220FEF7ED
:1033E00043FEF720FEF75CFE2020FEF73DFEEA20BC
:1033F000FEF756FE0020FEF737FE0020FEF734FEF3
:10340000B120FEF74DFE0020FEF72EFE1B20FEF73A
:103410002BFEB620FEF744FE0A20FEF725FEA22072
:10342000FEF722FEC020FEF73BFE1020FEF71CFE3A
:10343000C120FEF735FE1020FEF716FEC520FEF770
:103440002FFE4520FEF710FE1520FEF70DFEC720CB
:10345000FEF726FE9020FEF707FE3620FEF720FE40
:10346000C820FEF701FEF220FEF71AFE0020FEF74C
:10347000FBFDB020FEF714FEC220FEF7F5FDB620DE
:10348000FEF70EFE0A20FEF7EFFDA720FEF7ECFD8B
:103490002720FEF7E9FD0420FEF7E6FD2A20FEF7CF
:1034A000FFFD0020FEF7E0FD0020FEF7DDFD00201F
:1034B000FEF7DAFDEF20FEF7D7FD2B20FEF7F0FD3B
:1034C0000020FEF7D1FD0020FEF7CEFD0120FEF723
:1034D000CBFD3F20FEF7C8FDF620FEF7E1FD012001
:1034E000FEF7C2FD0020FEF7BFFD0620FEF7BCFD83
:1034F0002C20FEF7D5FDC820FEF720FE2620FEF783
:10350000CFFD0120FEF7B0FDE020FEF7C9FD0F2042
:10351000FEF7AAFD2920FEF7A7FD2420FEF7A4FD53
:103520000C20FEF7A1FD0E20FEF79EFD0920FEF700
:103530009BFD4E20FEF798FD7820FEF795FD3C2080
:10354000FEF792FD0920FEF78FFD1320FEF78CFD9C
:103550000520FEF789FD1720FEF786FD1120FEF7F6
:1035600083FD0020FEF780FDE120FEF799FD00209D
:10357000FEF77AFD1620FEF777FD1B20FEF774FD9F
:103580000420FEF771FD1120FEF76EFD0720FEF707
:103590006BFD3120FEF768FD3320FEF765FD42200C
:1035A000FEF762FD0520FEF75FFD0C20FEF75CFDD7
:1035B0000A20FEF759FD2820FEF756FD2F20FEF7C2
:1035C00053FD0F20FEF750FD1120FEF769FDC820C6
:1035D000FEF7B4FD2920FEF763FDBDE808402C206E
:1035E000FEF75EBD08B5FEF72FFD0321D320FEF7E1
:1035F00073FD80B208BD10B5C4B20222032120467B
:10360000FEF7D8FC0A20FEF71DFD2046002203210C
:10361000FEF7D0FCBDE810400220FEF713BD38B520
:103620000446E4B2FEF7C4FC00212046FEF7DAFCB3
:10363000012105462046FEF7D5FC40EA052080B270
:1036400038BD10B5C4B240212046FEF7CBFC0306BE
:1036500007D54C212046FEF7C5FC003818BF0120D5
:1036600010BD01224B212046FEF7A4FC204600227B
:103670004B21FEF79FFC0020F2E773B50423C4B290
:103680000E461546D7210DEB03022046FEF7C4FC7B
:10369000019B1BBA1A0DC3F30B23328020462B80EB
:1036A00001224B21FEF786FC00224B212046FEF72B
:1036B00081FC02B070BD000010B50A4A1378984230
:1036C00004460DD0517888420AD00BB141B901238C
:1036D000D454FEF76DFC2046BDE81040FFF78BBFC9
:1036E00010BD00BFB831002010B5C4B2092120467A
:1036F000FEF778FC40F00102D2B220460921BDE875
:103700001040FEF757BC10B5C4B209212046FEF7A1
:1037100069FC092100F0FE022046BDE81040FEF7DA
:1037200049BC38B5C4B20D4620460A21FEF75AFC02
:1037300040EA0502D2B220460A21BDE83840FEF731
:1037400039BC10B50446FEF734FC20461F21FFF7B4
:10375000E8FF2046BDE81040FFF7C6BF38B5C4B249
:103760000D4620460A21FEF73DFC20EA0502D2B2B2
:1037700020460A21BDE83840FEF71CBC10B50446BF
:10378000FFF7C1FF20461F21BDE81040FFF7E6BF4D
:1037900010B5C0B20C460B21FEF724FC204010BD32
:1037A0001F21FFF7F5BF0A46C0B20B21FEF702BC8E
:1037B0001F21FFF7F8BF38B5C4B20D4620461721C8
:1037C000FEF710FC20EA0502D2B220461721BDE820
:1037D0003840FEF7EFBB70B5C4B206460421204660
:1037E000FEF700FC042100F0FB0205462046FEF730
:1037F000E1FB3046F021FFF7DEFF05F0F80220463E
:103800000421FEF7D7FB492220212046FEF7D2FBF8
:103810000220FEF717FC204601222121FEF7CAFBF9
:1038200020469A224121FEF7C5FB204601224A216B
:10383000FEF7C0FB204601224B21FEF7BBFB2046D2
:1038400000224B21FEF7B6FB204601225621FEF74F
:10385000B1FB204601225821FEF7ACFB2046012295
:103860004021FEF7A7FB2046FF220B21FEF7A2FB1B
:10387000BDE870400220FEF7E5BB0000054BD3F821
:10388000882042F47002C3F888204FF000629A60EA
:10389000704700BF00ED00E008B50B4B1A6842F41A
:1038A00000721A601A6842F480621A601A6842F460
:1038B00080721A60032000F02FF80020FEF780FECF
:1038C000FEF74AFC002008BD003C0240034A044BBE
:1038D00011681B780B441360704700BFBC31002097
:1038E000C8000020014B1868704700BFBC310020A1
:1038F00038B50446FFF7F6FF631C1CBF054B1B7869
:10390000054618BFE418FFF7EDFF431BA342FAD3A7
:1039100038BD00BFC80000200749CA6822F4E06231
:103920000302120403F4E063120C134343F0BF6379
:1039300043F40033CB60704700ED00E0164B30B528
:10394000DC68C4F30224C4F10703251D042B28BF3F
:103950000423062D4FF0FF358CBF033C002405FAED
:1039600003F321EA0303A54022EA0502A34000284D
:1039700043EA0203ACBF00F16040084A4FEA031378
:10398000B8BF00F00F00DBB2AABF00F561401354CE
:1039900080F8003330BD00BF00ED00E014ED00E022
:1039A000002807DB044A4109012300F01F0083407F
:1039B00042F82130704700BF00E100E010B5044636
:1039C00050B1437903F0FF0213B90271FEF7E4FB33
:1039D00001236371002010BD0120FCE710B50446EF
:1039E00020B390F8393003F0FF021BB980F838207B
:1039F000FEF7EAFB022384F83930236861681A680D
:103A000022F440320A431A605A6BA16822F007027E
:103A10000A435A631A6CE1686FF30D020A431A6491
:103A200000200123E06384F8393010BD0120FCE759
:103A300070477047036870B55E681D68F2070446FA
:103A400014D5E90512D51A6822F480721A60C26B87
:103A500042F00102C26301229A60042380F83930E7
:103A6000002380F83830436903B19847B20616D571
:103A7000AB0414D523681A6822F400521A6020227D
:103A80009A60E36B43F00203E363042384F8393064
:103A9000002384F8383063690BB12046984730071B
:103AA00016D5290514D523681A6822F400621A6015
:103AB00008229A60E36B43F00403E363042384F871
:103AC0003930002384F8383063690BB120469847B9
:103AD00072070BD56B0509D523681A6822F480623A
:103AE0001A6004229A602046FFF7A2FFB00714D59F
:103AF000A90512D523681A6822F400721A600222FE
:103B00009A60E36BE363012384F83930002384F87F
:103B1000383023690BB120469847F20613D5EB04E1
:103B200011D523681A6822F480521A6010229A6014
:103B3000E36BE363012384F83930002384F83830E1
:103B40002046FFF776FF70BDF0B590F83820012AC7
:103B500003464FF002002BD0012283F8382083F86F
:103B6000390003EB0112D2E90740556A174F44EAC6
:103B70000040093C012C9CBF05F07F4210434FEAF6
:103B800001161A6888BF40EA056091B9516A394048
:103B900001435162012C9969916103D8596A21F05E
:103BA0007F4191620122002083F8392083F8380098
:103BB000F0BDD16939400143D1619919012C89695E
:103BC00011619CBF25F07F451562EBE7F0FFFC001B
:103BD0002DE9F74FDFF8BC916C4A00230D680124F2
:103BE0009C4004EA0506AC4340F0B7804D680327CB
:103BF00005F003044FEA430807FA08FC671E012F8B
:103C00006FEA0C0C34D8876807EA0C0ECF6807FA05
:103C100008F747EA0E078760476827EA060EC5F3EC
:103C200000179F4047EA0E074760C76807EA0C0E77
:103C30008F6807FA08F747EA0E07022CC76019D108
:103C40004FEAD30A00EB8A0A03F0070BDAF8207078
:103C50004FEA8B0B4FF00F0E0EFA0BFE27EA0E0EFB
:103C60000F6907FA0BF747EA0E07CAF8207001E060
:103C7000032CDAD1076804FA08F407EA0C073C437E
:103C800015F4403F046068D000240194D9F8444002
:103C900044F48044C9F84440D9F8444023F0030771
:103CA00007F1804704F4804407F59C37019403F042
:103CB000030C019CD7F808E04FEA8C0C0F2404FA9F
:103CC0000CF42EEA040E324CA0424DD004F5806470
:103CD000A0424BD004F58064A04249D004F5806432
:103CE000A04247D004F58064A04245D004F580642A
:103CF000A04243D004F58064A04241D004F5806422
:103D0000A0423FD004F58064A0423DD004F5806419
:103D1000A04214BF0A24092404FA0CF444EA0E0455
:103D2000BC609468F74315F4801F0CBF3C403443DB
:103D30009460D46815F4001F0CBF3C403443D46039
:103D4000546815F4003F0CBF3C4034435460146881
:103D5000ED0354BF3C40344314600133102B7FF417
:103D60003DAF03B0BDE8F08F0024D5E70124D3E7D1
:103D70000224D1E70324CFE70424CDE70524CBE7D1
:103D80000624C9E70724C7E70824C5E7003C01402B
:103D900000000240003802400369194214BF0120AC
:103DA000002070470AB1816170470904FBE743694D
:103DB00001EA030221EA030141EA024181617047FD
:103DC00001684B6913F480634FF0000210D06FF468
:103DD00080634B612023026380F83D3080F83E20F1
:103DE000036C80F83C2043F0040303640120704717
:103DF000184670472DE9F84606460F4691461D467F
:103E00004FEA114A3368BAF1010F0CBF5C699C6933
:103E100027EA0404A4B2B4FA84F46409A14501D0E9
:103E2000002025E06A1CEED0FFF75CFD089BC01A5D
:103E3000A84201D8002DE5D13368BAF1010F0CBFBB
:103E40005B699B6927EA03039BB2B3FA83F35B09BF
:103E50009945D7D100232022336386F83D2086F888
:103E60003E30326C86F83C3042F020023264012051
:103E7000BDE8F8862DE9F04104460F4616469846FF
:103E80002568686927EA000080B2C0B16B695A05ED
:103E900017D52B6843F400732B606FF480636B615C
:103EA00020220023236384F83D2084F83E30236CD5
:103EB00043F004032364002384F83C300120BDE870
:103EC000F081731CDDD0FFF70DFDA0EB0800B042C0
:103ED00001D8002ED4D123685A6927EA020292B28F
:103EE000002ACDD000232022236384F83D2084F8CB
:103EF0003E30236C1343DDE770B504460D4616468D
:103F000023685B691B0601D500201EE02046FFF7F1
:103F100057FFC8B96A1CF3D0FFF7E4FC801BA84226
:103F200001D8002DECD123685B6913F08003E7D141
:103F30002022236384F83D2084F83E30226C84F8EC
:103F40003C3042F020022264012070BD2DE9F04394
:103F50001546026885B0DDE90C789946136843F48C
:103F6000807313600E463B46CDF8008000224FF070
:103F700001110446FFF73EFF236838B11B68DB05DB
:103F800002D54FF400732364032620E006F0FE06FA
:103F90001E611A4943463A462046FFF76BFFA8B90F
:103FA000236803905A6903929B69039342463946FA
:103FB0002046039BFFF7A0FF064660B1236C042B4D
:103FC00001BF2268136843F4007313600126304672
:103FD00005B0BDE8F083B9F1010F236802D1EDB25D
:103FE0001D61F4E72A0A1A61394642462046FFF766
:103FF00083FF0028E2D12368F1E700BF020001003F
:104000002DE9FF479A46036815461A6842F4806214
:104010001A601A68DDE90C7842F480721A600E4664
:104020003B46CDF8008000224FF001110446FFF717
:10403000E1FE236838B11B68DB0544BF4FF4007311
:104040002364032021E05FFA86F906F0FE061E6174
:104050002B4943463A462046FFF70CFFA0B9236898
:1040600003905A6903929B6903934246394620465E
:10407000039BFFF741FF58B1236C042B01BF22685B
:10408000136843F400731360012004B0BDE8F087A7
:10409000BAF1010F23681AD1EDB242461D613946CB
:1040A0002046FFF729FF02460028E5D121680B686A
:1040B00043F480730B602046CDF800803B464FF000
:1040C0000111FFF797FE226860B11368B4E72A0A6E
:1040D0001A61394642462046FFF70EFF0028CBD131
:1040E0002368D9E749F001031361054943463A467D
:1040F0002046FFF7BFFE003818BF0120C5E700BF0C
:104100000200010070B504460D46164623685B693F
:104110005B0701D500201EE02046FFF751FEC8B91D
:104120006A1CF3D0FFF7DEFB801BA84201D8002DEC
:10413000ECD123685B6913F00403E7D120222363E9
:1041400084F83D2084F83E30226C84F83C3042F004
:1041500020022264012070BD70B504460D4616464B
:1041600021684B6913F0400301D0002011E04A6937
:10417000D2060FD56FF010024A612022236384F823
:104180003D2084F83E30236C2364002384F83C30C7
:10419000012070BDFFF7A6FB801BA84201D8002DAF
:1041A000DED123685B6913F04003D9D12022236359
:1041B00084F83D2084F83E30236C1343E4E700008C
:1041C00070B5044608B9012070BD90F83D3003F089
:1041D000FF021BB980F83C20FEF718F8242384F86E
:1041E0003D3023681A6822F001021A601A6842F40E
:1041F00000421A601A6822F400421A6001F09EFB25
:104200003F4B65689D4294BF3E4B3F4B98428CBFED
:1042100000230123002BD6D12268394E51683B4B35
:10422000B0FBF3F321F03F011943B542516088BF61
:104230004FF49676116A88BF734321F03F0184BF23
:104240004FF47A76B3FBF6F301330B431362D16973
:10425000431E2B4821F44F41854221F0FF0132D803
:104260006D0040F6FC70B3FBF5F30133034242D01E
:10427000C3F30B031943D161D4E907301168034339
:1042800021F0C0010B4313609168D4E9030321F4CA
:104290000341034321F0FF010B439360D4E9053050
:1042A000D168034321F0FF010B43D360136843F04F
:1042B0000103136000202023206484F83D30206334
:1042C00084F83E0080E7A06850B905EB4505B3FBD4
:1042D000F5F30133C3F30B037BB143F40043C9E7A8
:1042E00019206843B3FBF0F30133C3F30B0323B18D
:1042F00043F44043BEE70423BCE70123BAE700BF11
:10430000A08601007F841E00FF083D0040420F0090
:104310002DE9F743044699460C9E0F469046FFF759
:10432000E1FA94F83D30202B054603D0022003B07B
:10433000BDE8F08300903C49192301222046FFF795
:1043400059FD0028F2D194F83C30012BEED02068C2
:10435000012384F83C300368D9075EBF036843F04B
:1043600001030360036823F400630360212384F8DE
:104370003D30402384F83E30002323640A9B63626F
:10438000BDF82C306385638D2385284BE36242465C
:10439000CDE900654B4639462046FFF7D7FD00289A
:1043A0002AD00120C3E7FFF7A7FD40B1236C042BFF
:1043B00001BF2268136843F400731360F1E7636A76
:1043C00027681A4612F8011B39616262628D218DDD
:1043D000013A92B262857A69481E80B252072085FE
:1043E0000AD548B15A783A6102336362638D013B62
:1043F00002399BB221856385238D2A4631462046AA
:10440000002BD0D1FFF77EFE0028CFD122681368A1
:1044100043F400731360202384F83D3084F83C009B
:1044200084F83E0083E700BF020010000000FFFF99
:104430002DE9F043044687B09946109F0D469046FB
:10444000FFF750FA94F83D30202B064604D00225A1
:10445000284607B0BDE8F08300907A49192301226D
:104460002046FFF7C7FC0028F1D194F83C30012B1F
:10447000EDD02068012384F83C300368DB075EBF81
:10448000036843F001030360036823F400630360DF
:10449000222384F83D30402384F83E3000232364F7
:1044A0000E9B6362BDF83C306385638D2385664B4C
:1044B000E3622946CDE900764B4642462046FFF7A7
:1044C0009FFD054608B10125C2E7228D2368B2B9D8
:1044D00002905A6902929A690292029A1A6842F408
:1044E00000721A60DFF86481238D002B2CD120220A
:1044F00084F83D2084F83C3084F83E30A8E7012A57
:104500000AD11A6822F480621A6003905A690392F1
:104510009A690392039AE1E7022A0ED11A6822F4FB
:1045200080621A601A6842F400621A6004905A6944
:1045300004929B690493049BD4E705905A69059201
:104540009B690593059BCDE7032B56D8012B15D10D
:10455000324639462046FFF7FFFD0028B3D12368D5
:104560001A69636A1A70636A01336362238D013BBF
:104570002385638D013B9BB26385B5E7022B0096D3
:104580003B464FF000024146204619D1FFF732FC6E
:10459000002898D123681A6842F400721A601A69D8
:1045A000636A1A70626A531C6362238D013B238520
:1045B000638D013B9BB2638523681B695370D2E70F
:1045C000FFF718FC024600287FF47DAF23681968C6
:1045D00021F4806119601969636A1970636A013393
:1045E0006362238D013B2385638D013B9BB2638511
:1045F000414600963B462046C8E7324639462046AB
:10460000FFF7AAFD00287FF45EAF23681A69636A8A
:104610001A70628D616A013A92B24B1C62852268FF
:104620006362238D5069013B9BB2400723857FF570
:104630005BAF032B02BF136823F48063136013691D
:104640004B7090E7020010000000FFFF0400010023
:1046500010B590F83D30202BDCB216D1242380F821
:104660003D3003681A6822F001021A605A6A22F08B
:1046700010025A625A6A114359621A6842F00102E2
:104680001A6080F83D40002010BD0220FCE730B5E4
:1046900090F83D30202BDCB216D10268242380F83C
:1046A0003D30136823F001031360556A4FF6F07331
:1046B0002B400B439BB25362136843F0010313601A
:1046C00080F83D40002030BD0220FCE70068D1F8B2
:1046D00000C0D201843283182DE9F043C6685D68BA
:1046E0004C68D1F8189005F470455D60C5680CF110
:1046F0000107C5F30B45C6F30B4626443D4445EA86
:1047000006455D60C668CD68C6F30A062E449D68FE
:1047100005F470459D60C7688D68C7F30A070135C9
:104720003D4445EA06459D601D690E6925F0070573
:104730001D614FF0000E1E6191F832709D6991F875
:104740003180C3F818E091F8305045EA096545EA30
:10475000082545EA07459D615D6925F0FF055D6116
:104760004D695D61DD6925F4E06525F00705DD61D2
:10477000D1E907573D43DD619D6A4D6AC3F828E0E2
:10478000072E9D629CBF0E4DAE5DDD6A05F0E025F3
:10479000DD6288BF01268D6AC96AA4EB0C047443EC
:1047A0007543033444EA0544DC621C6B6FF30A046E
:1047B0001C631963835843F001038350BDE8F08301
:1047C000F447020838B50446002863D090F8A130B9
:1047D00003F0FF021BB980F8A020FDF773FD022350
:1047E00084F8A13023689A6922F070429A61D4E972
:1047F00001200243E06899690243206902430A43A9
:104800009A619A68244960690A409A609A6842EA03
:104810000042A06902439A60DA68E0690A40DA60FF
:10482000DA6842EA0042206A0243DA601A69606A82
:104830000A401A611A6942EA0042A06A02431A61F8
:104840005A690A405A615A69E16A42EA0142216B97
:104850000A435A61DA6A94F8350094F8361002F087
:104860007F42DA62DD6A94F834202A4342EA002269
:1048700042EA0142DA625A6B42F006025A639A69CE
:1048800042F001029A6100200123C4F8A40084F8D8
:10489000A13038BD0120FCE700F800F070477047F8
:1048A000036870B59E6B5D6B7207044614D569078B
:1048B00012D55A6B22F004025A630422DA63D0F84C
:1048C000A43043F00103C0F8A430002380F8A120F5
:1048D00080F8A030FFF7E2FFB20716D5AB0714D57A
:1048E00023685A6B22F002025A630222DA63D4F878
:1048F000A4301343C4F8A430042384F8A130002367
:1049000084F8A0302046FFF7C9FFF00710D5E9076B
:104910000ED523685A6B22F001025A630122DA6332
:10492000002384F8A12084F8A0302046FCF77CFE08
:10493000320711D52B070FD523685A6B22F00802D6
:104940005A630822DA63012384F8A130002384F833
:10495000A0302046FFF7A3FF70BD2DE9F04190F88D
:10496000A030012B06460F4694464FF002001FD0A0
:104970004FF0010886F8A08086F8A10034240D4687
:1049800004FB02640FCD38340FC40FCD0FC40FCD1C
:104990000FC42B682360304662463946FFF796FE07
:1049A00033680020C3F8248086F8A18086F8A00030
:1049B000BDE8F08190F8A020012A03464FF00200E4
:1049C00012D01A6883F8A100506B20F001005063E8
:1049D00006480164516B41F001015163002001223E
:1049E00083F8A12083F8A000704700BF0068014051
:1049F000F7B5044610B390F89534056803F0FF024C
:104A00001BB980F89424FCF7E1FE0323B5F1A04F15
:104A100084F8953404BF0023A371206801F080FF5F
:104A2000237C8DF80030251D95E80E00206801F0EC
:104A3000BCFE014630B1022384F895340125284696
:104A400003B0F0BD206801F071FF0028F3D1267992
:104A500004F1140301270246C1B28E4203F124037C
:104A60001BD8002104F515730A46C8B2864203F12B
:104A7000240320D8237C8DF8003095E80E002068B0
:104A800001F0D0FF05460028D5D1012360742068CD
:104A900084F8953402F00AFBD1E723F80A0C43E9C5
:104AA000072203F8237C03F8241C03F8202C43F886
:104AB000142C0130D0E743E9072203F8232C03F834
:104AC000240C03F8202C43F8142C0131CDE710B549
:104AD0000446006894F89434012B15D0012384F81F
:104AE0009434C3685B0606D5637B012B02BF836BDE
:104AF00043F48033836301F00DFF206802F0C8FAAD
:104B0000002084F8940410BD0220FCE710B590F852
:104B10009424012A04460AD0012280F89424417486
:104B2000006802F0A5FA002084F8940410BD022069
:104B3000FCE770B501F00F0606EBC60411F0800F1C
:104B400005464FEA84044FF0240020D000FB0650B5
:104B500004F11401012429444475C2F30A028A6055
:104B60004A780E700B7102B14E83022B04BF0023F2
:104B70004B7195F89434012B12D00123286885F8E5
:104B8000943402F014F8002085F8940470BD00FB02
:104B9000065004F515710024294480F85542DCE7DD
:104BA0000220F3E710B5044601F00F0000EBC0034C
:104BB00011F0800F4FEA83034FF0240215D002FB5F
:104BC000004203F11401012321445375087094F845
:104BD0009434012B12D00123206884F8943402F01D
:104BE00025F8002084F8940410BD02FB004203F570
:104BF00015710023214482F85532E7E70220F3E7DC
:104C000070B501F00F05242404FB050104FB050425
:104C1000C4E998230023C4F8683284F8553284F834
:104C20005452164682790068012A01F5157108BFB1
:104C3000C4F8706202F0A6F8002070BD70B501F0F3
:104C40000F05242404FB050104FB0504C4E9082323
:104C50000023A362012363752575164682790068D7
:104C60009A4201F1140108BF266302F08BF800207C
:104C700070BD38B5037901F00F05AB4204462BD364
:104C800011F0800F4FF024001DD000FB054100FB08
:104C9000054001231431437501238B700D7094F886
:104CA00094249A421AD0206884F8943402F08CF943
:104CB0002DB9A179206804F29C4202F045FA002047
:104CC00084F8940438BD00FB01431A4603F51571BE
:104CD000002382F85532DFE70120F3E70220F1E7F5
:104CE00038B5037901F00F029342044629D302EB51
:104CF000C20311F0800F4FEA83034FF0240017D056
:104D000000FB024003F114010123214443750025F7
:104D10008D700A7094F89434012B14D0012320680C
:104D200084F8943402F07BF984F89454284638BD12
:104D300000FB024003F515710023214480F8553231
:104D4000E5E70120F3E70220F1E701F00F0303EBB1
:104D5000C3030A064FEA83034CBF03F1140103F5B2
:104D600015710144006801F0B7BF00002DE9F04F54
:104D7000066889B00446304602F0D4F90390002852
:104D800040F05881206802F09FF9002800F052811D
:104D9000D6F808382068C3F30D23C4F8D43402F0E1
:104DA00093F9870748BF2268206842BF536903F020
:104DB0000203536102F088F9C00606F500652DD59F
:104DC0002268936923F010039361D6F8208008F4D9
:104DD000F013B3F5802F08F00F0740F02E8147F64F
:104DE000F07318EA030F14D0242303FB0747C8F31A
:104DF0000A19D7F860124A46304602F0C5F8D7F8CB
:104E000060324B44C7F86032D7F868324B44C7F879
:104E100068322268936943F010039361206802F0BE
:104E200053F9010300F11C81206802F04DF942039F
:104E30000DD5206802F054F92746049006F5106B52
:104E40004FF0000A049B2068002B40F0D3812068BB
:104E500002F03AF9002813DA6B6823F001036B6063
:104E600094F8CC34012B40F06B82002184F8CC14F0
:104E7000204600F0E6FA2268536903F000435361CC
:104E8000206802F021F901050AD5AB68DA0702D5DE
:104E90002046FCF711FD2268536903F40063536157
:104EA000206802F011F9C30433D56B68206823F041
:104EB00001036B60102101F069FD207906F5106394
:104EC0004FF67F31039A904200F23E82EB6943F045
:104ED0000113EB61E37B002B00F05282D5F88430A4
:104EE00043F00B03C5F884306B6C43F00B036B6429
:104EF000D6F80038206823F4FE63C6F8003804F2C0
:104F00009C42A17902F020F92268536903F480538E
:104F10005361206802F0D8F8870416D5206802F0A3
:104F200005F9206801F038FEE071276800F000FD07
:104F3000E2790146384601F07DFC2046FCF7A9FCE9
:104F40002268536903F400535361206802F0BCF8EF
:104F5000000707D52046FCF798FC2268536903F048
:104F600008035361206802F0AFF8010600F11382D4
:104F7000206802F0A9F8C2020CD5A04606F5126915
:104F800001272379BB4200F21F822268536903F490
:104F900080135361206802F097F883022DD594F8AE
:104FA00004E0234606F5326001218E4520D993F8AE
:104FB0007CC20268BCF1010F40F01C82002A80F222
:104FC0001982D4F8D47402F4803207F00107BA428F
:104FD00040F0108283F87BC2B26942F08002B26175
:104FE0007269170600F106826B6843F400736B6008
:104FF0002268536903F400135361206802F064F8D7
:10500000410007D52046FCF77BFC2268536903F07A
:1050100080435361206802F057F842070AD523689D
:105020005D686B0702D52046FCF76EFC226853686A
:105030002B43536009B0BDE8F08FB3F5402F7FF4E8
:10504000E8AE082204F29C41304601F09DFF242383
:1050500003FB0747C8F30A18D7F868324344D6E67B
:10506000206802F035F806F530680490A246002763
:10507000049B2068002B3FF4D7AE049BDB0778D558
:105080005FFA87FB594602F033F810F0010F8146B2
:105090001FD020680123C8F8083094F806C0016CBE
:1050A00000F5306303EB4713BCF1010F9A6840F041
:1050B0008B8012F0080F07D0AF48814209D9120443
:1050C00007D54FF4004203E012F0200F5AD02022FF
:1050D0009A6019F0080F21D00823C8F80830236817
:1050E000A5491A6C03F5306303EB47138A429868AD
:1050F00004D9010444BF4FF4004098602046059253
:10510000FCF7ACFB059A9C498A4207D9A179012991
:1051100004D1206804F29C4202F016F819F0100F36
:105120001CBF1023C8F8083019F0020F14D073699F
:105130001A0642BF6B6843F480636B609AF857327B
:10514000012B06D100238AF8573259462046FCF736
:10515000CFFB0223C8F8083019F0200F1CBF202312
:10516000C8F8083019F4005F1CBF4FF40053C8F8AA
:105170000830049B5B080137049308F120080AF10A
:10518000240A75E7DFF8F0C1614501D9120498D40B
:105190001A69DAF87432C2F312029B1ACAF868323A
:1051A0006FB9D4F864222AB904F29C42012101F0BB
:1051B000CBFF04E0D4F860221A44C4F860225946B8
:1051C0002046FCF751FB84E7DFF8B0C1614507D109
:1051D00011043FF576AF9006F1D520229A60EEE7F4
:1051E000002FECD1D4F86432002BE8D104F29C42B9
:1051F0003946DCE7049BDB0740F199805FFA8AF3CC
:105200001946059301F07DFF10F0010F80461FD075
:105210006B6B01210AF00F0201FA02F223EA02038A
:105220006B63CBF80810A17901290DD1D7E90723C9
:1052300013443B62BAF1000F06D1636A23B92068B8
:1052400004F29C4201F080FF05992046FCF715FB13
:1052500018F0080F1CBF0823CBF8083018F0100F07
:105260001CBF1023CBF8083018F0400F1CBF4023A0
:10527000CBF8083018F0020F0FD05146304601F03D
:1052800085FBFB7D012B05D100230599FB7520468D
:10529000FCF732FB0223CBF808302368069318F0A2
:1052A000800F44D0D7E909329A4240D8A3EB0208D4
:1052B000FB69984528BF9846069B03F5106308F1E3
:1052C000030803EB4A134FEA98080793079B996971
:1052D00089B24145D7E9093227D393420BD8069BBF
:1052E0000AF00F00D3F834280121814022EA01029C
:1052F000C3F834281BE0A3EB0209FB69059A069862
:10530000994528BF9946A3790093396A1FFA89F312
:1053100001F024FD3B6A4B443B62BB6A09F1030880
:105320004B444FEA9808BB62D0E79342D7D9049B1D
:105330005B080AF1010A049324370BF1200B81E585
:105340002046FCF7D1FA96E599601A6822F400121B
:105350001A60C3F80812D3F8002222F40012C3F82E
:105360000022D3F8002242F00062C3F80022039A20
:10537000013203922033A5E50A30544F0A31544FCD
:105380006B6943F4005343F02B036B612B6943F0CB
:105390000B032B61ACE5B36923F08003B3610127F4
:1053A00004F257284FF024092379BB427FF6E0AD81
:1053B00009FB07F318F80330012B03D1F9B220469B
:1053C000FFF7C3FC0137EFE798F83C30D9F800202D
:1053D000012B09D1002A07DA67F07F0188F83B30FA
:1053E000C9B22046FFF7B1FC013708F1240809F1E2
:1053F0002009C6E5013124332030D6E5006870B5B8
:10540000436A120419B913438362002070BD846A91
:105410004E1E03EB14430024B44205D33F3100EB8E
:10542000810013434360F0E704F1400500EB85057C
:1054300001346D6803EB1543EEE703680020596201
:10544000704770472DE9F341044640B30368DE0717
:1054500010D423689D075BD42368190700F19D8051
:1054600023685A0700F1BD80A369002B40F0248116
:1054700000202CE08D4B9A6802F00C02042A07D021
:105480009A6802F00C02082A0BD15B68590208D511
:10549000864B1B689A03DCD56368002BD9D10120A9
:1054A00015E06368814DB3F5803F13D12B6843F459
:1054B00080332B60FEF716FA7C4E054633689B035B
:1054C000C7D4FEF70FFA401B6428F7D9032002B0B7
:1054D000BDE8F081B3F5A02F04D12B6843F48023FD
:1054E0002B60E3E72A6822F480322A602A6822F4DB
:1054F00080222A60002BDDD1FEF7F4F906462B68E6
:105500009F03A6D5FEF7EEF9801B6428F7D9DDE7E7
:10551000664B9A6812F00C0F07D09A6802F00C02E2
:10552000082A11D15B685D020ED4604A136899079E
:1055300002D5E368012BB2D11368216923F0F80387
:1055400043EAC103136087E7E268594BB2B1012215
:105550001A60FEF7C7F9554D06462B689B0707D51D
:105560002B68226923F0F80343EAC2032B6073E738
:10557000FEF7B8F9801B0228EFD9A7E71A60FEF7FB
:10558000B1F94A4E054633689F077FF565AFFEF7D0
:10559000A9F9401B0228F6D998E76269444B82B109
:1055A0000122C3F8802EFEF79DF9404E0546736F29
:1055B0009B073FF555AFFEF795F9401B0228F6D93A
:1055C00084E7C3F8802EFEF78DF9384E0546736FD9
:1055D0009F077FF545AFFEF785F9401B0228F6D9F6
:1055E00074E7324B1A6C12F0805228D101921A6C77
:1055F00042F080521A641B6C03F080530193019BAC
:1056000001272C4D2B68D8051BD5A368274D012BEE
:1056100027D12B6F43F001032B67FEF763F9234E6D
:10562000054641F28838336F9A0739D5002F3FF489
:105630001BAF1E4A136C23F08053136414E700273A
:10564000DFE72B6843F480732B60FEF74BF90646C7
:105650002B68D905D9D4FEF745F9801B0228F7D964
:1056600034E7052B04D12B6F43F004032B67D0E7FD
:105670002A6F22F001022A672A6F22F004022A67A9
:10568000002BCAD1FEF72EF941F2883806462B6F5F
:105690009B07CBD5FEF726F9801B4045F7D915E7C8
:1056A000FEF720F9401B4045BDD90FE70038024006
:1056B0000000474200700040374DAA6802F00C021B
:1056C000082A3ED0022B354B4FF000021A662BD130
:1056D000FEF708F906462B6899011FD4D4E9073272
:1056E0001343626A43EA8213E26A43EA0263A26AEC
:1056F0005208013A43EA02436B60284B264D0122CF
:105700001A66FEF7EFF804462B689A013FF5B0AE33
:10571000FEF7E8F8001B0228F6D9D7E6FEF7E2F814
:10572000801B0228D7D9D1E6FEF7DCF804462B68A7
:105730009B017FF59DAEFEF7D5F8001B0228F6D938
:10574000C4E6012B3FF4ABAE6B68E26903F4800161
:1057500091427FF4A4AE216A03F03F028A427FF4B3
:105760009EAE616A47F6C0721A40B2EB811F7FF4A9
:1057700096AEA26A520803F44031013AB1EB024FEF
:105780007FF48DAEE26A03F07063B3EB026F14BF77
:10579000012000209BE600BF003802400000474285
:1057A000134908B58B6803F00C03042B1CD0082B9D
:1057B0001CD14A684B68496813F4800314BF0D4834
:1057C0000D48C1F3881118BF002302F03F02A1FB6E
:1057D0000001FAF7B5FD064B5B68C3F301430133E3
:1057E0005B00B0FBF3F008BD0248FCE70248FAE7B3
:1057F0000038024000127A000024F4002DE9F04144
:105800000D46044610B90120BDE8F081434B1A68EB
:1058100002F00F028A4228D321688F072DD4C807CF
:1058200040D43E4B1A6802F00F02AA4265D82268A3
:1058300051076BD4130707D5394A2169936823F4BC
:10584000604343EAC1039360FFF7AAFF344B354A34
:105850009B68C3F30313D35CD840334B1860334BBE
:105860001868FCF7ADFE0020CEE7CAB21A701B68BC
:1058700003F00F038B42C6D1CEE7294B11F0040F82
:105880001EBF9A6842F4E0529A600E0742BF9A68BF
:1058900042F460429A609A68A06822F0F0020243E3
:1058A0009A60BCE762681E4B012A1CD11B6813F486
:1058B000003FA8D01A4EB36823F003031343B3602C
:1058C000FEF710F841F288380746B368626803F0C3
:1058D0000C03B3EB820FA4D0FEF704F8C01B4045C5
:1058E000F3D9032090E7911E01291B6802D813F019
:1058F000007FDEE713F0020FDBE7EAB21A701B68E5
:1059000003F00F03AB427FF47EAF90E70449E068F9
:105910008B6823F4E05303438B608BE7003C024029
:1059200000380240E4470208C4000020CC000020F8
:10593000014B1868704700BFC4000020044B054AA3
:105940009B68C3F38223D35C034A1068D840704736
:1059500000380240DC470208C40000200F23036027
:105960000B4B9A6802F0030242609A6802F0F00260
:1059700082609A6802F4E052C2609B68DB0803F41C
:10598000E0530361034B1B6803F00F030B60704788
:1059900000380240003C0240036813F0430FF7B5A3
:1059A000044640F08880236813F00C0F45D08C4BE0
:1059B0008C4D00221A67FDF795FF06462B6899006B
:1059C00000F1CB8021684A0715D5D4E90403D5F846
:1059D00088201B0602F0E04243EA80131343C5F817
:1059E0008830D5F88C30226A23F4F853013A43EA20
:1059F0000223C5F88C300B0714D57A4AA369D2F874
:105A0000881020691B0701F0706143EA80130B4383
:105A1000C2F88830D2F88C30616A23F440330B43EB
:105A2000C2F88C306E4B6F4E01221A67FDF75AFF99
:105A3000054633689F0040F197802368980634D567
:105A400000230193674B684D1A6C42F080521A6430
:105A50001B6C03F080530193019B2B6843F480730C
:105A60002B60FDF73FFF06462B68D80540F1838089
:105A70005C4DA26A2B6F13F4407340F08380A36ADD
:105A800003F44072B2F5407F564A40F09E80916820
:105A900023F0704021F4F81120F44070014391602C
:105AA000116FC3F30B030B4313672368DB0600F18D
:105AB000908000204FE04A4B4A4E00229A66FDF744
:105AC00011FF054633681F013FD42168C80741BF55
:105AD000D4E901231B0743EA8213C6F884308A07FE
