:020000040800F2
:1000000000000320E50F00082D3000082F30000805
:10001000313000083330000835300008000000009F
:10002000000000000000000000000000D186000871
:10003000373000080000000061870008DD7F0008FD
:10004000351000083510000835100008351000087C
:10005000351000083510000835100008351000086C
:10006000351000083510000835100008351000085C
:10007000351000083510000835100008351000084C
:10008000351000083510000835100008351000083C
:10009000351000083510000835100008351000082C
:1000A000351000083510000835100008351000081C
:1000B000351000083510000835100008351000080C
:1000C00035100008351000083510000835100008FC
:1000D00035100008351000083510000835100008EC
:1000E00035100008351000083510000835100008DC
:1000F00035100008351000083510000835100008CC
:1001000035100008351000083510000835100008BB
:100110003510000835100008393000083510000887
:10012000351000083510000835100008351000089B
:10013000351000083510000835100008351000088B
:10014000351000083510000835100008351000087B
:10015000351000083510000835100008351000086B
:10016000351000083510000835100008351000085B
:100170003510000845300008351000080000000068
:10018000351000083510000835100008351000083B
:10019000351000083510000835100008351000082B
:0C01A00051300008351000085D300008E8
:1001B00010B5054C237833B9044B13B10448AFF3A1
:1001C00000800123237010BD800400200000000087
:1001D000E03D020808B5034B1BB103490348AFF3E8
:1001E000008008BD0000000084040020E03D0208FB
:1001F000034613F8012B002AFBD1181A0138704767
:1002000001F0FF01102A2BDB10F0070F08D010F8C7
:10021000013B013A8B422DD010F0070F42B3F6D1CB
:10022000F0B441EA012141EA014122F007047FF0E4
:1002300000070023F0E80256083C85EA010586EA3B
:10024000010685FA47F5A3FA87F586FA47F6A5FA77
:1002500087F68EB9EED1F0BC01F0FF0102F0070283
:1002600032B110F8013B013A83EA010313B1F8D12E
:100270000020704701387047002D06BF354603380F
:10028000073815F0010F07D1013015F4807F02BF48
:10029000013015F4C03F0130F0BC0138704700BF99
:1002A00081F0004102E000BF83F0004330B54FEA27
:1002B00041044FEA430594EA050F08BF90EA020F94
:1002C0001FBF54EA000C55EA020C7FEA645C7FEA27
:1002D000655C00F0E2804FEA5454D4EB5555B8BF4A
:1002E0006D420CDD2C4480EA020281EA030382EABB
:1002F000000083EA010180EA020281EA0303362D4D
:1003000088BF30BD11F0004F4FEA01314FF4801C1F
:100310004CEA113102D0404261EB410113F0004F31
:100320004FEA03334CEA133302D0524263EB4303E8
:1003300094EA050F00F0A780A4F10104D5F1200E86
:100340000DDB02FA0EFC22FA05F2801841F10001E1
:1003500003FA0EF2801843FA05F359410EE0A5F1B5
:1003600020050EF1200E012A03FA0EFC28BF4CF0E6
:10037000020C43FA05F3C01851EBE37101F000459C
:1003800007D54FF0000EDCF1000C7EEB00006EEBA9
:100390000101B1F5801F1BD3B1F5001F0CD3490833
:1003A0005FEA30004FEA3C0C04F101044FEA44528A
:1003B00012F5800F80F09A80BCF1004F08BF5FEA11
:1003C000500C50F1000041EB045141EA050130BDF1
:1003D0005FEA4C0C404141EB0101013C28BFB1F503
:1003E000801FE9D291F0000F04BF01460020B1FA4E
:1003F00081F308BF2033A3F10B03B3F120020CDA21
:100400000C3208DD02F1140CC2F10C0201FA0CF0FE
:1004100021FA02F10CE002F11402D8BFC2F1200C63
:1004200001FA02F120FA0CFCDCBF41EA0C01904019
:10043000E41AA2BF01EB0451294330BD6FEA040462
:100440001F3C1CDA0C340EDC04F11404C4F120024D
:1004500020FA04F001FA02F340EA030021FA04F35F
:1004600045EA030130BDC4F10C04C4F1200220FAB6
:1004700002F001FA04F340EA0300294630BD21FAF4
:1004800004F0294630BD94F0000F83F4801306BFBA
:1004900081F480110134013D4EE77FEA645C18BFAE
:1004A0007FEA655C29D094EA050F08BF90EA020F45
:1004B00005D054EA000C04BF1946104630BD91EA3D
:1004C000030F1EBF0021002030BD5FEA545C05D140
:1004D0004000494128BF41F0004130BD14F580047F
:1004E0003CBF01F5801130BD01F0004545F0FE41F3
:1004F00041F470014FF0000030BD7FEA645C1ABF28
:10050000194610467FEA655C1CBF0B46024650EA5E
:10051000013406BF52EA033591EA030F41F400218A
:1005200030BD00BF90F0000F04BF0021704730B510
:100530004FF4806404F132044FF000054FF00001E5
:1005400050E700BF90F0000F04BF0021704730B5A6
:100550004FF4806404F1320410F0004548BF40427B
:100560004FF000013EE700BF42004FEAE2014FEAD0
:1005700031014FEA02701FBF12F07F4393F07F4FAB
:1005800081F06051704732F07F4208BF704793F0AE
:100590007F4F04BF41F40021704730B54FF46074C1
:1005A00001F0004521F000411CE700BF50EA0102C4
:1005B00008BF704730B54FF000050AE050EA01026D
:1005C00008BF704730B511F0004502D5404261EBDD
:1005D00041014FF4806404F132045FEA915C3FF41E
:1005E000D8AE4FF003025FEADC0C18BF03325FEABB
:1005F000DC0C18BF033202EBDC02C2F1200300FA6C
:1006000003FC20FA02F001FA03FE40EA0E0021FA90
:1006100002F11444BDE600BF70B54FF0FF0C4CF47E
:10062000E06C1CEA11541DBF1CEA135594EA0C0F30
:1006300095EA0C0F00F0DEF82C4481EA030621EA6B
:100640004C5123EA4C5350EA013518BF52EA0335A6
:1006500041F4801143F4801338D0A0FB02CE4FF058
:100660000005E1FB02E506F00042E0FB03E54FF088
:100670000006E1FB03569CF0000F18BF4EF0010E80
:10068000A4F1FF04B6F5007F64F5407404D25FEA7C
:100690004E0E6D4146EB060642EAC62141EA55512F
:1006A0004FEAC52040EA5E504FEACE2EB4F1FD0C71
:1006B00088BFBCF5E06F1ED8BEF1004F08BF5FEAEF
:1006C000500E50F1000041EB045170BD06F00046A1
:1006D00046EA010140EA020081EA0301B4EB5C044E
:1006E000C2BFD4EB0C0541EA045170BD41F4801146
:1006F0004FF0000E013C00F3AB8014F1360FDEBF6B
:10070000002001F0004170BDC4F10004203C35DA46
:100710000C341BDC04F11404C4F1200500FA05F3C9
:1007200020FA04F001FA05F240EA020001F000426A
:1007300021F0004110EBD37021FA04F642EB0601E0
:100740005EEA430E08BF20EAD37070BDC4F10C040A
:10075000C4F1200500FA04F320FA05F001FA04F2CE
:1007600040EA020001F0004110EBD37041F10001BA
:100770005EEA430E08BF20EAD37070BDC4F12005C5
:1007800000FA05F24EEA020E20FA04F301FA05F22D
:1007900043EA020321FA04F001F0004121FA04F2D5
:1007A00020EA020000EBD3705EEA430E08BF20EAA5
:1007B000D37070BD94F0000F0FD101F000464000DF
:1007C00041EB010111F4801F08BF013CF7D041EA61
:1007D000060195F0000F18BF704703F00046520065
:1007E00043EB030313F4801F08BF013DF7D043EA36
:1007F0000603704794EA0C0F0CEA135518BF95EAEC
:100800000C0F0CD050EA410618BF52EA4306D1D172
:1008100081EA030101F000414FF0000070BD50EA91
:10082000410606BF1046194652EA430619D094EA1B
:100830000C0F02D150EA013613D195EA0C0F05D105
:1008400052EA03361CBF104619460AD181EA030159
:1008500001F0004141F0FE4141F470014FF0000011
:1008600070BD41F0FE4141F4780170BD70B54FF0AC
:10087000FF0C4CF4E06C1CEA11541DBF1CEA13552C
:1008800094EA0C0F95EA0C0F00F0A7F8A4EB05040E
:1008900081EA030E52EA03354FEA013100F0888005
:1008A0004FEA03334FF0805545EA131343EA1263CE
:1008B0004FEA022245EA111545EA10654FEA002683
:1008C0000EF000419D4208BF964244F1FD0404F53C
:1008D000407402D25B084FEA3202B61A65EB030598
:1008E0005B084FEA32024FF480104FF4002CB6EB55
:1008F000020E75EB030E22BFB61A754640EA0C00D5
:100900005B084FEA3202B6EB020E75EB030E22BF14
:10091000B61A754640EA5C005B084FEA3202B6EB55
:10092000020E75EB030E22BFB61A754640EA9C0014
:100930005B084FEA3202B6EB020E75EB030E22BFE4
:10094000B61A754640EADC0055EA060E18D04FEAA2
:10095000051545EA16754FEA06164FEAC30343EA42
:1009600052734FEAC2025FEA1C1CC0D111F4801F0F
:100970000BD141EA00014FF000004FF0004CB6E708
:1009800011F4801F04BF01430020B4F1FD0C88BFA7
:10099000BCF5E06F3FF6AFAEB5EB030C04BFB6EBB2
:1009A000020C5FEA500C50F1000041EB045170BDA5
:1009B0000EF0004E4EEA113114EB5C04C2BFD4EBD2
:1009C0000C0541EA045170BD41F480114FF0000E56
:1009D000013C90E645EA060E8DE60CEA135594EAD2
:1009E0000C0F08BF95EA0C0F3FF43BAF94EA0C0FD5
:1009F0000AD150EA01347FF434AF95EA0C0F7FF44A
:100A000025AF104619462CE795EA0C0F06D152EA9D
:100A100003353FF4FDAE1046194622E750EA410681
:100A200018BF52EA43067FF4C5AE50EA41047FF492
:100A30000DAF52EA43057FF4EBAE12E74FF0FF3CF7
:100A400006E000BF4FF0010C02E000BF4FF0010CC8
:100A50004DF804CD4FEA410C7FEA6C5C4FEA430C41
:100A600018BF7FEA6C5C1BD001B050EA410C0CBF90
:100A700052EA430C91EA030F02BF90EA020F0020F2
:100A8000704710F1000F91EA030F58BF994208BF59
:100A900090422CBFD8176FEAE37040F00100704716
:100AA0004FEA410C7FEA6C5C02D150EA013C07D16D
:100AB0004FEA430C7FEA6C5CD6D152EA033CD3D0B8
:100AC0005DF8040B704700BF8446104662468C46B2
:100AD0001946634600E000BF01B5FFF7B7FF0028E5
:100AE00048BF10F1000F01BD4DF808EDFFF7F4FF0E
:100AF0000CBF012000205DF808FB00BF4DF808ED99
:100B0000FFF7EAFF34BF012000205DF808FB00BFBB
:100B10004DF808EDFFF7E0FF94BF012000205DF8DD
:100B200008FB00BF4DF808EDFFF7CEFF94BF012092
:100B300000205DF808FB00BF4DF808EDFFF7C4FF8B
:100B400034BF012000205DF808FB00BF4FEA410CD4
:100B50007FEA6C5C02D150EA013C0AD14FEA430CB7
:100B60007FEA6C5C02D152EA033C02D14FF00000F4
:100B700070474FF0010070474FEA4102B2F1E04385
:100B800024BFB3F5001CDCF1FE5C0DD901F0004C74
:100B90004FEAC0024CEA5070B2F1004F40EB8300C4
:100BA00008BF20F00100704711F0804F21D113F1F0
:100BB0003872BCBF01F00040704741F480114FEA29
:100BC0005252C2F11802C2F1200C10FA0CF320FAB2
:100BD00002F018BF40F001004FEAC1234FEAD323CF
:100BE00003FA0CFC40EA0C0023FA02F34FEA430339
:100BF000CCE77FEA625307D150EA01331EBF4FF0C2
:100C0000FE4040F44000704701F0004040F0FE40DC
:100C100040F40000704700BF7BB972B90029BEBF25
:100C200000204FF0004106E008BF00281CBF6FF015
:100C300000414FF0FF3000F0D3B9ADF1080C6DE981
:100C400004CE002909DB002B1ADB00F04DF8DDF89B
:100C500004E0DDE9022304B07047404261EB41014A
:100C6000002B1BDB00F040F8DDF804E0DDE9022397
:100C700004B0404261EB4101524263EB43037047D1
:100C8000524263EB430300F02FF8DDF804E0DDE9A6
:100C9000022304B0404261EB41017047524263EBD2
:100CA000430300F021F8DDF804E0DDE9022304B09D
:100CB000524263EB4303704753B94AB9002908BF56
:100CC00000281CBF4FF0FF314FF0FF3000F088B913
:100CD000ADF1080C6DE904CE00F006F8DDF804E093
:100CE000DDE9022304B070472DE9F047089D8E46E8
:100CF00004468846002B4AD18A42174662D9B2FA86
:100D000082F64EB1C6F1200301FA06F820FA03F389
:100D1000B74043EA0808B4404FEA174E1FFA87FC71
:100D2000B8FBFEF1230C0EFB118843EA084301FBDC
:100D30000CF29A4209D9FB1801F1FF3080F0EA80E9
:100D40009A4240F2E78002393B449A1AA3B2B2FBBE
:100D5000FEF00EFB102243EA024300FB0CFC9C4514
:100D600009D9FB1800F1FF3280F0D6809C4540F293
:100D7000D3803B44023840EA0140A3EB0C0300213E
:100D80001DB1F3400022C5E90032BDE8F0878B4277
:100D900005D90DB1C5E9000100210846F5E7B3FA10
:100DA00083F1002946D1734502D3824200F20581C6
:100DB000841A6EEB030201209046002DE5D0C5E9B0
:100DC0000048E2E7002A00F09080B2FA82F6002E96
:100DD00040F0A4808A1A030C4FEA174E80B2BCB2CE
:100DE0000121B2FBFEFC0EFB1C2243EA024304FB82
:100DF0000CF29A4207D9FB180CF1FF3802D29A4242
:100E000000F2E080C4469B1AB3FBFEF20EFB1233E5
:100E100040EA034302FB04F49C4207D9FB1802F1A9
:100E2000FF3002D29C4200F2CA8002461B1B42EAFB
:100E30000C40A5E7C1F120068B4022FA06F71F43BC
:100E40000EFA01F420FA06F32EFA06FE4FEA1749CD
:100E5000234300FA01F81FFA87FCBEFBF9F01C0CD3
:100E600009FB10EE44EA0E4400FB0CFEA64502FA14
:100E700001F209D93C1900F1FF3A80F09C80A645A7
:100E800040F2998002383C44A4EB0E041FFA83FE22
:100E9000B4FBF9F309FB13444EEA044403FB0CFCD6
:100EA000A44508D93C1903F1FF3E80F08280A44597
:100EB0007FD9023B3C4443EA0040A4EB0C04A0FB76
:100EC00002EC64457346E14662D35FD05DB1B8EB96
:100ED000030264EB090404FA06F622FA01F31E4346
:100EE000CC40C5E9006400214FE7B1FBF2FC010CE6
:100EF00041EA0E4180B240EA01423B4638463C4658
:100F0000B846BE462026B1FBF7F1A2EB080241EA43
:100F10000C4166E7014618E710462CE7C6F12002AF
:100F20002EFA02F3B740B14020FA02F24FEA174E10
:100F30000A43B3FBFEF8BCB20EFB1833110C41EAB6
:100F4000034108FB04F9B04089454FEA104380B2E1
:100F50003ED9791808F1FF3C01D289451FD8A1EB91
:100F60000901B1FBFEF909FB04F80EFB191192B25D
:100F700042EA0142424529D2BA1809F1FF31C4D2EE
:100F80004245C2D2A9F102013A44BEE7F0459DD2E2
:100F9000BEEB02036CEB070C0138E14696E7A7EBCA
:100FA00009094944A8F1020CB1FBFEF909FB04F858
:100FB000DBE773467FE7504666E70846FDE63B44BD
:100FC000023A33E7ACF1020C3B441CE749469CE78C
:100FD000A1EB0901C446B1FBFEF909FB04F8C4E723
:100FE000704700BFDFF834D0002103E00C4B5B58A2
:100FF000435004310B480C4B42189A42F6D30B4A2B
:1010000002E0002342F8043B094B9A42F9D303F073
:1010100059FB22F077F901F09FFA70470000032096
:10102000785C020800000020740200208004002088
:1010300014410120FEE7704708B500F0BBFDBDE894
:10104000084000F03FBD00F0B7BD704710B5042167
:10105000044620F068FE204610BD000038B50C4B59
:101060000C4C18800C4B822019806368984740F61E
:10107000110398420AD1094D23682C6082209847B9
:101080002B688220DB689847002038BD0120FCE7F0
:10109000A60400209C000020A4040020A804002036
:1010A0004FF4A071F020FFF7D9BF0000F7B5394D1C
:1010B0002B6804461B6982209847208000284ED068
:1010C0002B680DF106025B6901A982209847324B1B
:1010D0001B78002B4BD0BDF8062040F674639A4273
:1010E0003FD9ADF80630BDF806209B1A9BB20A2BFB
:1010F00042D90B22B3FBF2F3284A1288934201D95A
:10110000013A93B2BDF80420254840F6B8318A422E
:1011100034D8C2F571620E32016892B20F25B2FB6B
:10112000F5F2204D2D88AA4284BF05F1FF35AAB201
:101130008A4215468EB22AD9921B91B21A4E37684E
:10114000BB42BAB28CBF9A1AD21A92B21144052984
:10115000C4BF05603360036863803368A38003B055
:10116000F0BDB32A9CBFB422ADF80620BBE7BDF8A2
:101170000630A3F5B473B9E70023C3E7C2F56D6287
:10118000083292B20E2A0168C8D800252A46891A68
:1011900089B2D3E7A804002084230020A4040020FF
:1011A000A0040020A60400209C04002037B5684657
:1011B0000D461446FFF77AFFBDF8000030B1BDF8C8
:1011C00002302B60BDF804302360012003B030BD35
:1011D000032821D8DFE800F0020B12190F4B1A6820
:1011E000B2FA82F2520904210D4803F0FFBC0B4B06
:1011F0005A68B2FA82F252090821F5E7074B9A6859
:10120000B2FA82F252091021EEE7044BDA68B2FA20
:1012100082F252092021E7E7704700BFAC040020AA
:1012200000100240032821D8DFE800F0020B121959
:101230000F4B1A68003A18BF012204210D4803F031
:10124000D5BC0B4B5A68003A18BF01220821F5E7BC
:10125000074B9A68003A18BF01221021EEE7044BB1
:10126000DA68003A18BF01222021E7E7704700BF83
:10127000AC0400200010024003280DD8DFE800F085
:101280000206080A0421054803F0B5BC0821FAE764
:101290001021F8E72021F6E7704700BF0010024058
:1012A00008B5032811D8DFE800F0020A0C0E04216B
:1012B000074803F095FC431E5842584108BD0821D9
:1012C000F6E71021F4E72021F2E70020F3E700BF62
:1012D0000010024070B5084D00240126E0B2FFF76F
:1012E000DFFF18B12B68012B18BF2E600134052CCD
:1012F00005F10405F2D170BDAC040020012380F893
:10130000781080F8793070477047002070470000EF
:10131000034B4164003918BF01211970704700BFA9
:10132000D1330120704700207047836B0BB1084612
:10133000184770474FF6FF707047406803689B6915
:1013400018477047704770477047704710B504469C
:1013500000F048FD23680349D3F890302046BDE8EB
:1013600010401847000000D008B503680446D3F8C1
:101370008430984723682046DB6F984700F0ECF8EC
:10138000236820465B6F9847292001F06FFB00F02F
:10139000E3F8236820465B6F9847F8E710B50446EA
:1013A0000AF0ECFC23682046D3F8BC30BDE81040BE
:1013B000184700F0FBBC00F0FFBC00F031BD00F0AE
:1013C000D1BC00F041BD00F049BD00F0D5BC09F032
:1013D00003BF10B58421044620F0A5FC204610BDB3
:1013E00010B590F8341090F878400C4B8C421A7875
:1013F00009D03AB90A4A0B491488088810800C8031
:1014000001221A7010BD002AFCD0054A0549148833
:10141000088810800C800022F3E700BFCA33012047
:10142000C6330120C833012070B50D46194635B9C1
:10143000094B0A4A0A4840F2FF2121F0B3FCC0E9F7
:101440000F52084B003A18BF01221A700368BDE81A
:101450007040D3F890301847503E0208883E02088A
:10146000D63E0208D033012008B5094B1B888B42B9
:1014700003D8084B1B88934205D9074B074A0848F5
:10148000A32121F08FFC074B1980074B1A8008BD60
:10149000C6330120C83301201B3F02087E3F0208EB
:1014A000D63E0208CC330120CE330120034690F80B
:1014B0007A0018B1586803681B6818477047000025
:1014C000012108B50022084606F012FE0A4B1860FA
:1014D00028B90A4B0A4A28210A4821F063FC002255
:1014E0000421012006F0ACFE074B186018B9074B29
:1014F000034A2C21F0E708BDC0040020C13F0208C8
:101500000A40020839400208BC0400207E4002085C
:10151000024B4FF0FF31186806F034BEC0040020C3
:10152000014B186806F05ABEC0040020024B00218F
:10153000186806F027BE00BFC0040020FFF7F0BF08
:1015400003480449006800231A4606F0B4BE00BFF1
:10155000BC0400200400002013B5084C00231A46E8
:1015600001A9206806F0D8FE20684FF0FF33002262
:1015700001A906F0D1FE02B010BD00BFBC040020DE
:1015800003685B6C18470120704703689B6A184723
:10159000FEE740F2EF307047054B0360054B4FF01C
:1015A0008062C3F88820BFF34F8FBFF36F8F7047FF
:1015B000B049020800E100E010B504464FF45A615A
:1015C000FFF7EAFF204620F0AEFB204610BD0000EA
:1015D00082B0002301930E4B1A6B42F400021A638F
:1015E0001A6B02F400020192019A1A6942F4000295
:1015F0001A611A6922F400021A61064B064A1A613E
:10160000064A5A61064B4FF080629A6002B07047FA
:1016100000380240202500207118000891150008AC
:1016200000E100E008B50A2809D8DFE800F006105C
:101630000E080808081010101000022008BD054B05
:10164000054A0648902121F0ADFB0020F6E7012075
:10165000F4E700BFC0400208DB4002082641020850
:1016600038B50C46887FFFF7DDFFA58AE28A164B66
:101670002169586342EA05425A64628BD963521B5E
:101680001A642568082D0ED19A611A615862207F6C
:101690000E4A42EA0062DA61E2681A620C4A596153
:1016A000D9601A6038BD0022D8611A61E1680A0A5F
:1016B000480902F4784200F4FC600243C1F3C4011B
:1016C0000A439A63034AECE700B0024009000100B4
:1016D000012302000123030008B50B280BD8DFE823
:1016E00000F00612100A0A0A0A0808080808022070
:1016F00008BD0520FCE7054B054A06486F2121F08F
:1017000051FB0020F4E70120F2E700BFC0400208CF
:1017100069410208264102082DE9F04191F81D8037
:101720000C464046FFF7D8FFA77F05463846FFF72F
:10173000D3FF06463846FFF775FFA18A628B444BFC
:10174000521A1A649A61228B521A1A61E28A5863F9
:1017500042EA01425A6421696268D963DA6020680A
:10176000802828D0227F0FD8202867D0402865D035
:1017700004281AD0364B45EA026545F40035B845D1
:10178000DD6161D0334A44E0B0F5807F04D0B0F52C
:10179000007FEFD1304800E0304840EA0262DA6171
:1017A000E2681A625E62596132E045EA026242F41E
:1017B0000032DA61F6E7A068021DDA62227F45EAAC
:1017C000026545F40035DD615E625961017841B121
:1017D000012921D0224B234A23484FF48D7121F057
:1017E000E1FADA69418822F47F42013922F01002DD
:1017F00042EA0122DA610121154BDA6942F0200246
:10180000DA61DA699206FCD410229A600029B9D014
:10181000164A1A60BDE8F081B2F1FF01DA6940882A
:1018200022F47F4200F1FF3022F0100242EA00224F
:1018300042F0100218BF0121DA61DDE745EA0262D9
:10184000034B42F40032B4E742F20132E1E700BF59
:1018500000B0024001230100090002000A0002005A
:10186000B3410208CD4102082641020801230200CB
:10187000024B1B68586803685B691847D433012022
:1018800070B5044625460A4B0C300026606026726F
:10189000667245F8203B602229460AF0C5FB04F534
:1018A0005A63EE6024359D42FBD1204670BD00BFD7
:1018B000B0490208034B1A68D207FCD423229A606D
:1018C000704700BF00B002407047000030B50F4CB9
:1018D0002568ED07FCD423250904A56041F001012A
:1018E0000225FF2B65636164E0630AD008496562E5
:1018F00041EA0363E361074B22626061E0602360B9
:1019000030BDE561039BA363034BF8E700B00240E1
:1019100009000100010002000100030030B50E4C77
:101920002568ED07FCD423251204A56042F00102CE
:101930000225FF2B65636264E063E16008D01B064B
:1019400043F00213E361054B65626061236030BDC3
:10195000034BE3610123F9E700B0024001000200FC
:10196000020002FF30B50B4C2568ED07FCD423259F
:1019700012041B06A56043F40033022542F0010265
:1019800065636264E063E160E361034B656260612B
:10199000236030BD00B0024001000200012070470A
:1019A0000C2070470C2303FB0100083070470C2308
:1019B00003FB010008307047012070474FF4697045
:1019C00070474FF4697303FB0100083070474FF410
:1019D000697303FB01000830704701207047102035
:1019E000704700EB01100830704700EB0110083021
:1019F0007047084601F024BD10B5034B0360044650
:101A000009F040F9204610BD684A020810B50446A6
:101A1000FFF7F2FF2046142120F085F9204610BD83
:101A200010B5034B0360044609F02CF9204610BDA5
:101A3000344A020810B50446FFF7F2FF20464FF47F
:101A40006B7120F070F9204610BD000010B5034BFB
:101A50000360044609F016F9204610BD004A02084A
:101A600010B50446FFF7F2FF2046182120F05BF97D
:101A7000204610BD10B5084B0360044600F5767093
:101A8000FFF7BAFF04F12C00FFF7CAFF04F11400BE
:101A9000FFF7DCFF204610BD9C4A020808B502484B
:101AA000FFF7E8FF08BD00BF9C13002010B50446F7
:101AB000FFF7E0FF204640F24C5120F034F9204679
:101AC00010BD00002DE9F34101F03CFB054601F09B
:101AD0003DFB00240146234628462246009411F08F
:101AE0008FF8274B274A1A60204602F089F8264DC6
:101AF000264B274A27489A6010F0EAFF2B68BFF36D
:101B00005B8FDB0735D4284620F00FF988B3224CD1
:101B1000224B236004F57C7604F1140004F12C08B8
:101B200004F576776060C4F80880E760266109F004
:101B3000ABF81B4B6361404609F0A6F8194BE36212
:101B4000384609F0A1F8184BC4F8D83304F57B7077
:101B500002F0CCF8224604F57B71304602F0BCF866
:101B6000304601F06DFC114821F03AF9284620F08A
:101B7000E8F80F4802B0BDE8F041FFF7E7BB00BF4F
:101B80003834012048050020981300206805002003
:101B90004C050020080000209C1300209C4A0208ED
:101BA000004A0208344A0208684A02089D1A0008DE
:101BB000C4040020704700000148FFF7D5BB00BFF8
:101BC000C404002070B5264E264C274D274B2360B9
:101BD0003046FFF755FE284616F018F924480FF056
:101BE00001F9244B2448DC6000224FF48071C3E9E2
:101BF000121222491A86C3E91A12214983F8582081
:101C0000C3E91E011F49C3F880101F491F480B601C
:101C1000F021C3E90422C3E90622C3E90822C3E98B
:101C20000A22C3E90E22C3E91022C3E91422C3E940
:101C300017225A6683F870205A67C3E9016501804C
:101C40001348018013484FF4A071018012480180AD
:101C500012490A70012283F83420114A1A6070BDBB
:101C6000F40500209413002068050020403E02087F
:101C70004C050020C4040020000001010100000107
:101C8000000450001A001400D4330120C633012090
:101C9000CC330120C8330120CE330120CA330120C8
:101CA000C44802080148FFF777BC00BFF4050020D4
:101CB0000020704781807047C18070470181704764
:101CC000418170477047704770477047704710B444
:101CD000C4880368121B84885B6D091B12B25DF80F
:101CE000044B09B218474FF6FF7383814FF0FF335F
:101CF00003621368C36110607047002070478B88CF
:101D0000838001207047704780F82610704790F854
:101D10002600704710B50022B1F90840B1F90A1049
:101D2000028042808480C18010BD002202804280F7
:101D30008280C28070470177704780ED080A704743
:101D400080F82410704780F82510704701207047F4
:101D5000983070478C3070478430704770477047B8
:101D600070470000034B902283F85A2383F85823CE
:101D7000704700BF00E100E0094A0A49D3680A48F9
:101D8000C3F30A03013B9BB20B801169C1F30A0143
:101D9000013901801364536B43F0010353637047AF
:101DA00000680140EA180020E8180020014BD3F831
:101DB000AC00704700680140024B0122C3F8AC1030
:101DC0005A6270470068014010B52C2104461FF08C
:101DD000AAFF204610BD10B5BC2104461FF0A3FF8A
:101DE000204610BD70B5044609F04BFA23689D6E7D
:101DF0000DF090FD01462046A8472368054AD3F818
:101E00008C502046AC460023BDE87040A2F5163148
:101E1000604700BF00B004D009F01ABA09F024BA34
:101E200009F0E0B909F04FBB90F8252012B1036822
:101E30005B691847704790F825201AB190F8242064
:101E400002B1186070470000034B4FF080629A6047
:101E50004FF080729A60704700E100E0084B4FF04D
:101E60008062C3F88820BFF34F8FBFF36F8F4FF0AE
:101E70008072C3F88820BFF34F8FBFF36F8F704716
:101E800000E100E070B50023124E8380124B036026
:101E9000336893F8582005460AB1D86C00B99868A1
:101EA0000368DB6A98473368B0FA80F4D86C640939
:101EB00030B10368DB6A9847002808BF44F001048A
:101EC0002CB9064B064A07482C2120F06BFF284608
:101ED00070BD00BFD4330120B04A02080B42020893
:101EE00069420208A242020870B5254E3568BFF368
:101EF0005B8F15F0010540D130461FF016FF00281A
:101F00003BD0204C204B256104F13400C4E900355E
:101F1000C4E90255E584A562A5850FF048FA04F1ED
:101F200058000BF035FD194BA3652046184B40F8BF
:101F3000843BFFF7A7FF174BC4F884302433C4F861
:101F40008C304FF4C803C4E928350023C4F8AC3002
:101F5000C4F8B030C4F8B430C4F8B8300E480F4BF1
:101F6000C4F89050C4F89C50C4F8A850C4F89830F5
:101F700020F036FF30461FF0E4FE024870BD00BF7F
:101F8000EC180020F018002080500208D04A020807
:101F9000484B020834500208611D00081450020822
:101FA00038B5184C23685BB3174B184A1B6C118863
:101FB0008B4216D1164B198803F020FC236893F846
:101FC0006A200025013283F86A2083F87C50FFF7ED
:101FD000B7FA206809F0D2FE2846BDE83840FFF77E
:101FE000F7B803F00BFC2468236820461B6A984767
:101FF000012384F87C300020BDE83840FFF712B997
:1020000038BD00BFD433012000680140EA18002029
:10201000E818002008B50C490C48012208F0D0F857
:1020200008B100F07DFD0A49084808F0DCF808B165
:1020300000F076FD054808F0EFF818B1BDE808405B
:1020400000F06EBD08BD00BF40000020AC190020AC
:102050005C010020122301480B8070472C000020F7
:10206000042301480B80704728000020002370B52E
:102070004D1C1E46040FB0F1204F34BF30343734AE
:1020800001F8134005F813600133DCB2A2424FEAB5
:102090000010EFD870BD00001A2310B50B800A4B5A
:1020A000D3F8100AD3F8182A80180AD0D3F8144AA3
:1020B00006490822FFF7DAFF042210312046FFF715
:1020C000D5FF034810BD00BF0070FF1F0E000020A9
:1020D0000C00002010B5044C04480A46214608F0C4
:1020E00061FC204610BD00BF881C0020044302088C
:1020F00010B5044C04480A46214608F053FC20461B
:1021000010BD00BF881C00201743020810B5044C06
:1021100004480A46214608F045FC204610BD00BF91
:10212000881C00202D43020810B5044C04480A46C0
:10213000214608F037FC204610BD00BF881C002057
:102140003843020830B5044689B01422002103A8A0
:1021500021F02FF822681C4B9A4233D11B4C1C48AB
:1021600000250195236B43F002032363236B03F0E7
:1021700002030193019B03A94FF40053039302F060
:102180004BFC4FF440420223CDE9032303210C23EF
:10219000CDE906130E4805950DEB030102F03CFC5A
:1021A0000295236B43F000532363236B03F000532A
:1021B00002934D202A460521029B02F0E3FA4D20AE
:1021C00002F012FB09B030BD0000044000380240AC
:1021D0000004024000F29C41D0F8E00408F02EB860
:1021E000242303FB0103D0F8E004D3F8602208F0B5
:1021F00055B8242303FB0103D0F8E0041A6A08F061
:1022000082B8D0F8E00408F01CB910B5C1790446D2
:1022100021B1022901D000F083FC0121D4F8E004AF
:1022200008F0F3F8D4F8E004BDE8104008F0BEB8B8
:1022300010B50446D0F8E00408F0EAF82268D2F8B5
:10224000003E43F00103C2F8003EE37A23B1034AA3
:10225000136943F00603136110BD00BF00ED00E0F9
:10226000D0F8E00408F0E2B8D0F8E00408F009B9CA
:10227000D0F8E00408F0F2B8D0F8E00408F014B99F
:10228000D0F8E00408F012B908B50278012A034634
:1022900027D11548C0F8E034C3F8C802134B0360D7
:1022A000062303714FF40073C3800223437200239B
:1022B00043810373C281037403F0BEFA08B100F0D6
:1022C0002FFC4FF40071084803F0DBFF802200214F
:1022D000054803F0B7FF04484FF4BA72012103F038
:1022E000B1FF002008BD00BF9C1E0020000004407C
:1022F00011F0800FD0F8C8324FF024021BBF01F05C
:102300007F0102FB013302FB0133987D08BF93F884
:102310005602704700487047881E0020704718B169
:1023200002280CBF01200320704708B5D0F8C8026E
:1023300003F0F1FABDE80840FFF7F1BF10B514460D
:10234000D0F8C8021A46234603F017FBBDE8104038
:10235000FFF7E5BF08B5D0F8C80203F047FBBDE8BA
:102360000840FFF7DCBF08B5D0F8C80203F0A5FBB2
:10237000BDE80840FFF7D3BF08B5D0F8C80203F0A6
:10238000D3FBBDE80840FFF7CABF08B5D0F8C802C4
:1023900003F0E0FABDE80840FFF7C1BF08B5D0F888
:1023A000C80203F06FFBBDE80840FFF7B8BF08B5EF
:1023B000D0F8C80203F048FBBDE80840FFF7AFBF04
:1023C00007B5064BADF806001B68054801220DF164
:1023D000060104F0A9FC03B05DF804FB5C000020DA
:1023E000CC23002008B5FFF715FE642005F074FE2D
:1023F000FBE7000007B52F4D2F4C286805F0BCFF08
:10240000F8B14FF0FF33286800220DF1070105F005
:1024100083FF002323706370A370E3709DF807307F
:10242000572B05D84B2B10D8412B3ED0442B3FD0F7
:1024300022480422214608F0B6FB00236370A370F3
:10244000E370012005F048FED7E74C3B0B2BEFD89B
:1024500001A252F823F000BF8924000831240008AB
:1024600031240008312400083124000831240008F8
:102470009D240008A7240008312400083124000806
:1024800031240008A124000801230C4823700422F1
:10249000214608F088FB00232370C9E70223F4E7F4
:1024A000FB23A370C4E70523FBE7FB236370BFE7AF
:1024B0000523FBE78823002068250020AC190020B5
:1024C00030B595B0102200210AA820F072FE142227
:1024D000002103A820F06DFE00241D4B01941A6C0E
:1024E00042F080521A641B6C03F080530193019BED
:1024F000184B02941A6842F440421A601B6803F4B5
:10250000404302930122029B4FF48033CDE908231C
:1025100002254FF48003CDE90E530421A823CDE911
:10252000101308A807231393129503F0AFFE0F238F
:10253000CDE903354FF4A0504FF48053CDE90603A5
:10254000052103A8059404F07DF815B030BD00BF47
:1025500000380240007000402DE980489BB002F036
:10256000BFF8FFF7ADFF142200210DA820F021FED7
:102570000024C74B00941A6BC648C74D42F01002A6
:102580001A631A6B02F010020092009A01941A6BFF
:1025900042F020021A631A6B02F020020192019AA3
:1025A00002941A6B42F080021A631A6B02F08002E6
:1025B0000292029A03941A6B42F004021A631A6B95
:1025C00002F004020392039A04941A6B42F001028F
:1025D0001A631A6B02F001020492049A05941A6BB2
:1025E00042F002021A631A6B02F002020592059A87
:1025F00006941A6B42F040021A631A6B02F0400212
:102600000692069A07941A6B42F008021A631B6B33
:1026100003F00803224607933C21079B02F0E6FAE9
:102620009E480122022102F0E1FA22469B48042141
:1026300002F0DCFA22469A484FF4405102F0D6FAF2
:1026400001263C23CDE90D3692480F9403230DA9B2
:102650000227109302F0E0F990480DA9CDE90D761C
:10266000CDE90F4402F0D8F904238C480DA9CDE937
:102670000D36CDE90F4702F0CFF90DA94FF44053C5
:102680008748CDE90D36CDE90F4702F0C5F98548F9
:10269000854B036002F0B6F8DFF834C2834B2C623E
:1026A000C5E900C328464FF48043C5E90434C5E9B1
:1026B0000244C5E9064402F0A7FC1021284602F0B6
:1026C000EBFE2146284602F006FF794DDFF804E2D2
:1026D000AC624FF48273C5E900E34FF4007818232D
:1026E000C5E9068328460A23C5E90244C5E904442E
:1026F000C5E90844EB6204F0BBFA8F232246394651
:1027000066488DF824308DF8344002F06FFA324676
:102710004FF47A7309A9284604F006FB4FF47A7344
:1027200032460DA9284604F0ABFC324639465B48D8
:10273000604D02F05BFA9DF83430D32B04BF5E4B42
:102740001E705E4B0127C5E900374FF0100A402389
:102750000024C5E904A34FF4C073C5E906344FF45F
:102760000063C5E908344FF4005302264FF0040912
:10277000AB624FF0030B07230DA92846CDE90D638B
:10278000CDE90F934FF00808C5E90249CDE911B62C
:10279000139604F051F94FF6FF7209A92846CDE9C6
:1027A0000A87089409970C9404F066F9384601F0FA
:1027B000C3FF4FF6FF7209A92846CDE90968CDE9A4
:1027C0000B7404F059F94FF6FF7209A92846CDE9B8
:1027D00009B8CDE90B9404F04FF94FF40C7308934A
:1027E000089B0C934FF6FF7209A92846CDE909987A
:1027F0000B9704F041F940F26A51284604F05AF967
:10280000342221460DEB020020F0D3FC2C4D2D4B41
:102810002C61C5E900340923C5E905371D23C5E945
:10282000073B40F20D1240F24313C5E9092340F281
:10283000171140F247132846C5E90B13C5E90244B6
:10284000AC8685F8364002F0E1FEFF21F022CDE9AA
:1028500012144FF4806005214FF4A073CDE91401E8
:10286000CDE90E240DA9CDE9164228462246164D83
:102870001893CDE910360D94ADF864408DF866409C
:1028800002F08FFF114B2B601B6898472B6823E0E9
:102890000038024000100240CC2400200008024012
:1028A000000C02406025002000300240A08601009C
:1028B000CC2300209823002084230020400100A086
:1028C00024240020006801408023002064000020B0
:1028D000005C0040005001401B4DDB6898471B4BDB
:1028E0002846C5E90034C5E90264C5E90A46C5E9D8
:1028F0000C4401F097FF3946284602F049F8FEF7EC
:102900009BFBFEF798FB05F077FB114A31465046DA
:1029100005F096FC0F4B104A186021460F4805F051
:1029200097FB0F4B0F4A186021460F4805F090FBAC
:102930000E4B0F4A186021460E4805F089FB0E4BDE
:10294000186005F06BFBFEE72025002000B0024078
:102950008C4B020888230020EC4B0208E52300087A
:1029600094230020C84B0208471000089023002041
:10297000A44B0208F52300088C2300207047704701
:102980007FB5094B8DF817201B6802930DF11702D4
:102990000123009201930A460146044802F0DCFB41
:1029A00007B05DF804FB00BF60000020CC240020CD
:1029B0007FB500238DF81730084B1B6802930A4639
:1029C00001230DF11701009101930146044802F023
:1029D00053FC9DF8170007B05DF804FB6000002071
:1029E000CC2400201FB5084C24680092CDE90134A6
:1029F0000A4601230146054802F03EFC003818BF94
:102A0000012004B010BD00BF60000020CC240020D5
:102A100001F092BE10B5064C00222046042102F0BF
:102A2000E5F820460122BDE81040042102F0DEB89E
:102A30000008024038B50B4D044601220A484FF405
:102A4000005102F0D3F800220421284602F0CEF80B
:102A50002046FFF7B5FC28460122BDE83840042196
:102A600002F0C4B800080240000C024038B50B4D1B
:102A7000044600220A484FF4005102F0B7F8002241
:102A80000421284602F0B2F82046FFF799FC2846B8
:102A90000122BDE83840042102F0A8B80008024035
:102AA000000C0240F7B5144E144F05460C46304654
:102AB0000022042102F09AF800224FF40051384617
:102AC00002F094F82846FFF77BFC0D4B0D481B687D
:102AD000224601A904F0D4FA384601224FF40051ED
:102AE000019C02F083F830460122042102F07EF8B6
:102AF000204603B0F0BD00BF00080240000C0240B9
:102B00005C000020CC23002001F016BE0268034BBD
:102B10009A4201D101F0FEBD704700BF0010004095
:102B20007047000082B00E4B00220092596C41F4B5
:102B300080415964596C01F48041009100990192DF
:102B4000196C41F0805119641B6C03F080530193A0
:102B5000019B0F216FF0010002B001F013BE00BF16
:102B6000003802400268094B9A4282B00BD1002320
:102B70000193074B1A6B42F480521A631B6B03F4E8
:102B800080530193019B02B0704700BF00300240A8
:102B90000038024007B50F4B02689A4216D1002256
:102BA000A3F5F0430192196B41F4000119631B6B0B
:102BB00003F40003019305215A20019B01F0E2FD7B
:102BC0005A2003B05DF804EB01F00EBE03B05DF8CF
:102BD00004FB00BF00B002402DE9F043044689B079
:102BE0001422002103A820F0E4FA2268244B9A4220
:102BF00043D1244C244800250095236B43F0040363
:102C00002363236B03F004030093009B0195236B64
:102C100043F001032363236B03F001030193019B42
:102C20004FF012094FF400734FF0010803270426F8
:102C300003A9CDE90339CDE90587079601F0ECFE3C
:102C40004FF480731148079603A9CDE90339CDE904
:102C5000058701F0E1FE0295236C43F40003236431
:102C6000236C03F400030293029B236A43F40003E2
:102C70002362236A23F40003236209B0BDE8F083D2
:102C8000005C0040003802400008024000000240A2
:102C9000F0B599B004461422002107A820F089FA63
:102CA00030220DEB0200002120F083FA22685E4BF7
:102CB0009A4240F0B78008230C93C023109304235A
:102CC00012930CA84FF40033159303F089FD08B15B
:102CD000FFF726FF554B5648002400945A6C42F0EB
:102CE00080625A645A6C02F080620092009A0194E9
:102CF0001A6B42F020021A631A6B02F02002019252
:102D0000019A02941A6B42F001021A631A6B02F0E4
:102D100001020292029A03941A6B42F002021A63B1
:102D20001A6B02F002020392039A04941A6B42F0A7
:102D300040021A631A6B02F040020492049A05944E
:102D40001A6B42F004021A631A6B02F00402059235
:102D5000059A06941A6B42F008021A631B6B03F083
:102D60000803069302250E26069B0B964FF48063FC
:102D700007A9CDE90735CDE9094501F04DFE41F63A
:102D800058032C480B9607A9CDE907350927CDE94B
:102D9000094501F041FE032327480B9707A9CDE918
:102DA0000735CDE9094501F037FE4FF4706322483D
:102DB0000B9607A9CDE90735CDE9094501F02CFEB1
:102DC0004FF40C631D480B9607A9CDE90735CDE9F3
:102DD000094501F021FEC02319480B9607A9CDE94A
:102DE0000735CDE9094501F017FE082315480B9674
:102DF00007A9CDE90735CDE9094501F00DFE4FF4EE
:102E0000A0530E480B9707A9CDE90735CDE9094531
:102E100001F002FE58202246052101F0B3FC5820A3
:102E200001F0E2FC19B0F0BD00680140003802403A
:102E3000001402400000024000040240001802405A
:102E400000080240000C024010B5044688B014226D
:102E5000002103A820F0ADF92268144B9A4223D137
:102E600003F56843002101915A6C114842F4801225
:102E70005A645A6C02F480120192019A02911A6B00
:102E800042F020021A631B6B03F020030293029BA3
:102E90004FF4607202230321CDE903230523CDE91A
:102EA000061303A901F0B8FD08B010BD00500140A1
:102EB000001402402DE9F04186B0002303932B4B10
:102EC0001C68002C4FD14FF00108C3F80080284B3C
:102ED00000949A6B274842EA08029A639B6B03EAC4
:102EE00008030093022703260C25009B01A94FF637
:102EF0003F03CDE90137CDE9046501F08DFD1E48A2
:102F0000059501A9CDE90187CDE9034601F084FDCE
:102F100048F233131948059501A9CDE90137CDE9E8
:102F2000034601F079FD4FF683731548059501A915
:102F3000CDE90137CDE9034601F06EFD4CF2037394
:102F40001048059501A9CDE90137CDE9034601F007
:102F500063FD60230C48059501A9CDE90137CDE952
:102F6000034601F059FD06B0BDE8F0816C25002054
:102F700000380240001402400008024000180240DD
:102F800000100240000C02400004024070B588B0FE
:102F900000230293204B1A6C42F010021A641B6C3F
:102FA00003F010030293054601A903A8029B03F056
:102FB000F9FB069B4BBB03F0E5FB184E184B336047
:102FC00040F2E733F360174BB0FBF3F3013B736060
:102FD000304600233361B360B36104F021FA044644
:102FE00080B9304604F0F2F8044658B9362001F0B2
:102FF000FBFB0F2D0DD822462946362001F0C2FBDF
:10300000094B1D60204608B070BD03F0BBFB4000BB
:10301000D3E70124F6E700BF003802407025002006
:103020000010004040420F00CC0000207047FEE737
:10303000FEE7FEE7FEE77047014804F005B900BF70
:1030400070250020014802F0B5BD00BF9C1E002085
:10305000014802F049BB00BF24240020014801F0D0
:103060000DBC00BF202500200120704708B520F0CE
:1030700043F9162303604FF0FF3008BD08B520F078
:103080003BF916230360FEE770B50D4614460E4665
:10309000731B9C4201DC204670BDAFF3008006F834
:1030A000010BF5E770B50D4614460E46731B9C42A6
:1030B00001DC204670BD16F8010BAFF30080F5E788
:1030C0004FF0FF3070474FF400534B6000207047C3
:1030D00001207047002070470A4A116808B503466E
:1030E00009B9094911601068694603448B4206D941
:1030F00020F002F90C2303604FF0FF3008BD13608D
:10310000FCE700BFB825002018410120704710B52A
:10311000042104461EF007FE204610BD012908B513
:1031200006D0022908D059B900F0A8FD006808BDF2
:1031300000F0A4FD4068FAE700F0A0FD8068F6E723
:103140000020F4E700487047244C02080120704733
:1031500013B5002451B1036801948DF8034001AA0E
:103160009C680DF10303A04702B010BD0846FBE7C1
:10317000C0897047008A7047C08870478088704750
:10318000807A00F07F007047807AC0097047002085
:10319000704700009FED010A704700BF000000006B
:1031A0007047704700F598730868496803C3704713
:1031B000704770474160704770477047064BC0F8D2
:1031C0004C310023C0F8503100F5A273C0F848011B
:1031D000C0F84031704700BF7D3200080123037200
:1031E0007047704710B4C26841685410034601EB41
:1031F0006200D20748BF0A599B685DF8044B48BF7C
:10320000D35818470346406830B19A681AB9D8684D
:1032100000F0010070470120704710B50C210446F2
:103220001EF081FD204610BD10B5102104461EF091
:103230007AFD204610BD10B54FF4AE7104461EF065
:1032400072FD204610BD10B50CF064FB0368BDE8AC
:103250001040DB6B184710B50446D0F8400158B158
:103260000368DB68984738B1D4F8400103689B686D
:1032700098470023C4F8403110BD00002DE9F14FFC
:10328000D0E9556A0746B06803681B6A9847B0F5ED
:10329000697F05D2444B454AA32145481FF082FD72
:1032A000706803681B6A98470F2803D8414B3F4A50
:1032B000A421F2E7F06803681B6A98470B2803D83B
:1032C0003D4B3A4AA521E8E70CF024FBDFF8F090EB
:1032D00004300CF044FBD9F8000010B10368DB683F
:1032E0009847D9F8000010B103681B689847DFF8C9
:1032F000D480D8F8000010B103685B699847D7F80C
:103300003C0110B103685B689847D8F8000010B121
:1033100003681B689847D7F83C0110B103689B68A5
:103320009847F068036800215B6A98474FF0000BEC
:10333000224BC0F804B0044680F808B00360B068BF
:10334000036859465B6A9847054600F087FD706838
:10335000036859465B6A98472946064600F0D8FC40
:10336000331DC7F83C61C9F80040C8F80050CAF8DE
:1033700000302B68C6F808A02846DB68EE63984743
:10338000336830461B689847214628460EF072FC89
:10339000236820461B69984723685B69204601B073
:1033A000BDE8F04F184700BF6E430208FC43020817
:1033B000CE44020815450208B8450208AC4C020884
:1033C0001C34012018340120044B1B6893F858204A
:1033D0000AB1D86C00B99868704700BFD433012097
:1033E00070B504460D4616460CF056FB104A1460A4
:1033F000104A2260104A0023C4E95123C4E9533320
:10340000C4E94F330D4B1868036801219B68C4E978
:1034100055659847FFF7D8FF16F0A1FBFFF7D4FFDB
:1034200016F018FCFFF7D0FF16F020FC204670BD08
:1034300028340120584C0208404C0208D4330120A3
:10344000064BC0F84C310023C0F8503100F5A27390
:10345000C0F84801C0F84031704700BF7D32000815
:10346000406A7047806A704770478A880B8810B539
:10347000D20A4C88C1699BB251F8220043EA044346
:10348000184410BD10B50446BAB1107B68B1537B27
:10349000D27A1B0203F4E0631A43236A03EB82032C
:1034A0001A888A4202D193F9020010BD05D801386A
:1034B00080B204330028F3D1F7E70020F5E710B518
:1034C0002C2104461EF02FFC204610BD30B58BB0D9
:1034D0000446BDF860500895BDF85C5007959DF80E
:1034E000505006959DF84C5005959DF84850049510
:1034F0009DF8445003959DF8405002959DF83C502E
:103500000195BDF8385000950EF00EF8064B23607B
:10351000159BE361169B2362199B63621A9BA3624E
:1035200020460BB030BD00BFD04C0208806A704707
:1035300070477047704770477047704770477047D3
:10354000704770477047704770477047704700F189
:103550006C03994270B504460D4602D10368DB6ADC
:10356000984704F1E4039D4203D1236820461B6B76
:10357000984704F5AE739D4203D1236820465B6BE8
:10358000984704F5EA739D4203D1236820469B6B5C
:10359000984704F513739D4203D123682046DB6BE3
:1035A000984704F531739D4205D1236820461B6C72
:1035B000BDE87040184770BD90F82C304BB100F159
:1035C0006C021268C2653BB100F174031B680366AC
:1035D000704700F16802F4E700F17003F6E730B4D9
:1035E000C26844685510034604EB6200D20748BF26
:1035F00062599B6830BC48BFD3581847034640689F
:1036000030B19A681AB9D86800F0010070470120FB
:10361000704790F82D3080F85A30704710B57821F7
:1036200004461EF080FB204610BD10B51021044654
:103630001EF079FB204610BD10B54FF453710446BF
:103640001EF071FB204610BD10B50446006B50B152
:103650000368DB68984730B1206B036821469B689C
:10366000BDE81040184710BD0B7970B590F82C607C
:1036700004460D460BB916B170BD002EFCD0B3FA4E
:1036800083F35B0984F82C3023682046D3F88C3010
:103690009847236820465B699847002EECD02B7929
:1036A000012BE9D123682046D3F88830BDE870406B
:1036B000184770B5036804461B6B15469847236886
:1036C000294620465B6BBDE87040184770B504463C
:1036D0001D46BDF91060FFF7ECFF23682946204620
:1036E0009B6B9847236831462046DB6BBDE87040F2
:1036F00018470000094A02604FF48071002281845B
:10370000FF21C0E90122C0E90322C0E90522C0E986
:10371000072280F826108262704700BF44510208D9
:103720004FF47F4370B50646838540F201130025B0
:103730008384124B8562C0E90155C0E90355C0E995
:103740000555C0E90755056346F8343B0446304645
:10375000FFF7D0FF0A4B63632A4629463046C4E987
:103760001A55C4E91C552566A4F86450FFF7A1FF5B
:103770002046314607F09AFA204670BD384D0208BF
:10378000AC51020810B40367019B436703685DF8FE
:10379000044BD3F88C30C0E91A1218472DE9F04FCA
:1037A000044689B0254600260EF0B8F8814BE66342
:1037B00045F8403B2846FFF79DFF04F16C0318468F
:1037C0000293FFF7ADFF04F1E40318460393FFF7FC
:1037D000A7FF04F5AE7318460493FFF7A1FF04F5A5
:1037E000EA7318460593FFF79BFF04F51373184619
:1037F0000693FFF795FF04F5317318460793FFF71B
:103800008FFF6D4BDFF8C0A1DFF8C0B16B4FC4E98B
:10381000CF346B4BC4E9D1364FF4A07332460093DA
:1038200031462846F023FFF751FF4FF07F43A36650
:103830002946201D322507F039FA4FF005092B469D
:103840003246314604F1A0000095FFF73FFF04F532
:103850004F780298A4F8D0905A465146594B009799
:10386000FFF790FF2B460298C4F89C804FF48772B4
:103870000095BE21FFF72AFF0299201D07F016FAD6
:103880002B463246314604F58C700095FFF71EFF3B
:103890000398A4F848915A4651464A4B0097FFF7BF
:1038A00071FF2B4632460398C4F81481BE2100955F
:1038B000FFF70CFF0399201D07F0F8F92B4632465D
:1038C000314604F5C8700095FFF700FF0498A4F88E
:1038D000C0915A4651463B4B0097FFF753FF2B468A
:1038E0000498C4F88C813E2200954021FFF7EEFE3B
:1038F0000499201D07F0DAF92B463246314604F5CB
:1039000002700095FFF7E2FE0598A4F838925A4637
:1039100051462C4B0097FFF735FF2B460598C4F80E
:103920000482BF2200954021FFF7D0FE0599201D9B
:1039300007F0BCF92B463246314604F5207000955D
:10394000FFF7C4FE0698A4F8B0925A4651461D4BA4
:103950000097FFF717FF2B460698C4F87C82802259
:1039600031460095FFF7B2FE0699201D07F09EF93B
:103970002B463246314604F53E700095FFF7A6FE11
:103980000798A4F828935A4651460E4B0097FFF724
:10399000F9FE802211460798C4F8F4822B46009560
:1039A000FFF794FE201D079907F080F9204609B023
:1039B000BDE8F08FEC4D0208D44D0208996633FF44
:1039C0004F350008663300FF996600FFCC9900FF71
:1039D0007047000030B5164D2C6814F001048FB00C
:1039E000BFF35B8F20D128461EF09FF9E0B13F2343
:1039F0000993104B0893104B104911480A94012267
:103A0000CDE906430423CDE903320A230093CDE92F
:103A10000B44CDE901440594FFF758FD09481FF018
:103A2000DFF928461EF08DF905480FB030BD00BF04
:103A3000BC2500202C5C0208385C0208FC5B0208F4
:103A4000C0250020D13900087047000030B5164D60
:103A50002C6814F001048FB0BFF35B8F20D128468F
:103A60001EF063F9E0B13F230993104B0893104B0C
:103A7000104911480A940122CDE906430423CDE9F7
:103A8000033214230093CDE90B44CDE9014405949E
:103A9000FFF71CFD09481FF0A3F928461EF051F955
:103AA00005480FB030BD00BFEC250020305C020897
:103AB0003C5C02080C5C0208F0250020493A000832
:103AC0007047000030B5164D2C6814F001048FB01B
:103AD000BFF35B8F20D128461EF027F9E0B13F23CA
:103AE0000993104B0893104B104911480A94012276
:103AF000CDE906430423CDE9033228230093CDE921
:103B00000B44CDE901440594FFF7E0FC09481FF0A0
:103B100067F928461EF015F905480FB030BD00BF03
:103B20001C260020345C0208405C02081C5C020871
:103B300020260020C13A000800207047002070476E
:103B40000EB403B503AB002153F8042B01930CF022
:103B500069FF02B05DF804EB03B070470CB407B521
:103B600004AB53F8042B01930CF05CFF03B05DF839
:103B700004EB02B070470000436C10B5044673B309
:103B8000038F2BB9184B194AC52119481FF00AF9A0
:103B9000C38E00EB43035B8C0BB30EF05EFD238FF3
:103BA000012B03D8134B144ACB21EEE7E28E531CB2
:103BB0009BB2092B194688BFA3F10A0104EB41010E
:103BC00040F63F10498C814209D10A2B04EB420296
:103BD00028BF002304EB4303508C588451842046B3
:103BE000BDE810400EF03CBC5B460208644602088B
:103BF0000F47020859470208674702080EF0F7BB53
:103C000038B518BB124B13481C681349B4B122686D
:103C100022440260626822440A60A26814440F4B86
:103C200000221A8000F02AF8054600F025F80C4B17
:103C30001C600C4B1D600C4B188007E00B4B0360A5
:103C40000B4B0B600B4B1C68002CE8D138BD00BF40
:103C500058260020502600204C2600205426002004
:103C60002C3401203434012030340120485C020817
:103C7000445C02084C5C0208002070470048704712
:103C80005C26002010B5FFF7E1FE044C2060FFF732
:103C900019FF6060FFF79EFEA06010BD5C2600204B
:103CA00010B5002404600C6014601C6010BD7047E7
:103CB00010B54FF4AE7104461EF035F8204610BD25
:103CC00010B50446D0F8580100F013F82046BDE8BE
:103CD00010400BF0A1BE000010B50446FFF780FBBA
:103CE000014B2360204610BD384E020800220260BE
:103CF00070477047704704387047704710B51021FF
:103D000004461EF010F8204610BDA0F10400F5E7AF
:103D100000228260024A026018324260C16070472D
:103D20008C4E02087047000013B5094C4C232068E4
:103D30008DF8073004F020FB042806D820680A23F9
:103D400000220DF1070104F0B6FA02B010BD00BF69
:103D50008823002013B5094C522320688DF80730C2
:103D600004F00AFB042806D820680A2300220DF17B
:103D7000070104F0A0FA02B010BD00BF88230020A4
:103D800013B5094C442320688DF8073004F0F4FA89
:103D9000042806D820680A2300220DF1070104F048
:103DA0008AFA02B010BD00BF8823002013B5094C69
:103DB000412320688DF8073004F0DEFA042806D885
:103DC00020680A2300220DF1070104F074FA02B002
:103DD00010BD00BF8823002013B5094C572320686D
:103DE0008DF8073004F0C8FA042806D820680A23A2
:103DF00000220DF1070104F05EFA02B010BD00BF11
:103E00008823002013B5094C532320688DF8073010
:103E100004F0B2FA042806D820680A2300220DF123
:103E2000070104F048FA02B010BD00BF882300204B
:103E300010B5034B03600446FFF787FB204610BD17
:103E4000B44E020810B50446FFF7F2FF20464FF4C7
:103E500069711DF068FF204610BD000010B50446D2
:103E6000FFF79CFC0A4B23604FF0FF33C4F84C3340
:103E7000002384F8503384F85B3384F86B3384F880
:103E80007B3384F88B3384F89B33204610BD00BF0E
:103E9000B44E020870B5002300F25B351C012E5DA4
:103EA00096B904443223A4F85833A4F85C3340F2A2
:103EB000FF13A4F85413A4F85623A4F85A3300F0BF
:103EC00035FCC4F8600370BD0133052BE6D1FAE779
:103ED00010B5044600F02AFCDFED1B6ADFED1B5A2B
:103EE000234604F15001B7EE006A002493F85B23E7
:103EF0003AB1D3F86023821AB2F57A7F05D383F8FA
:103F00005B4310338B42F1D110BD07EE902AB8EE1F
:103F1000E77AB3F85C23C7EE267A07EE102A76EE2E
:103F2000677AB8EEC77A27EE277A67EEA57ABCEEF5
:103F3000C77AFCEEE77A17EE102AA3F8582317EE9B
:103F4000902A83F85A23DCE700007A4400007F437C
:103F500007B5002301936FF07F039942B8BF19465C
:103F60007F29A8BF7F219A42B8BF1A467F2AA8BFDF
:103F70007F228DF8062004228DF8051003480DEBF2
:103F8000020106F010FE03B05DF804FBAC1900203E
:103F900007B5042200238DF804100648ADF805305B
:103FA0000DEB02018DF8073006F0FDFD03B05DF862
:103FB00004FB00BFAC190020A03AF8B5A1F17800CD
:103FC00016B212FB02F207B210FB00201C46FCF7EF
:103FD000B9FA41EC100B069D1DF0CDFE51EC100B13
:103FE000FCF7CAFD07EE100AF1EE047AB4EEE77AA8
:103FF000F1EE10FA03D5002323802B80F8BDDFED0E
:10400000266AC7EE267AF2EE006A67EEA67AF3EE2B
:104010000E6AB4EEE67AF1EE10FA30D5F7EE086AE1
:1040200067EEA67A06EE907AF8EEE66A6FF07F0207
:1040300066EEA76A86EE876A06EE906AF8EEE66A92
:10404000BDEEC66A66EEA77A16EE103AC7EE876A2C
:104050002380FDEEE66A16EE903A2B80B4F900302C
:104060007F2BA8BF7F239342B8BF13462380B5F9A7
:10407000003093420DDB7F2BA8BF7F23BDE7F3EE1B
:10408000046AF4EE667AF1EE10FAC8BFF0EE667AD2
:10409000C8E72A80B2E700BF0000704230B50B7954
:1040A00085B004460D464BBBB1F90820B1F90610A6
:1040B000FFF7F0FE0DF10E030093B5F90820B5F9F6
:1040C000061003AB2046FFF777FFBDF90C10BDF9D2
:1040D0000E2051EA020302D02046FFF739FF0121EA
:1040E0002046FFF755FFEB88A4F84C332B89A4F842
:1040F0004E33002384F8503305B030BD012BFBD183
:104100000021FFF745FF4FF0FF33C4F84C33F0E7D1
:1041100030B585B00DF10E030093B1F90C2003AB5F
:104120000D46B1F90A100446FFF746FFBDF90C1021
:10413000BDF90E2051EA020302D02046FFF708FF26
:104140006B89A4F84C33AB89A4F84E33012384F86F
:10415000503305B030BDFFF7F9B910B50446FFF78D
:10416000B7FE234604F1500293F85B1319B91033DC
:104170009342F9D110BD201DBDE810400CF07CBD6C
:104180000DF049BDF02070474FF4A0707047292012
:10419000FEF76CBC2820FEF769BC08B5FEF73AFCB8
:1041A000CA20FEF763FCC320FEF744FC0820FEF79C
:1041B00041FC5020FEF73EFCCF20FEF757FC0020CC
:1041C000FEF738FCC120FEF735FC3020FEF732FC4C
:1041D000ED20FEF74BFC6420FEF72CFC0320FEF7DD
:1041E00029FC1220FEF726FC8120FEF723FCE820A4
:1041F000FEF73CFC8520FEF71DFC0020FEF71AFCB4
:104200007820FEF717FCCB20FEF730FC3920FEF7B4
:1042100011FC2C20FEF70EFC0020FEF70BFC3420D6
:10422000FEF708FC0220FEF705FCF720FEF71EFC57
:104230002020FEF7FFFBEA20FEF718FC0020FEF727
:10424000F9FB0020FEF7F6FBB120FEF70FFC002083
:10425000FEF7F0FB1B20FEF7EDFBB620FEF706FC99
:104260000A20FEF7E7FBA220FEF7E4FBC020FEF7E2
:10427000FDFB1020FEF7DEFBC120FEF7F7FB102050
:10428000FEF7D8FBC520FEF7F1FB4520FEF7D2FB79
:104290001520FEF7CFFBC720FEF7E8FB9020FEF7C6
:1042A000C9FB3620FEF7E2FBC820FEF7C3FBF22075
:1042B000FEF7DCFB0020FEF7BDFBB020FEF7D6FBCF
:1042C000C220FEF7B7FBB620FEF7D0FB0A20FEF7B0
:1042D000B1FBA720FEF7AEFB2720FEF7ABFB0420C7
:1042E000FEF7A8FB2A20FEF7C1FB0020FEF7A2FB89
:1042F0000020FEF79FFB0020FEF79CFBEF20FEF75F
:1043000099FB2B20FEF7B2FB0020FEF793FB002069
:10431000FEF790FB0120FEF78DFB3F20FEF78AFBA6
:10432000F620FEF7A3FB0120FEF784FB0020FEF73A
:1043300081FB0620FEF77EFB2C20FEF797FBC820B2
:10434000FEF7E2FB2620FEF791FB0120FEF772FB51
:10435000E020FEF78BFB0F20FEF76CFB2920FEF719
:1043600069FB2420FEF766FB0C20FEF763FB0E20A2
:10437000FEF760FB0920FEF75DFB4E20FEF75AFBBF
:104380007820FEF757FB3C20FEF754FB0920FEF790
:1043900051FB1320FEF74EFB0520FEF74BFB1720C9
:1043A000FEF748FB1120FEF745FB0020FEF742FB1D
:1043B000E120FEF75BFB0020FEF73CFB1620FEF73A
:1043C00039FB1B20FEF736FB0420FEF733FB1120E0
:1043D000FEF730FB0720FEF72DFB3120FEF72AFB0E
:1043E0003320FEF727FB4220FEF724FB0520FEF7D3
:1043F00021FB0C20FEF71EFB0A20FEF71BFB2820EA
:10440000FEF718FB2F20FEF715FB0F20FEF712FB1F
:104410001120FEF72BFBC820FEF776FB2920FEF7C4
:1044200025FBBDE808402C20FEF720BB08B5FEF7B1
:10443000F1FA0321D320FEF735FB80B208BD10B599
:10444000C4B2022203212046FEF79AFA0A20FEF7A0
:10445000DFFA204600220321FEF792FABDE8104061
:104460000220FEF7D5BA38B50446E4B2FEF786FA64
:1044700000212046FEF79CFA012105462046FEF762
:1044800097FA40EA052080B238BD10B5C4B2402189
:104490002046FEF78DFA030607D54C212046FEF78D
:1044A00087FA003818BF012010BD01224B21204699
:1044B000FEF766FA204600224B21FEF761FA002043
:1044C000F2E773B50423C4B20E461546D7210DEBAF
:1044D00003022046FEF786FA019B1BBA1A0DC3F3AE
:1044E0000B23328020462B8001224B21FEF748FA15
:1044F00000224B212046FEF743FA02B070BD0000B7
:1045000010B50A4A1378984204460DD05178884273
:104510000AD00BB141B90123D454FEF72FFA20463B
:10452000BDE81040FFF78BBF10BD00BF682600201C
:1045300010B5C4B209212046FEF73AFA40F0010254
:10454000D2B220460921BDE81040FEF719BA10B5D5
:10455000C4B209212046FEF72BFA092100F0FE0221
:104560002046BDE81040FEF70BBA38B5C4B20D4680
:1045700020460A21FEF71CFA40EA0502D2B2204684
:104580000A21BDE83840FEF7FBB910B50446FEF736
:10459000F6F920461F21FFF7E8FF2046BDE810404E
:1045A000FFF7C6BF38B5C4B20D4620460A21FEF754
:1045B000FFF920EA0502D2B220460A21BDE83840C0
:1045C000FEF7DEB910B50446FFF7C1FF20461F21F4
:1045D000BDE81040FFF7E6BF10B5C0B20C460B2196
:1045E000FEF7E6F9204010BD1F21FFF7F5BF0A4690
:1045F000C0B20B21FEF7C4B91F21FFF7F8BF38B5D1
:10460000C4B20D4620461721FEF7D2F920EA050272
:10461000D2B220461721BDE83840FEF7B1B970B5D7
:10462000C4B2064604212046FEF7C2F9042100F078
:10463000FB0205462046FEF7A3F93046F021FFF7BE
:10464000DEFF05F0F80220460421FEF799F9492221
:1046500020212046FEF794F90220FEF7D9F92046E2
:1046600001222121FEF78CF920469A224121FEF7F2
:1046700087F9204601224A21FEF782F920460122CD
:104680004B21FEF77DF9204600224B21FEF778F9F9
:10469000204601225621FEF773F9204601225821B7
:1046A000FEF76EF9204601224021FEF769F9204607
:1046B000FF220B21FEF764F9BDE870400220FEF7EF
:1046C000A7B90000054BD3F8882042F47002C3F864
:1046D00088204FF000629A60704700BF00ED00E054
:1046E00008B50B4B1A6842F400721A601A6842F45B
:1046F00080621A601A6842F480721A60032000F027
:104700002FF80020FEF742FCFEF70CFA002008BD4F
:10471000003C0240034A044B11681B780B441360B1
:10472000704700BF6C260020C8000020014B1868AD
:10473000704700BF6C26002038B50446FFF7F6FF2F
:10474000631C1CBF054B1B78054618BFE418FFF718
:10475000EDFF431BA342FAD338BD00BFC8000020C1
:104760000749CA6822F4E0620302120403F4E0631A
:10477000120C134343F0BF6343F40033CB60704724
:1047800000ED00E0164B30B5DC68C4F30224C4F140
:104790000703251D042B28BF0423062D4FF0FF35EA
:1047A0008CBF033C002405FA03F321EA0303A54070
:1047B00022EA0502A340002843EA0203ACBF00F14D
:1047C0006040084A4FEA0313B8BF00F00F00DBB2A5
:1047D000AABF00F56140135480F8003330BD00BF1C
:1047E00000ED00E014ED00E0002807DB044A410979
:1047F000012300F01F00834042F82130704700BFC2
:1048000000E100E010B5044650B1437903F0FF0227
:1048100013B90271FEF7A6F901236371002010BDE0
:104820000120FCE710B5044620B390F8393003F0BE
:10483000FF021BB980F83820FEF7ACF9022384F898
:104840003930236861681A6822F440320A431A60DA
:104850005A6BA16822F007020A435A631A6CE16896
:104860006FF30D020A431A6400200123E06384F809
:10487000393010BD0120FCE770477047036870B500
:104880005E681D68F207044614D5E90512D51A685A
:1048900022F480721A60C26B42F00102C2630122EC
:1048A0009A60042380F83930002380F83830436957
:1048B00003B19847B20616D5AB0414D523681A681D
:1048C00022F400521A6020229A60E36B43F0020344
:1048D000E363042384F83930002384F838306369B3
:1048E0000BB120469847300716D5290514D5236803
:1048F0001A6822F400621A6008229A60E36B43F09F
:104900000403E363042384F83930002384F8383047
:1049100063690BB12046984772070BD56B0509D523
:1049200023681A6822F480621A6004229A60204682
:10493000FFF7A2FFB00714D5A90512D523681A689E
:1049400022F400721A6002229A60E36BE36301238F
:1049500084F83930002384F8383023690BB12046BD
:104960009847F20613D5EB0411D523681A6822F490
:1049700080521A6010229A60E36BE363012384F88B
:104980003930002384F838302046FFF776FF70BDB9
:10499000F0B590F83820012A03464FF002002BD0E2
:1049A000012283F8382083F8390003EB0112D2E9A1
:1049B0000740556A174F44EA0040093C012C9CBF50
:1049C00005F07F4210434FEA01161A6888BF40EA9B
:1049D000056091B9516A394001435162012C9969CE
:1049E000916103D8596A21F07F4191620122002030
:1049F00083F8392083F83800F0BDD169394001438C
:104A0000D1619919012C896911619CBF25F07F45FD
:104A10001562EBE7F0FFFC002DE9F74FDFF8BC91E2
:104A20006C4A00230D6801249C4004EA0506AC434F
:104A300040F0B7804D68032705F003044FEA4308B0
:104A400007FA08FC671E012F6FEA0C0C34D8876840
:104A500007EA0C0ECF6807FA08F747EA0E078760E7
:104A6000476827EA060EC5F300179F4047EA0E077E
:104A70004760C76807EA0C0E8F6807FA08F747EA2D
:104A80000E07022CC76019D14FEAD30A00EB8A0A3D
:104A900003F0070BDAF820704FEA8B0B4FF00F0E84
:104AA0000EFA0BFE27EA0E0E0F6907FA0BF747EA1C
:104AB0000E07CAF8207001E0032CDAD1076804FA67
:104AC00008F407EA0C073C4315F4403F046068D043
:104AD00000240194D9F8444044F48044C9F8444087
:104AE000D9F8444023F0030707F1804704F48044D9
:104AF00007F59C37019403F0030C019CD7F808E0FC
:104B00004FEA8C0C0F2404FA0CF42EEA040E324CFB
:104B1000A0424DD004F58064A0424BD004F58064DF
:104B2000A04249D004F58064A04247D004F58064D7
:104B3000A04245D004F58064A04243D004F58064CF
:104B4000A04241D004F58064A0423FD004F58064C7
:104B5000A0423DD004F58064A04214BF0A24092479
:104B600004FA0CF444EA0E04BC609468F74315F4AC
:104B7000801F0CBF3C4034439460D46815F4001F80
:104B80000CBF3C403443D460546815F4003F0CBF64
:104B90003C40344354601468ED0354BF3C403443FC
:104BA00014600133102B7FF43DAF03B0BDE8F08FEC
:104BB0000024D5E70124D3E70224D1E70324CFE77B
:104BC0000424CDE70524CBE70624C9E70724C7E77B
:104BD0000824C5E7003C01400000024000380240C4
:104BE0000369194214BF0120002070470AB1816196
:104BF00070470904FBE7436901EA030221EA030164
:104C000041EA02418161704701684B6913F4806396
:104C10004FF0000210D06FF480634B6120230263D9
:104C200080F83D3080F83E20036C80F83C2043F053
:104C30000403036401207047184670472DE9F846C5
:104C400006460F4691461D464FEA114A3368BAF1AF
:104C5000010F0CBF5C699C6927EA0404A4B2B4FA92
:104C600084F46409A14501D0002025E06A1CEED03F
:104C7000FFF75CFD089BC01AA84201D8002DE5D1C2
:104C80003368BAF1010F0CBF5B699B6927EA030324
:104C90009BB2B3FA83F35B099945D7D10023202255
:104CA000336386F83D2086F83E30326C86F83C301F
:104CB00042F0200232640120BDE8F8862DE9F0417F
:104CC00004460F46164698462568686927EA00009C
:104CD00080B2C0B16B695A0517D52B6843F40073D5
:104CE0002B606FF480636B6120220023236384F8C0
:104CF0003D2084F83E30236C43F0040323640023FA
:104D000084F83C300120BDE8F081731CDDD0FFF752
:104D10000DFDA0EB0800B04201D8002ED4D12368CD
:104D20005A6927EA020292B2002ACDD0002320223B
:104D3000236384F83D2084F83E30236C1343DDE781
:104D400070B504460D46164623685B691B0601D5FF
:104D500000201EE02046FFF757FFC8B96A1CF3D0B9
:104D6000FFF7E4FC801BA84201D8002DECD123689A
:104D70005B6913F08003E7D12022236384F83D2090
:104D800084F83E30226C84F83C3042F020022264E9
:104D9000012070BD2DE9F0431546026885B0DDE9BC
:104DA0000C789946136843F4807313600E463B46B3
:104DB000CDF8008000224FF001110446FFF73EFFBE
:104DC000236838B11B68DB0502D54FF400732364F8
:104DD000032620E006F0FE061E611A4943463A46C5
:104DE0002046FFF76BFFA8B9236803905A69039226
:104DF0009B690393424639462046039BFFF7A0FF79
:104E0000064660B1236C042B01BF2268136843F48B
:104E1000007313600126304605B0BDE8F083B9F198
:104E2000010F236802D1EDB21D61F4E72A0A1A616D
:104E3000394642462046FFF783FF0028E2D1236827
:104E4000F1E700BF020001002DE9FF479A46036821
:104E500015461A6842F480621A601A68DDE90C7817
:104E600042F480721A600E463B46CDF80080002264
:104E70004FF001110446FFF7E1FE236838B11B68CB
:104E8000DB0544BF4FF400732364032021E05FFA85
:104E900086F906F0FE061E612B4943463A46204637
:104EA000FFF70CFFA0B9236803905A6903929B692E
:104EB0000393424639462046039BFFF741FF58B112
:104EC000236C042B01BF2268136843F40073136042
:104ED000012004B0BDE8F087BAF1010F23681AD1B0
:104EE000EDB242461D6139462046FFF729FF0246D2
:104EF0000028E5D121680B6843F480730B602046DD
:104F0000CDF800803B464FF00111FFF797FE226875
:104F100060B11368B4E72A0A1A613946424620464E
:104F2000FFF70EFF0028CBD12368D9E749F0010332
:104F30001361054943463A462046FFF7BFFE003855
:104F400018BF0120C5E700BF0200010070B504468C
:104F50000D46164623685B695B0701D500201EE0FD
:104F60002046FFF751FEC8B96A1CF3D0FFF7DEFBFD
:104F7000801BA84201D8002DECD123685B6913F097
:104F80000403E7D12022236384F83D2084F83E30D7
:104F9000226C84F83C3042F020022264012070BD73
:104FA00070B504460D46164621684B6913F0400360
:104FB00001D0002011E04A69D2060FD56FF010022F
:104FC0004A612022236384F83D2084F83E30236C1C
:104FD0002364002384F83C30012070BDFFF7A6FB5A
:104FE000801BA84201D8002DDED123685B6913F035
:104FF0004003D9D12022236384F83D2084F83E3039
:10500000236C1343E4E7000070B5044608B901209F
:1050100070BD90F83D3003F0FF021BB980F83C20D2
:10502000FDF7DAFD242384F83D3023681A6822F066
:1050300001021A601A6842F400421A601A6822F4E7
:1050400000421A6001F09EFB3F4B65689D4294BF91
:105050003E4B3F4B98428CBF00230123002BD6D1FF
:105060002268394E51683B4BB0FBF3F321F03F010E
:105070001943B542516088BF4FF49676116A88BFD4
:10508000734321F03F0184BF4FF47A76B3FBF6F30C
:1050900001330B431362D169431E2B4821F44F4166
:1050A000854221F0FF0132D86D0040F6FC70B3FB61
:1050B000F5F30133034242D0C3F30B031943D1612B
:1050C000D4E907301168034321F0C0010B4313609A
:1050D0009168D4E9030321F40341034321F0FF0164
:1050E0000B439360D4E90530D168034321F0FF01FD
:1050F0000B43D360136843F00103136000202023A7
:10510000206484F83D30206384F83E0080E7A06886
:1051100050B905EB4505B3FBF5F30133C3F30B03BE
:105120007BB143F40043C9E719206843B3FBF0F3B4
:105130000133C3F30B0323B143F44043BEE704231D
:10514000BCE70123BAE700BFA08601007F841E00F0
:10515000FF083D0040420F002DE9F7430446994601
:105160000C9E0F469046FFF7E1FA94F83D30202B55
:10517000054603D0022003B0BDE8F08300903C490F
:10518000192301222046FFF759FD0028F2D194F897
:105190003C30012BEED02068012384F83C300368BA
:1051A000D9075EBF036843F001030360036823F47B
:1051B00000630360212384F83D30402384F83E30AF
:1051C000002323640A9B6362BDF82C306385638DE2
:1051D0002385284BE3624246CDE900654B463946BC
:1051E0002046FFF7D7FD00282AD00120C3E7FFF7AC
:1051F000A7FD40B1236C042B01BF2268136843F460
:1052000000731360F1E7636A27681A4612F8011BFE
:1052100039616262628D218D013A92B262857A694A
:10522000481E80B2520720850AD548B15A783A61A3
:1052300002336362638D013B02399BB22185638532
:10524000238D2A4631462046002BD0D1FFF77EFE23
:105250000028CFD12268136843F400731360202321
:1052600084F83D3084F83C0084F83E0083E700BFBA
:10527000020010000000FFFF2DE9F043044687B054
:105280009946109F0D469046FFF750FA94F83D302E
:10529000202B064604D00225284607B0BDE8F0833F
:1052A00000907A49192301222046FFF7C7FC002805
:1052B000F1D194F83C30012BEDD02068012384F823
:1052C0003C300368DB075EBF036843F00103036003
:1052D000036823F400630360222384F83D304023F5
:1052E00084F83E30002323640E9B6362BDF83C309B
:1052F0006385638D2385664BE3622946CDE900769D
:105300004B4642462046FFF79FFD054608B1012562
:10531000C2E7228D2368B2B902905A6902929A6953
:105320000292029A1A6842F400721A60DFF86481ED
:10533000238D002B2CD1202284F83D2084F83C3092
:1053400084F83E30A8E7012A0AD11A6822F4806264
:105350001A6003905A6903929A690392039AE1E7EB
:10536000022A0ED11A6822F480621A601A6842F486
:1053700000621A6004905A6904929B690493049B2A
:10538000D4E705905A6905929B690593059BCDE783
:10539000032B56D8012B15D1324639462046FFF74C
:1053A000FFFD0028B3D123681A69636A1A70636A23
:1053B00001336362238D013B2385638D013B9BB2E7
:1053C0006385B5E7022B00963B464FF0000241464D
:1053D000204619D1FFF732FC002898D123681A68BB
:1053E00042F400721A601A69636A1A70626A531C86
:1053F0006362238D013B2385638D013B9BB26385F3
:1054000023681B695370D2E7FFF718FC0246002897
:105410007FF47DAF2368196821F4806119601969F0
:10542000636A1970636A01336362238D013B2385CC
:10543000638D013B9BB26385414600963B46204607
:10544000C8E7324639462046FFF7AAFD00287FF418
:105450005EAF23681A69636A1A70628D616A013AE5
:1054600092B24B1C628522686362238D5069013BB6
:105470009BB2400723857FF55BAF032B02BF136808
:1054800023F48063136013694B7090E702001000EF
:105490000000FFFF0400010010B590F83D30202B04
:1054A000DCB216D1242380F83D3003681A6822F05C
:1054B00001021A605A6A22F010025A625A6A1143B3
:1054C00059621A6842F001021A6080F83D400020DB
:1054D00010BD0220FCE730B590F83D30202BDCB247
:1054E00016D10268242380F83D30136823F00103AD
:1054F0001360556A4FF6F0732B400B439BB2536217
:10550000136843F00103136080F83D40002030BD74
:105510000220FCE70068D1F800C0D2018432831871
:105520002DE9F043C6685D684C68D1F8189005F421
:1055300070455D60C5680CF10107C5F30B45C6F306
:105540000B4626443D4445EA06455D60C668CD6885
:10555000C6F30A062E449D6805F470459D60C76831
:105560008D68C7F30A0701353D4445EA06459D604D
:105570001D690E6925F007051D614FF0000E1E61C3
:1055800091F832709D6991F83180C3F818E091F874
:10559000305045EA096545EA082545EA07459D6119
:1055A0005D6925F0FF055D614D695D61DD6925F48B
:1055B000E06525F00705DD61D1E907573D43DD6171
:1055C0009D6A4D6AC3F828E0072E9D629CBF0E4D70
:1055D000AE5DDD6A05F0E025DD6288BF01268D6ADB
:1055E000C96AA4EB0C0474437543033444EA0544CC
:1055F000DC621C6B6FF30A041C631963835843F06D
:1056000001038350BDE8F083104F020838B504460B
:10561000002863D090F8A13003F0FF021BB980F896
:10562000A020FDF735FB022384F8A13023689A6996
:1056300022F070429A61D4E901200243E06899693E
:105640000243206902430A439A619A6824496069C7
:105650000A409A609A6842EA0042A06902439A604E
:10566000DA68E0690A40DA60DA6842EA0042206AF1
:105670000243DA601A69606A0A401A611A6942EAEA
:105680000042A06A02431A615A690A405A615A6983
:10569000E16A42EA0142216B0A435A61DA6A94F8EC
:1056A000350094F8361002F07F42DA62DD6A94F831
:1056B00034202A4342EA002242EA0142DA625A6B6B
:1056C00042F006025A639A6942F001029A61002090
:1056D0000123C4F8A40084F8A13038BD0120FCE700
:1056E00000F800F070477047036870B59E6B5D6B03
:1056F0007207044614D5690712D55A6B22F00402CA
:105700005A630422DA63D0F8A43043F00103C0F8EE
:10571000A430002380F8A12080F8A030FFF7E2FF3A
:10572000B20716D5AB0714D523685A6B22F00202D4
:105730005A630222DA63D4F8A4301343C4F8A430C5
:10574000042384F8A130002384F8A0302046FFF71A
:10575000C9FFF00710D5E9070ED523685A6B22F070
:1057600001025A630122DA63002384F8A12084F83D
:10577000A0302046FCF714FC320711D52B070FD5BB
:1057800023685A6B22F008025A630822DA63012365
:1057900084F8A130002384F8A0302046FFF7A3FF4F
:1057A00070BD2DE9F04190F8A030012B06460F4660
:1057B00094464FF002001FD04FF0010886F8A080F9
:1057C00086F8A10034240D4604FB02640FCD383462
:1057D0000FC40FCD0FC40FCD0FC42B68236030460C
:1057E00062463946FFF796FE33680020C3F82480EE
:1057F00086F8A18086F8A000BDE8F08190F8A0208E
:10580000012A03464FF0020012D01A6883F8A10063
:10581000506B20F00100506306480164516B41F069
:10582000010151630020012283F8A12083F8A00028
:10583000704700BF00680140F7B5044610B390F808
:105840009534056803F0FF021BB980F89424FCF737
:1058500079FC0323B5F1A04F84F8953404BF0023ED
:10586000A371206801F080FF237C8DF80030251D96
:1058700095E80E00206801F0BCFE014630B102231D
:1058800084F895340125284603B0F0BD206801F066
:1058900071FF0028F3D1267904F114030127024691
:1058A000C1B28E4203F124031BD8002104F5157305
:1058B0000A46C8B2864203F1240320D8237C8DF81F
:1058C000003095E80E00206801F0D0FF0546002862
:1058D000D5D101236074206884F8953402F00AFB66
:1058E000D1E723F80A0C43E9072203F8237C03F8E5
:1058F000241C03F8202C43F8142C0130D0E743E992
:10590000072203F8232C03F8240C03F8202C43F877
:10591000142C0131CDE710B50446006894F8943496
:10592000012B15D0012384F89434C3685B0606D597
:10593000637B012B02BF836B43F48033836301F0ED
:105940000DFF206802F0C8FA002084F8940410BD0E
:105950000220FCE710B590F89424012A04460AD0EE
:10596000012280F894244174006802F0A5FA002016
:1059700084F8940410BD0220FCE770B501F00F0616
:1059800006EBC60411F0800F05464FEA84044FF081
:10599000240020D000FB065004F114010124294406
:1059A0004475C2F30A028A604A780E700B7102B124
:1059B0004E83022B04BF00234B7195F89434012BC6
:1059C00012D00123286885F8943402F014F80020DE
:1059D00085F8940470BD00FB065004F51571002491
:1059E000294480F85542DCE70220F3E710B504466D
:1059F00001F00F0000EBC00311F0800F4FEA8303AA
:105A00004FF0240215D002FB004203F114010123E0
:105A100021445375087094F89434012B12D001235B
:105A2000206884F8943402F025F8002084F8940467
:105A300010BD02FB004203F515710023214482F8DA
:105A40005532E7E70220F3E770B501F00F05242493
:105A500004FB050104FB0504C4E998230023C4F8F2
:105A6000683284F8553284F85452164682790068B8
:105A7000012A01F5157108BFC4F8706202F0A6F89A
:105A8000002070BD70B501F00F05242404FB050152
:105A900004FB0504C4E908230023A3620123637502
:105AA00025751646827900689A4201F1140108BFF3
:105AB000266302F08BF8002070BD38B5037901F041
:105AC0000F05AB4204462BD311F0800F4FF024009A
:105AD0001DD000FB054100FB054001231431437537
