:020000040800F2
:1000000000000320890C00087D2C00087F2C0008CC
:10001000812C0008832C0008852C000800000000BB
:10002000000000000000000000000000D17D00087A
:10003000872C000800000000617E0008E1760008BF
:10004000D90C0008D90C0008D90C0008D90C0008FC
:10005000D90C0008D90C0008D90C0008D90C0008EC
:10006000D90C0008D90C0008D90C0008D90C0008DC
:10007000D90C0008D90C0008D90C0008D90C0008CC
:10008000D90C0008D90C0008D90C0008D90C0008BC
:10009000D90C0008D90C0008D90C0008D90C0008AC
:1000A000D90C0008D90C0008D90C0008D90C00089C
:1000B000D90C0008D90C0008D90C0008D90C00088C
:1000C000D90C0008D90C0008D90C0008D90C00087C
:1000D000D90C0008D90C0008D90C0008D90C00086C
:1000E000D90C0008D90C0008D90C0008D90C00085C
:1000F000D90C0008D90C0008D90C0008D90C00084C
:10010000D90C0008D90C0008D90C0008D90C00083B
:10011000D90C0008D90C0008892C0008D90C00085B
:10012000D90C0008D90C0008D90C0008D90C00081B
:10013000D90C0008D90C0008D90C0008D90C00080B
:10014000D90C0008D90C0008D90C0008D90C0008FB
:10015000D90C0008D90C0008D90C0008D90C0008EB
:10016000D90C0008D90C0008D90C0008D90C0008DB
:10017000D90C0008952C0008D90C000800000000DC
:10018000D90C0008D90C0008D90C0008D90C0008BB
:10019000D90C0008D90C0008D90C0008D90C0008AB
:0C01A000A12C0008D90C0008AD2C0008B0
:1001B00010B5054C237833B9044B13B10448AFF3A1
:1001C00000800123237010BD800400200000000087
:1001D000D03C020808B5034B1BB103490348AFF3F9
:1001E000008008BD0000000084040020D03C02080C
:1001F000034613F8012B002AFBD1181A0138704767
:1002000001F0FF01102A2BDB10F0070F08D010F8C7
:10021000013B013A8B422DD010F0070F42B3F6D1CB
:10022000F0B441EA012141EA014122F007047FF0E4
:1002300000070023F0E80256083C85EA010586EA3B
:10024000010685FA47F5A3FA87F586FA47F6A5FA77
:1002500087F68EB9EED1F0BC01F0FF0102F0070283
:1002600032B110F8013B013A83EA010313B1F8D12E
:100270000020704701387047002D06BF354603380F
:10028000073815F0010F07D1013015F4807F02BF48
:10029000013015F4C03F0130F0BC0138704700BF99
:1002A00070B54FF0FF0C4CF4E06C1CEA11541DBF0C
:1002B0001CEA135594EA0C0F95EA0C0F00F0DEF8D7
:1002C0002C4481EA030621EA4C5123EA4C5350EABC
:1002D000013518BF52EA033541F4801143F480130D
:1002E00038D0A0FB02CE4FF00005E1FB02E506F09E
:1002F0000042E0FB03E54FF00006E1FB03569CF0F3
:10030000000F18BF4EF0010EA4F1FF04B6F5007FF8
:1003100064F5407404D25FEA4E0E6D4146EB06066A
:1003200042EAC62141EA55514FEAC52040EA5E50F3
:100330004FEACE2EB4F1FD0C88BFBCF5E06F1ED89D
:10034000BEF1004F08BF5FEA500E50F1000041EBD4
:10035000045170BD06F0004646EA010140EA020081
:1003600081EA0301B4EB5C04C2BFD4EB0C0541EAA3
:10037000045170BD41F480114FF0000E013C00F3B8
:10038000AB8014F1360FDEBF002001F0004170BDDC
:10039000C4F10004203C35DA0C341BDC04F11404F5
:1003A000C4F1200500FA05F320FA04F001FA05F281
:1003B00040EA020001F0004221F0004110EBD3704E
:1003C00021FA04F642EB06015EEA430E08BF20EA7A
:1003D000D37070BDC4F10C04C4F1200500FA04F31D
:1003E00020FA05F001FA04F240EA020001F00041AF
:1003F00010EBD37041F100015EEA430E08BF20EA22
:10040000D37070BDC4F1200500FA05F24EEA020E69
:1004100020FA04F301FA05F243EA020321FA04F098
:1004200001F0004121FA04F220EA020000EBD3704F
:100430005EEA430E08BF20EAD37070BD94F0000F4F
:100440000FD101F00046400041EB010111F4801F83
:1004500008BF013CF7D041EA060195F0000F18BF34
:10046000704703F00046520043EB030313F4801F70
:1004700008BF013DF7D043EA0603704794EA0C0F2A
:100480000CEA135518BF95EA0C0F0CD050EA410640
:1004900018BF52EA4306D1D181EA030101F00041BD
:1004A0004FF0000070BD50EA410606BF10461946E5
:1004B00052EA430619D094EA0C0F02D150EA0136F1
:1004C00013D195EA0C0F05D152EA03361CBF104632
:1004D00019460AD181EA030101F0004141F0FE41D1
:1004E00041F470014FF0000070BD41F0FE4141F455
:1004F000780170BD81F0004102E000BF83F000434D
:1005000030B54FEA41044FEA430594EA050F08BFAE
:1005100090EA020F1FBF54EA000C55EA020C7FEA72
:10052000645C7FEA655C00F0E2804FEA5454D4EBEF
:100530005555B8BF6D420CDD2C4480EA020281EAB9
:10054000030382EA000083EA010180EA020281EAF1
:100550000303362D88BF30BD11F0004F4FEA013143
:100560004FF4801C4CEA113102D0404261EB410152
:1005700013F0004F4FEA03334CEA133302D05242D8
:1005800063EB430394EA050F00F0A780A4F1010494
:10059000D5F1200E0DDB02FA0EFC22FA05F28018CE
:1005A00041F1000103FA0EF2801843FA05F35941B4
:1005B0000EE0A5F120050EF1200E012A03FA0EFC33
:1005C00028BF4CF0020C43FA05F3C01851EBE3715D
:1005D00001F0004507D54FF0000EDCF1000C7EEB7A
:1005E00000006EEB0101B1F5801F1BD3B1F5001FB8
:1005F0000CD349085FEA30004FEA3C0C04F10104D7
:100600004FEA445212F5800F80F09A80BCF1004FFF
:1006100008BF5FEA500C50F1000041EB045141EA81
:10062000050130BD5FEA4C0C404141EB0101013C4A
:1006300028BFB1F5801FE9D291F0000F04BF014639
:100640000020B1FA81F308BF2033A3F10B03B3F10B
:1006500020020CDA0C3208DD02F1140CC2F10C029B
:1006600001FA0CF021FA02F10CE002F11402D8BFF9
:10067000C2F1200C01FA02F120FA0CFCDCBF41EAC5
:100680000C019040E41AA2BF01EB0451294330BD94
:100690006FEA04041F3C1CDA0C340EDC04F1140471
:1006A000C4F1200220FA04F001FA02F340EA030048
:1006B00021FA04F345EA030130BDC4F10C04C4F18E
:1006C000200220FA02F001FA04F340EA030029466E
:1006D00030BD21FA04F0294630BD94F0000F83F4B8
:1006E000801306BF81F480110134013D4EE77FEA9B
:1006F000645C18BF7FEA655C29D094EA050F08BFE7
:1007000090EA020F05D054EA000C04BF19461046C7
:1007100030BD91EA030F1EBF0021002030BD5FEA0B
:10072000545C05D14000494128BF41F0004130BD33
:1007300014F580043CBF01F5801130BD01F0004587
:1007400045F0FE4141F470014FF0000030BD7FEAFA
:10075000645C1ABF194610467FEA655C1CBF0B46F5
:10076000024650EA013406BF52EA033591EA030F0C
:1007700041F4002130BD00BF90F0000F04BF002104
:10078000704730B54FF4806404F132044FF0000537
:100790004FF0000150E700BF90F0000F04BF0021B0
:1007A000704730B54FF4806404F1320410F0004516
:1007B00048BF40424FF000013EE700BF42004FEA11
:1007C000E2014FEA31014FEA02701FBF12F07F438E
:1007D00093F07F4F81F06051704732F07F4208BF45
:1007E000704793F07F4F04BF41F40021704730B54C
:1007F0004FF4607401F0004521F000411CE700BF98
:1008000050EA010208BF704730B54FF000050AE01A
:1008100050EA010208BF704730B511F0004502D51B
:10082000404261EB41014FF4806404F132045FEA1D
:10083000915C3FF4D8AE4FF003025FEADC0C18BFC6
:1008400003325FEADC0C18BF033202EBDC02C2F1B8
:10085000200300FA03FC20FA02F001FA03FE40EA4A
:100860000E0021FA02F11444BDE600BF4FEA410236
:1008700012F5001215D211D56FF47873B3EB6252F2
:1008800012D94FEAC12343F0004343EA505311F019
:10089000004F23FA02F018BF404270474FF00000AB
:1008A000704750EA013005D111F0004008BF6FF0E9
:1008B000004070474FF00000704700BF7BB972B92D
:1008C0000029BEBF00204FF0004106E008BF00280D
:1008D0001CBF6FF000414FF0FF3000F0D3B9ADF115
:1008E000080C6DE904CE002909DB002B1ADB00F0AF
:1008F0004DF8DDF804E0DDE9022304B07047404222
:1009000061EB4101002B1BDB00F040F8DDF804E057
:10091000DDE9022304B0404261EB4101524263EB46
:1009200043037047524263EB430300F02FF8DDF8B6
:1009300004E0DDE9022304B0404261EB410170476D
:10094000524263EB430300F021F8DDF804E0DDE9F7
:10095000022304B0524263EB4303704753B94AB9D0
:10096000002908BF00281CBF4FF0FF314FF0FF30B7
:1009700000F088B9ADF1080C6DE904CE00F006F87E
:10098000DDF804E0DDE9022304B070472DE9F0470B
:10099000089D8E4604468846002B4AD18A42174657
:1009A00062D9B2FA82F64EB1C6F1200301FA06F816
:1009B00020FA03F3B74043EA0808B4404FEA174E61
:1009C0001FFA87FCB8FBFEF1230C0EFB118843EAEB
:1009D000084301FB0CF29A4209D9FB1801F1FF30E0
:1009E00080F0EA809A4240F2E78002393B449A1A4A
:1009F000A3B2B2FBFEF00EFB102243EA024300FB5F
:100A00000CFC9C4509D9FB1800F1FF3280F0D68020
:100A10009C4540F2D3803B44023840EA0140A3EBBE
:100A20000C0300211DB1F3400022C5E90032BDE8EE
:100A3000F0878B4205D90DB1C5E9000100210846B8
:100A4000F5E7B3FA83F1002946D1734502D3824218
:100A500000F20581841A6EEB030201209046002DFE
:100A6000E5D0C5E90048E2E7002A00F09080B2FA3C
:100A700082F6002E40F0A4808A1A030C4FEA174E2B
:100A800080B2BCB20121B2FBFEFC0EFB1C2243EA89
:100A9000024304FB0CF29A4207D9FB180CF1FF3811
:100AA00002D29A4200F2E080C4469B1AB3FBFEF2E7
:100AB0000EFB123340EA034302FB04F49C4207D9C5
:100AC000FB1802F1FF3002D29C4200F2CA800246BB
:100AD0001B1B42EA0C40A5E7C1F120068B4022FA1D
:100AE00006F71F430EFA01F420FA06F32EFA06FE6B
:100AF0004FEA1749234300FA01F81FFA87FCBEFBAF
:100B0000F9F01C0C09FB10EE44EA0E4400FB0CFE4D
:100B1000A64502FA01F209D93C1900F1FF3A80F02A
:100B20009C80A64540F2998002383C44A4EB0E0418
:100B30001FFA83FEB4FBF9F309FB13444EEA0444A5
:100B400003FB0CFCA44508D93C1903F1FF3E80F0DF
:100B50008280A4457FD9023B3C4443EA0040A4EB99
:100B60000C04A0FB02EC64457346E14662D35FD0FF
:100B70005DB1B8EB030264EB090404FA06F622FA4D
:100B800001F31E43CC40C5E9006400214FE7B1FBEF
:100B9000F2FC010C41EA0E4180B240EA01423B46C0
:100BA00038463C46B846BE462026B1FBF7F1A2EBDC
:100BB000080241EA0C4166E7014618E710462CE7B7
:100BC000C6F120022EFA02F3B740B14020FA02F239
:100BD0004FEA174E0A43B3FBFEF8BCB20EFB1833C4
:100BE000110C41EA034108FB04F9B04089454FEA82
:100BF000104380B23ED9791808F1FF3C01D28945F3
:100C00001FD8A1EB0901B1FBFEF909FB04F80EFBAB
:100C1000191192B242EA0142424529D2BA1809F1A9
:100C2000FF31C4D24245C2D2A9F102013A44BEE723
:100C3000F0459DD2BEEB02036CEB070C0138E14698
:100C400096E7A7EB09094944A8F1020CB1FBFEF9AC
:100C500009FB04F8DBE773467FE7504666E7084682
:100C6000FDE63B44023A33E7ACF1020C3B441CE79F
:100C700049469CE7A1EB0901C446B1FBFEF909FB1B
:100C800004F8C4E7704700BFDFF834D0002103E068
:100C90000C4B5B58435004310B480C4B42189A42A2
:100CA000F6D30B4A02E0002342F8043B094B9A4278
:100CB000F9D303F089F822F09DFA01F075FA704734
:100CC00000000320505B0208000000207402002096
:100CD00080040020584C0120FEE7704708B500F062
:100CE000BBFDBDE8084000F03FBD00F0B7BD704758
:100CF00010B50421044621F090F8204610BD0000F4
:100D000038B50C4B0C4C18800C4B82201980636852
:100D1000984740F6110398420AD1094D23682C6088
:100D2000822098472B688220DB689847002038BDD6
:100D30000120FCE7A60400209C000020A404002061
:100D4000A80400204FF4A071F020FFF7D9BF0000E5
:100D5000F7B5394D2B6804461B69822098472080DF
:100D600000284ED02B680DF106025B6901A9822094
:100D70009847324B1B78002B4BD0BDF8062040F62D
:100D800074639A423FD9ADF80630BDF806209B1A2D
:100D90009BB20A2B42D90B22B3FBF2F3284A1288EA
:100DA000934201D9013A93B2BDF80420254840F698
:100DB000B8318A4234D8C2F571620E32016892B2FB
:100DC0000F25B2FBF5F2204D2D88AA4284BF05F114
:100DD000FF35AAB28A4215468EB22AD9921B91B229
:100DE0001A4E3768BB42BAB28CBF9A1AD21A92B264
:100DF00011440529C4BF056033600368638033680C
:100E0000A38003B0F0BDB32A9CBFB422ADF8062086
:100E1000BBE7BDF80630A3F5B473B9E70023C3E719
:100E2000C2F56D62083292B20E2A0168C8D8002558
:100E30002A46891A89B2D3E7A8040020C42E0020CC
:100E4000A4040020A0040020A60400209C0400208C
:100E500037B568460D461446FFF77AFFBDF8000027
:100E600030B1BDF802302B60BDF8043023600120A2
:100E700003B030BD032821D8DFE800F0020B1219BF
:100E80000F4B1A68B2FA82F2520904210D4803F09E
:100E90002FBA0B4B5A68B2FA82F252090821F5E7D1
:100EA000074B9A68B2FA82F252091021EEE7044B1E
:100EB000DA68B2FA82F252092021E7E7704700BFF0
:100EC000AC04002000100240032821D8DFE800F025
:100ED000020B12190F4B1A68003A18BF01220421A5
:100EE0000D4803F005BA0B4B5A68003A18BF0122AF
:100EF0000821F5E7074B9A68003A18BF0122102134
:100F0000EEE7044BDA68003A18BF01222021E7E738
:100F1000704700BFAC0400200010024003280DD829
:100F2000DFE800F00206080A0421054803F0E5B9ED
:100F30000821FAE71021F8E72021F6E7704700BF03
:100F40000010024008B5032811D8DFE800F0020ABB
:100F50000C0E0421074803F0C5F9431E58425841BE
:100F600008BD0821F6E71021F4E72021F2E7002070
:100F7000F3E700BF0010024070B5084D00240126C1
:100F8000E0B2FFF7DFFF18B12B68012B18BF2E600E
:100F90000134052C05F10405F2D170BDAC0400202C
:100FA000012380F8781080F879307047704700206E
:100FB00070470000034B4164003918BF01211970CC
:100FC000704700BF153F0120704700207047836BBA
:100FD0000BB10846184770474FF6FF7070474068DE
:100FE00003689B69184770477047704770477047A0
:100FF00010B5044600F048FD23680349D3F890304B
:101000002046BDE810401847000000D008B503682E
:101010000446D3F88430984723682046DB6F98470E
:1010200000F0ECF8236820465B6F9847292001F018
:1010300045FB00F0E3F8236820465B6F9847F8E72C
:1010400010B504460AF02AFA23682046D3F8BC30CB
:10105000BDE81040184700F0FBBC00F0FFBC00F0FA
:1010600031BD00F0D1BC00F041BD00F049BD00F041
:10107000D5BC09F033BC10B58421044620F0CDFE68
:10108000204610BD10B590F8341090F878400C4B05
:101090008C421A7809D03AB90A4A0B491488088850
:1010A00010800C8001221A7010BD002AFCD0054A65
:1010B00005491488088810800C800022F3E700BFDF
:1010C0000E3F01200A3F01200C3F012070B50D4664
:1010D000194635B9094B0A4A0A4840F2FF2121F066
:1010E000D9FDC0E90F52084B003A18BF01221A700F
:1010F0000368BDE87040D3F890301847403D0208BF
:10110000783D0208C63D0208143F012008B5094B8E
:101110001B888B4203D8084B1B88934205D9074B89
:10112000074A0848A32121F0B5FD074B1980074B5A
:101130001A8008BD0A3F01200C3F01200B3E020827
:101140006E3E0208C63D0208103F0120123F0120FA
:10115000034690F87A0018B1586803681B6818476E
:1011600070470000012108B50022084606F042FB46
:101170000A4B186028B90A4B0A4A28210A4821F06C
:1011800089FD00220421012006F0DCFB074B1860DA
:1011900018B9074B034A2C21F0E708BDC004002012
:1011A000B13E0208FA3E0208293F0208BC040020B2
:1011B0007A3F0208024B4FF0FF31186806F064BB1B
:1011C000C0040020014B186806F08ABBC004002050
:1011D000024B0021186806F057BB00BFC004002076
:1011E000FFF7F0BF03480449006800231A4606F0E1
:1011F000E4BB00BFBC0400200400002013B5084C71
:1012000000231A4601A9206806F008FC20684FF068
:10121000FF33002201A906F001FC02B010BD00BF9F
:10122000BC04002003685B6C18470120704703680A
:101230009B6A1847FEE740F2EF307047054B0360AA
:10124000054B4FF08062C3F88820BFF34F8FBFF388
:101250006F8F7047B848020800E100E010B50446FF
:101260004FF45A61FFF7EAFF204620F0D6FD2046F2
:1012700010BD000082B0002301930E4B1A6B42F4A4
:1012800000021A631A6B02F400020192019A1A69B1
:1012900042F400021A611A6922F400021A61064B34
:1012A000064A1A61064A5A61064B4FF080629A60FC
:1012B00002B0704700380240603000201515000869
:1012C0003512000800E100E008B50A2809D8DFE877
:1012D00000F006100E080808081010101000022078
:1012E00008BD054B054A0648902121F0D3FC00209B
:1012F000F6E70120F4E700BFBC3F0208D73F020831
:101300002240020838B50C46887FFFF7DDFFA58A2A
:10131000E28A164B2169586342EA05425A64628B9D
:10132000D963521B1A642568082D0ED19A611A617F
:101330005862207F0E4A42EA0062DA61E2681A626D
:101340000C4A5961D9601A6038BD0022D8611A610F
:10135000E1680A0A480902F4784200F4FC6002439A
:10136000C1F3C4010A439A63034AECE700B00240A8
:1013700009000100012302000123030008B50B2826
:101380000BD8DFE800F00612100A0A0A0A0808085B
:101390000808022008BD0520FCE7054B054A064861
:1013A0006F2121F077FC0020F4E70120F2E700BF75
:1013B000BC3F020871400208224002082DE9F041BA
:1013C00091F81D800C464046FFF7D8FFA77F0546E1
:1013D0003846FFF7D3FF06463846FFF775FFA18A68
:1013E000628B444B521A1A649A61228B521A1A6108
:1013F000E28A586342EA01425A6421696268D96309
:10140000DA602068802828D0227F0FD8202867D073
:10141000402865D004281AD0364B45EA026545F4C9
:101420000035B845DD6161D0334A44E0B0F5807FD6
:1014300004D0B0F5007FEFD1304800E0304840EAFA
:101440000262DA61E2681A625E62596132E045EA7C
:10145000026242F40032DA61F6E7A068021DDA6245
:10146000227F45EA026545F40035DD615E6259611F
:10147000017841B1012921D0224B234A23484FF45E
:101480008D7121F007FCDA69418822F47F4201392D
:1014900022F0100242EA0122DA610121154BDA69D9
:1014A00042F02002DA61DA699206FCD410229A60D6
:1014B0000029B9D0164A1A60BDE8F081B2F1FF01E7
:1014C000DA69408822F47F4200F1FF3022F01002F6
:1014D00042EA002242F0100218BF0121DA61DDE782
:1014E00045EA0262034B42F40032B4E742F20132B1
:1014F000E1E700BF00B00240012301000900020043
:101500000A000200BB400208D5400208224002083F
:1015100001230200024B1B68586803685B69184787
:10152000183F012070B5044625460A4B0C300026B2
:1015300060602672667245F8203B602229460AF0F8
:1015400003F904F55A63EE6024359D42FBD1204631
:1015500070BD00BFB8480208034B1A68D207FCD41C
:1015600023229A60704700BF00B00240704700001D
:1015700030B50F4C2568ED07FCD423250904A56080
:1015800041F001010225FF2B65636164E0630AD02D
:101590000849656241EA0363E361074B22626061C7
:1015A000E060236030BDE561039BA363034BF8E774
:1015B00000B0024009000100010002000100030028
:1015C00030B50E4C2568ED07FCD423251204A56028
:1015D00042F001020225FF2B65636264E063E16073
:1015E00008D01B0643F00213E361054B656260619E
:1015F000236030BD034BE3610123F9E700B00240F3
:1016000001000200020002FF30B50B4C2568ED0717
:10161000FCD4232512041B06A56043F400330225E5
:1016200042F0010265636264E063E160E361034BE1
:1016300065626061236030BD00B0024001000200BD
:10164000012070470C2070470C2303FB0100083079
:1016500070470C2303FB01000830704701207047DE
:1016600040F6E460704740F6E46303FB0100083095
:10167000704740F6E46303FB010008307047012027
:1016800070471020704700EB01100830704700EBE6
:10169000011008307047084601F0FABC10B5034B42
:1016A0000360044608F06EFE204610BD7049020833
:1016B00010B50446FFF7F2FF2046142120F0ADFBE1
:1016C000204610BD10B5034B0360044608F05AFED7
:1016D000204610BD3C49020810B50446FFF7F2FF52
:1016E000204640F6EC6120F098FB204610BD00003B
:1016F00010B5034B0360044608F044FE204610BDBD
:101700000849020810B50446FFF7F2FF20461821E9
:1017100020F083FB204610BD10B5084B0360044643
:1017200000F61870FFF7BAFF04F12C00FFF7CAFFAC
:1017300004F11400FFF7DCFF204610BDA4490208A5
:1017400008B50248FFF7E8FF08BD00BF9C13002062
:1017500010B50446FFF7E0FF204641F28C0120F06F
:101760005CFB204610BD00002DE9F34101F012FBA7
:10177000054601F013FB0024014623462846224675
:10178000009411F0B7FA274B274A1A60204601F05F
:10179000C3FE264D264B274A27489A6011F012FABD
:1017A0002B68BFF35B8FDB0735D4284620F037FB6F
:1017B00088B3224C224B236004F5736604F11400B5
:1017C00004F12C0804F618776060C4F80880E7601C
:1017D000266108F0D9FD1B4B6361404608F0D4FD3B
:1017E000194BE362384608F0CFFD184BC4F8183F98
:1017F00004F62C7001F006FF224604F62C713046E8
:1018000001F0F6FE304601F043FC114821F060FA89
:10181000284620F010FB0F4802B0BDE8F041FFF76A
:10182000E7BB00BF7C3F0120480500209813002043
:10183000680500204C050020080000209C130020B3
:10184000A4490208084902083C49020870490208F4
:1018500041170008C4040020704700000148FFF74A
:10186000D5BB00BFC404002070B5264E264C274DC2
:10187000274B23603046FFF755FE284616F040FB05
:1018800024480FF09DFA244B2448DC6000224FF4DA
:101890008071C3E9121222491A86C3E91A1221493A
:1018A00083F85820C3E91E011F49C3F880101F495F
:1018B0001F480B60F021C3E90422C3E90622C3E9F3
:1018C0000822C3E90A22C3E90E22C3E91022C3E9B0
:1018D0001422C3E917225A6683F870205A67C3E9B5
:1018E000016501801348018013484FF4A071018005
:1018F0001248018012490A70012283F83420114AEB
:101900001A6070BDF40500209413002068050020C3
:10191000303D02084C050020C404002000000101F5
:1019200001000001000450001A001400183F0120BB
:101930000A3F0120103F01200C3F0120123F0120EF
:101940000E3F0120CC4702080148FFF777BC00BFDB
:10195000F40500200020704781807047C1807047E7
:1019600001817047418170477047704770477047E9
:10197000704710B4C4880368121B84885B6D091B10
:1019800012B25DF8044B09B218474FF6FF7383811A
:101990004FF0FF3303621368C3611060704700208B
:1019A00070478B88838001207047704780F826102D
:1019B000704790F82600704710B50022B1F9084032
:1019C000B1F90A10028042808480C18010BD0022DB
:1019D000028042808280C28070470177704780ED2C
:1019E000080A704780F82410704780F82510704767
:1019F00001207047983070478C30704784307047B2
:101A00007047704770470000034B902283F85A23B9
:101A100083F85823704700BF00E100E0094A0A49F3
:101A2000D3680A48C3F30A03013B9BB20B801169D8
:101A3000C1F30A01013901801364536B43F00103C0
:101A400053637047006801402A24002028240020A6
:101A5000014BD3F8AC00704700680140024B0122F3
:101A6000C3F8AC105A6270470068014010B52C21D1
:101A7000044620F0D2F9204610BD10B5BC21044622
:101A800020F0CBF9204610BD70B5044608F07BFF6E
:101A900023689D6E0DF02CFF01462046A847236861
:101AA000054AD3F88C502046AC460023BDE8704070
:101AB000A2F51631604700BF00B004D008F04ABF5D
:101AC00008F054BF08F010BF09F07FB890F8252047
:101AD00012B103685B691847704790F825201AB166
:101AE00090F8242002B1186070470000034B4FF0BB
:101AF00080629A604FF080729A60704700E100E067
:101B0000084B4FF08062C3F88820BFF34F8FBFF3BC
:101B10006F8F4FF08072C3F88820BFF34F8FBFF3F1
:101B20006F8F704700E100E070B50023124E838094
:101B3000124B0360336893F8582005460AB1D86CFD
:101B400000B998680368DB6A98473368B0FA80F494
:101B5000D86C640930B10368DB6A9847002808BF75
:101B600044F001042CB9064B064A07482C2121F009
:101B700091F8284670BD00BF183F0120B8490208FF
:101B80001341020871410208AA41020870B5254EAE
:101B90003568BFF35B8F15F0010540D1304620F06A
:101BA0003EF900283BD0204C204B256104F1340045
:101BB000C4E90035C4E90255E584A562A5850FF0A6
:101BC000E4FB04F158000BF051FF194BA3652046CC
:101BD000184B40F8843BFFF7A7FF174BC4F884303D
:101BE0002433C4F88C304FF4C803C4E928350023EB
:101BF000C4F8AC30C4F8B030C4F8B430C4F8B8306D
:101C00000E480F4BC4F89050C4F89C50C4F8A8502C
:101C1000C4F8983021F05CF8304620F00CF9024806
:101C200070BD00BF2C24002030240020A44E0208E8
:101C3000D8490208504A0208584E0208051A0008FE
:101C4000384E020838B5184C23685BB3174B184A56
:101C50001B6C11888B4216D1164B198803F050F972
:101C6000236893F86A200025013283F86A2083F8FC
:101C70007C50FFF7B7FA206809F010FC2846BDE851
:101C80003840FFF7F7B803F03BF924682368204693
:101C90001B6A9847012384F87C300020BDE8384057
:101CA000FFF712B938BD00BF183F0120006801409E
:101CB0002A2400202824002008B50C490C480122C1
:101CC00007F0FEFD08B100F053FD0A49084807F08F
:101CD0000AFE08B100F04CFD054807F01DFE18B1E2
:101CE000BDE8084000F044BD08BD00BF4000002032
:101CF000EC2400205C010020122301480B80704777
:101D00002C000020042301480B807047280000208D
:101D1000002370B54D1C1E46040FB0F1204F34BF98
:101D20003034373401F8134005F813600133DCB266
:101D3000A2424FEA0010EFD870BD00001A2310B580
:101D40000B800A4BD3F8100AD3F8182A80180AD04F
:101D5000D3F8144A06490822FFF7DAFF04221031AB
:101D60002046FFF7D5FF034810BD00BF0070FF1FDE
:101D70000E0000200C00002010B5044C04480A4658
:101D8000214608F08FF9204610BD00BFC82700206B
:101D90000C42020810B5044C04480A46214608F0DB
:101DA00081F9204610BD00BFC82700201F4202084D
:101DB00010B5044C04480A46214608F073F9204641
:101DC00010BD00BFC82700203542020810B5044CE2
:101DD00004480A46214608F065F9204610BD00BFB8
:101DE000C82700204042020830B5044689B01422BA
:101DF000002103A821F055F922681C4B9A4233D1E7
:101E00001B4C1C4800250195236B43F00203236300
:101E1000236B03F002030193019B03A94FF40053CA
:101E2000039302F07BF94FF440420223CDE90323F0
:101E300003210C23CDE906130E4805950DEB030194
:101E400002F06CF90295236B43F000532363236B7C
:101E500003F0005302934D202A460521029B02F015
:101E600013F84D2002F042F809B030BD00000440E4
:101E7000003802400004024000F29C41D0F8E00427
:101E800007F05CBD242303FB0103D0F8E004D3F882
:101E9000602207F083BD242303FB0103D0F8E00494
:101EA0001A6A07F0B0BDD0F8E00407F04ABE10B5DA
:101EB000C179044621B1022901D000F059FC012169
:101EC000D4F8E00407F021FED4F8E004BDE81040A7
:101ED00007F0ECBD10B50446D0F8E00407F018FE9A
:101EE0002268D2F8003E43F00103C2F8003EE37AD4
:101EF00023B1034A136943F00603136110BD00BF09
:101F000000ED00E0D0F8E00407F010BED0F8E004E7
:101F100007F037BED0F8E00407F020BED0F8E004A8
:101F200007F042BED0F8E00407F040BE08B50278E2
:101F3000012A034627D11548C0F8E034C3F8C80287
:101F4000134B0360062303714FF40073C380022315
:101F50004372002343810373C281037402F0EEFFD6
:101F600008B100F005FC4FF40071084803F00BFDC8
:101F700080220021054803F0E7FC04484FF4BA72C0
:101F8000012103F0E1FC002008BD00BFDC29002096
:101F90000000044011F0800FD0F8C8324FF0240246
:101FA0001BBF01F07F0102FB013302FB0133987D6F
:101FB00008BF93F85602704700487047C8290020B0
:101FC000704718B102280CBF01200320704708B5E4
:101FD000D0F8C80203F021F8BDE80840FFF7F1BFD0
:101FE00010B51446D0F8C8021A46234603F047F845
:101FF000BDE81040FFF7E5BF08B5D0F8C80203F010
:1020000077F8BDE80840FFF7DCBF08B5D0F8C80294
:1020100003F0D5F8BDE80840FFF7D3BF08B5D0F806
:10202000C80203F003F9BDE80840FFF7CABF08B5CE
:10203000D0F8C80203F010F8BDE80840FFF7C1BFB0
:1020400008B5D0F8C80203F09FF8BDE80840FFF7D4
:10205000B8BF08B5D0F8C80203F078F8BDE808406A
:10206000FFF7AFBF07B5064BADF806001B68054884
:1020700001220DF1060104F0D9F903B05DF804FB6B
:102080005C0000200C2F002008B5FFF715FE64202F
:1020900005F0A4FBFBE7000007B51A4E1A4C3068A8
:1020A00005F0ECFC28B34FF0FF33306800220DF14F
:1020B000070105F0B3FC9DF807300025522B257071
:1020C0006570A570E57018D0542B18D04C2B07D133
:1020D00001230E4823700422214608F0E4F82570FD
:1020E0000A480422214608F0DEF800236370A3703A
:1020F000E370012005F072FBD1E70223E9E7FB233F
:10210000A370EDE7C82E0020A8300020EC240020AA
:1021100030B595B0102200210AA820F0C2FF142289
:10212000002103A820F0BDFF00241D4B01941A6C70
:1021300042F080521A641B6C03F080530193019BA0
:10214000184B02941A6842F440421A601B6803F468
:10215000404302930122029B4FF48033CDE90823D0
:1021600002254FF48003CDE90E530421A823CDE9C5
:10217000101308A807231393129503F009FC0F23EB
:10218000CDE903354FF4A0504FF48053CDE9060359
:10219000052103A8059403F0D7FD15B030BD00BF9D
:1021A00000380240007000402DE980489BB001F0EB
:1021B00019FEFFF7ADFF142200210DA820F071FFDA
:1021C0000024C74B00941A6BC648C74D42F010025A
:1021D0001A631A6B02F010020092009A01941A6BB3
:1021E00042F020021A631A6B02F020020192019A57
:1021F00002941A6B42F080021A631A6B02F080029A
:102200000292029A03941A6B42F004021A631A6B48
:1022100002F004020392039A04941A6B42F0010242
:102220001A631A6B02F001020492049A05941A6B65
:1022300042F002021A631A6B02F002020592059A3A
:1022400006941A6B42F040021A631A6B02F04002C5
:102250000692069A07941A6B42F008021A631B6BE7
:1022600003F00803224607933C21079B02F040F845
:102270009E480122022102F03BF822469B4804219D
:1022800002F036F822469A484FF4405102F030F8F6
:1022900001263C23CDE90D3692480F9403230DA966
:1022A0000227109301F03AFF90480DA9CDE90D7671
:1022B000CDE90F4401F032FF04238C480DA9CDE98C
:1022C0000D36CDE90F4701F029FF0DA94FF440531A
:1022D0008748CDE90D36CDE90F4701F01FFF85484E
:1022E000854B036001F010FEDFF834C2834B2C6293
:1022F000C5E900C328464FF48043C5E90434C5E965
:102300000244C5E9064402F001FA1021284602F011
:1023100045FC2146284602F060FC794DDFF804E2D6
:10232000AC624FF48273C5E900E34FF400781823E0
:10233000C5E9068328460A23C5E90244C5E90444E1
:10234000C5E90844EB6204F015F88F2322463946AC
:1023500066488DF824308DF8344001F0C9FF3246CC
:102360004FF47A7309A9284604F060F84FF47A73A1
:1023700032460DA9284604F005FA324639465B4834
:10238000604D01F0B5FF9DF83430D32B04BF5E4B98
:102390001E705E4B0127C5E900374FF0100A40233D
:1023A0000024C5E904A34FF4C073C5E906344FF413
:1023B0000063C5E908344FF4005302264FF00409C6
:1023C000AB624FF0030B07230DA92846CDE90D633F
:1023D000CDE90F934FF00808C5E90249CDE911B6E0
:1023E000139603F0ABFE4FF6FF7209A92846CDE91C
:1023F0000A87089409970C9403F0C0FE384601F050
:102400001DFD4FF6FF7209A92846CDE90968CDE9FF
:102410000B7403F0B3FE4FF6FF7209A92846CDE90D
:1024200009B8CDE90B9403F0A9FE4FF40C7308939F
:10243000089B0C934FF6FF7209A92846CDE909982D
:102440000B9703F09BFE40F26A51284603F0B4FE5E
:10245000342221460DEB020020F023FE2C4D2D4BA3
:102460002C61C5E900340923C5E905371D23C5E9F9
:10247000073B40F20D1240F24313C5E9092340F235
:10248000171140F247132846C5E90B13C5E902446A
:10249000AC8685F8364002F03BFCFF21F022CDE906
:1024A00012144FF4806005214FF4A073CDE914019C
:1024B000CDE90E240DA9CDE9164228462246164D37
:1024C0001893CDE910360D94ADF864408DF8664050
:1024D00002F0E9FC114B2B601B6898472B6823E046
:1024E00000380240001002400C300020000802407A
:1024F000000C0240A030002000300240A086010005
:102500000C2F0020D82E0020C42E0020400100A057
:10251000642F002000680140C02E002064000020CD
:10252000005C0040005001401B4DDB6898471B4B8E
:102530002846C5E90034C5E90264C5E90A46C5E98B
:102540000C4401F0F1FC3946284601F0A3FDFEF7EA
:10255000C5FBFEF7C2FB05F0D1F8114A31465046E3
:1025600005F0F0F90F4B104A186021460F4805F0AE
:10257000F1F80F4B0F4A186021460F4805F0EAF8B2
:102580000E4B0F4A186021460E4805F0E3F80E4B3B
:10259000186005F0C5F8FEE76030002000B002408A
:1025A000944A0208C82E0020F44A02088920000834
:1025B000D42E0020D04A0208EB0C0008D02E0020B8
:1025C000AC4A020899200008CC2E002070477047C2
:1025D0007FB5094B8DF817201B6802930DF1170288
:1025E0000123009201930A460146044802F036F99D
:1025F00007B05DF804FB00BF600000200C30002035
:102600007FB500238DF81730084B1B6802930A46EC
:1026100001230DF11701009101930146044802F0D6
:10262000ADF99DF8170007B05DF804FB60000020CD
:102630000C3000201FB5084C24680092CDE901340D
:102640000A4601230146054802F098F9003818BFF0
:10265000012004B010BD00BF600000200C3000203D
:1026600001F0ECBB10B5064C00222046042101F01D
:102670003FFE20460122BDE81040042101F038BE93
:102680000008024038B50B4D044601220A484FF4B9
:10269000005101F02DFE00220421284601F028FE01
:1026A0002046FFF7DFFC28460122BDE83840042120
:1026B00001F01EBE00080240000C024038B50B4D70
:1026C000044600220A484FF4005101F011FE002296
:1026D0000421284601F00CFE2046FFF7C3FC2846E3
:1026E0000122BDE83840042101F002BE000802408A
:1026F000000C0240F7B5144E144F05460C46304608
:102700000022042101F0F4FD00224FF4005138466C
:1027100001F0EEFD2846FFF7A5FC0D4B0D481B68A8
:10272000224601A904F02EF8384601224FF4005148
:10273000019C01F0DDFD30460122042101F0D8FDAD
:10274000204603B0F0BD00BF00080240000C02406C
:102750005C0000200C2F002001F070BB0268034BCE
:102760009A4201D101F058BB704700BF00100040F1
:102770007047000082B00E4B00220092596C41F469
:1027800080415964596C01F4804100910099019293
:10279000196C41F0805119641B6C03F08053019354
:1027A000019B0F216FF0010002B001F06DBB00BF73
:1027B000003802400268094B9A4282B00BD10023D4
:1027C0000193074B1A6B42F480521A631B6B03F49C
:1027D00080530193019B02B0704700BF003002405C
:1027E0000038024007B50F4B02689A4216D100220A
:1027F000A3F5F0430192196B41F4000119631B6BBF
:1028000003F40003019305215A20019B01F03CFBD6
:102810005A2003B05DF804EB01F068BB03B05DF82B
:1028200004FB00BF00B002402DE9F043044689B02C
:102830001422002103A820F034FC2268244B9A4281
:1028400043D1244C244800250095236B43F0040316
:102850002363236B03F004030093009B0195236B18
:1028600043F001032363236B03F001030193019BF6
:102870004FF012094FF400734FF0010803270426AC
:1028800003A9CDE90339CDE90587079601F046FC98
:102890004FF480731148079603A9CDE90339CDE9B8
:1028A000058701F03BFC0295236C43F4000323648D
:1028B000236C03F400030293029B236A43F4000396
:1028C0002362236A23F40003236209B0BDE8F08386
:1028D000005C004000380240000802400000024056
:1028E000F0B599B004461422002107A820F0D9FBC6
:1028F00030220DEB0200002120F0D3FB22685E4B5A
:102900009A4240F0B78008230C93C023109304230D
:1029100012930CA84FF40033159303F0E3FA08B1B7
:10292000FFF726FF554B5648002400945A6C42F09E
:1029300080625A645A6C02F080620092009A01949C
:102940001A6B42F020021A631A6B02F02002019205
:10295000019A02941A6B42F001021A631A6B02F098
:1029600001020292029A03941A6B42F002021A6365
:102970001A6B02F002020392039A04941A6B42F05B
:1029800040021A631A6B02F040020492049A059402
:102990001A6B42F004021A631A6B02F004020592E9
:1029A000059A06941A6B42F008021A631B6B03F037
:1029B0000803069302250E26069B0B964FF48063B0
:1029C00007A9CDE90735CDE9094501F0A7FB41F697
:1029D00058032C480B9607A9CDE907350927CDE9FF
:1029E000094501F09BFB032327480B9707A9CDE975
:1029F0000735CDE9094501F091FB4FF4706322489A
:102A00000B9607A9CDE90735CDE9094501F086FB0D
:102A10004FF40C631D480B9607A9CDE90735CDE9A6
:102A2000094501F07BFBC02319480B9607A9CDE9A6
:102A30000735CDE9094501F071FB082315480B96D0
:102A400007A9CDE90735CDE9094501F067FB4FF44A
:102A5000A0530E480B9707A9CDE90735CDE90945E5
:102A600001F05CFB58202246052101F00DFA5820A8
:102A700001F03CFA19B0F0BD006801400038024096
:102A8000001402400000024000040240001802400E
:102A900000080240000C024010B5044688B0142221
:102AA000002103A820F0FDFA2268144B9A4223D19A
:102AB00003F56843002101915A6C114842F48012D9
:102AC0005A645A6C02F480120192019A02911A6BB4
:102AD00042F020021A631B6B03F020030293029B57
:102AE0004FF4607202230321CDE903230523CDE9CE
:102AF000061303A901F012FB08B010BD00500140FD
:102B0000001402402DE9F04186B0002303932B4BC3
:102B10001C68002C4FD14FF00108C3F80080284BEF
:102B200000949A6B274842EA08029A639B6B03EA77
:102B300008030093022703260C25009B01A94FF6EA
:102B40003F03CDE90137CDE9046501F0E7FA1E48FE
:102B5000059501A9CDE90187CDE9034601F0DEFA2B
:102B600048F233131948059501A9CDE90137CDE99C
:102B7000034601F0D3FA4FF683731548059501A972
:102B8000CDE90137CDE9034601F0C8FA4CF20373F1
:102B90001048059501A9CDE90137CDE9034601F0BB
:102BA000BDFA60230C48059501A9CDE90137CDE9AF
:102BB000034601F0B3FA06B0BDE8F081AC30002066
:102BC0000038024000140240000802400018024091
:102BD00000100240000C02400004024070B588B0B2
:102BE00000230293204B1A6C42F010021A641B6CF3
:102BF00003F010030293054601A903A8029B03F00A
:102C000053F9069B4BBB03F03FF9184E184B33604A
:102C100040F2E733F360174BB0FBF3F3013B736013
:102C2000304600233361B360B36103F07BFF044699
:102C300080B9304603F04CFE044658B9362001F006
:102C400055F90F2D0DD822462946362001F01CF9E2
:102C5000094B1D60204608B070BD03F015F9400017
:102C6000D3E70124F6E700BF00380240B03000206F
:102C70000010004040420F00CC0000207047FEE7EB
:102C8000FEE7FEE7FEE77047014803F05FBE00BFC6
:102C9000B0300020014802F00FBB00BFDC2900204B
:102CA000014802F0A3B800BF642F0020014801F0E2
:102CB00067B900BF603000200120704708B520F0E0
:102CC00093FA162303604FF0FF3008BD08B520F0DB
:102CD0008BFA16230360FEE770B50D4614460E46C8
:102CE000731B9C4201DC204670BDAFF3008006F8E8
:102CF000010BF5E770B50D4614460E46731B9C425A
:102D000001DC204670BD16F8010BAFF30080F5E73B
:102D10004FF0FF3070474FF400534B600020704776
:102D200001207047002070470A4A116808B5034621
:102D300009B9094911601068694603448B4206D9F4
:102D400020F052FA0C2303604FF0FF3008BD1360EF
:102D5000FCE700BFF8300020584C0120704710B548
:102D6000042104461FF059F8204610BD012908B57A
:102D700006D0022908D059B900F00CFC006808BD43
:102D800000F008FC4068FAE700F004FC8068F6E711
:102D90000020F4E7004870472C4B020801207047E0
:102DA00013B5002451B1036801948DF8034001AAC2
:102DB0009C680DF10303A04702B010BD0846FBE775
:102DC000C0897047008A7047C08870478088704704
:102DD000807A00F07F007047807AC0097047002039
:102DE000704700009FED010A704700BF000000001F
:102DF0007047704700F598730868496803C37047C7
:102E0000704770474160704770477047064BC0F885
:102E10004C310023C0F8503100F5A273C0F84801CE
:102E2000C0F84031704700BFCD2E00080123037267
:102E30007047704710B4C26841685410034601EBF4
:102E40006200D20748BF0A599B685DF8044B48BF2F
:102E5000D35818470346406830B19A681AB9D86801
:102E600000F0010070470120704710B50C210446A6
:102E70001EF0D3FF204610BD10B5102104461EF0F1
:102E8000CCFF204610BD10B54FF4AE7104461EF0C5
:102E9000C4FF204610BD10B50CF02AFD0368BDE844
:102EA0001040DB6B184710B50446D0F8400158B10C
:102EB0000368DB68984738B1D4F8400103689B6821
:102EC00098470023C4F8403110BD00002DE9F14FB0
:102ED000D0E9556A0746B06803681B6A984740F610
:102EE000E363984205D8444B444AA32144481FF069
:102EF000D1FE706803681B6A98470F2803D8414BBE
:102F00003E4AA421F2E7F06803681B6A98470B2841
:102F100003D83D4B394AA521E8E70CF0E9FCDFF87E
:102F2000F09004300CF009FDD9F8000010B10368EE
:102F3000DB689847D9F8000010B103681B68984710
:102F4000DFF8D080D8F8000010B103685B699847BB
:102F5000D7F83C0110B103685B689847D8F80000C7
:102F600010B103681B689847D7F83C0110B103689B
:102F70009B689847F068036800215B6A98474FF0A8
:102F8000000B224BC0F804B0044680F808B0036080
:102F9000B068036859465B6A9847054600F066FBCF
:102FA0007068036859465B6A98472946064600F0F0
:102FB0003BFB331DC7F83C61C9F80040C8F800501E
:102FC000CAF800302B68C6F808A02846DB68EE6314
:102FD0009847336830461B689847214628460EF0CC
:102FE000C3FE236820461B69984723685B69204617
:102FF00001B0BDE8F04F18477642020804430208CA
:10300000D64302081D440208C0440208B44B02081B
:10301000603F01205C3F0120044B1B6893F858205F
:103020000AB1D86C00B99868704700BF183F0120FA
:1030300070B504460D4616460CF01CFD104A14608F
:10304000104A2260104A0023C4E95123C4E95333D3
:10305000C4E94F330D4B1868036801219B68C4E92C
:1030600055659847FFF7D8FF16F0F3FDFFF7D4FF3B
:1030700016F06AFEFFF7D0FF16F072FE204670BD14
:103080006C3F0120604B0208484B0208183F0120AA
:10309000064BC0F84C310023C0F8503100F5A27344
:1030A000C0F84801C0F84031704700BFCD2E00087D
:1030B000406A7047806A704770478A880B8810B5ED
:1030C000D20A4C88C1699BB251F8220043EA0443FA
:1030D000184410BD10B50446BAB1107B68B1537BDB
:1030E000D27A1B0203F4E0631A43236A03EB8203E0
:1030F0001A888A4202D193F9020010BD05D801381E
:1031000080B204330028F3D1F7E70020F5E710B5CB
:103110002C2104461EF081FE204610BD30B58BB038
:103120000446BDF860500895BDF85C5007959DF8C1
:10313000505006959DF84C5005959DF848500495C3
:103140009DF8445003959DF8405002959DF83C50E1
:103150000195BDF8385000950EF0D4F9064B236068
:10316000159BE361169B2362199B63621A9BA36202
:1031700020460BB030BD00BFD84B020870477047E7
:10318000704770477047704710B5034B03600446A3
:103190000BF05EFB204610BD404C020810B5064BFC
:1031A000036004460BF054FB204640F6D8611EF045
:1031B00034FE204610BD00BF404C02082DE9F0410E
:1031C0001D460368BDF918701B6B044616469847E8
:1031D0002368314620465B6B984723682946204682
:1031E0009B6B9847236839462046DB6BBDE8F0416E
:1031F000184700002DE9F34704460EF009FC374B51
:103200002360374B0025C4E910354FF4807304F177
:103210006C06A4F86430FF2384F8663004F1B40827
:10322000C4E91255C4E91455C4E91655E563256689
:10323000A566304609F002FF4046FEF775FC294BB3
:10324000C4F8B4302433C4F8BC3004F1C80004F12D
:10325000400A4FF4A079C4F8C0504FF461610BF0FC
:10326000EDFA2A4629465046CDF80090F023FFF7A4
:10327000A5FF271D4FF07F43A3665146384607F050
:1032800097F82A4629463046CDF80090F023FFF7FC
:1032900095FF4FF4A063C4E926334FF48C63C4F860
:1032A000A030A023C4F8AC304FF43453C4F8A83095
:1032B0003046C4F8A450B42109F0D8FE4FF0FF33D3
:1032C0003846C4F8C030A4F8C430C4F894803146FD
:1032D00007F06EF8204602B0BDE8F087404C0208C7
:1032E00098500208584E02087047000030B5164D3D
:1032F0002C6814F001048FB0BFF35B8F20D12846F7
:103300001EF08DFDE0B13F230993104B0893104B45
:10331000104911480A940122CDE906430423CDE95E
:1033200003320A230093CDE90B44CDE9014405940F
:10333000FFF7F4FE09481FF0CBFC28461EF07BFD8A
:1033400005480FB030BD00BFFC300020045B020810
:10335000105B0208D45A020800310020E93200084C
:103360007047000030B5164D2C6814F001048FB082
:10337000BFF35B8F20D128461EF051FDE0B13F2303
:103380000993104B0893104B104911480A940122DD
:10339000CDE906430423CDE9033214230093CDE99C
:1033A0000B44CDE901440594FFF7B8FE09481FF02E
:1033B0008FFC28461EF03FFD05480FB030BD00BF12
:1033C0002C310020085B0208145B0208E45A020852
:1033D00030310020613300087047000030B5164DD1
:1033E0002C6814F001048FB0BFF35B8F20D1284606
:1033F0001EF015FDE0B13F230993104B0893104BCD
:10340000104911480A940122CDE906430423CDE96D
:10341000033228230093CDE90B44CDE90144059400
:10342000FFF77CFE09481FF053FC28461EF003FD01
:1034300005480FB030BD00BF5C3100200C5B0208B6
:10344000185B0208F45A020860310020D9330008E2
:1034500000207047002070470EB403B503AB002175
:1034600053F8042B01930DF0CBFA02B05DF804EB96
:1034700003B070470CB407B504AB53F8042B0193A9
:103480000DF0BEFA03B05DF804EB02B07047000027
:10349000436C10B5044673B3038F2BB9184B194A0C
:1034A000C52119481FF0F6FBC38E00EB43035B8C6C
:1034B0000BB30FF04CF9238F012B03D8134B144A95
:1034C000CB21EEE7E28E531C9BB2092B194688BF35
:1034D000A3F10A0104EB410140F63F10498C8142FF
:1034E00009D10A2B04EB420228BF002304EB43035B
:1034F000508C588451842046BDE810400FF02AB803
:10350000634502086C450208174602086146020836
:103510006F4602080EF0E5BF38B518BB124B1348D2
:103520001C681349B4B122682244026062682244D4
:103530000A60A26814440F4B00221A8000F02AF897
:10354000054600F025F80C4B1C600C4B1D600C4B25
:10355000188007E00B4B03600B4B0B600B4B1C6898
:10356000002CE8D138BD00BF9831002090310020F8
:103570008C31002094310020703F0120783F0120E1
:10358000743F0120205B02081C5B0208245B0208D8
:1035900000207047004870479C31002010B5FFF7AD
:1035A000E1FE044C2060FFF719FF6060FFF79EFE0C
:1035B000A06010BD9C31002010B5002404600C6098
:1035C00014601C6010BD704710B54FF4AE71044616
:1035D0001EF023FC204610BD10B50446D0F858015B
:1035E00000F013F82046BDE810400CF003BA0000CC
:1035F00010B50446FFF71CFD014B2360204610BDAB
:10360000744C02080022026070477047704704380B
:103610007047704710B5102104461EF0FEFB20468F
:1036200010BDA0F10400F5E700228260024A0260AA
:1036300018324260C1607047C84C020870470000F1
:1036400010B5034B03600446FFF79EFD204610BDF6
:10365000F04C020810B50446FFF7F2FF204640F692
:10366000E4611EF0DAFB204610BD000010B50446F0
:10367000FFF7C0FD054B23602322002384F8D83ECA
:10368000C4F8DC2EC4F8E03E204610BDF04C020821
:1036900081EAE173A3EBE1731BB2002B82EAE273D0
:1036A000A3EBE2731BB273B5D8BF0021002B164603
:1036B00037DD51EA020332D0494208B2FDF76CF817
:1036C00000221A4BFCF7ECFD0023044630460D4661
:1036D0000193FDF761F80022144BFCF7E1FDFDF7C3
:1036E000C5F86FF07F0603B2B342B8BF33467F2BF5
:1036F000A8BF7F23294620468DF80530FDF7B6F890
:1037000000B2B042B8BF30467F28A8BF7F20042255
:103710008DF806000DEB0201054806F0C4FD02B06D
:1037200070BD0029FBD00026C6E700BF0000F83FAF
:10373000EC24002010B50446FFF725FD002384F893
:10374000913010BD38B5CA884B899B1A154A138031
:103750000A898B890D469B1A134A0446138000F090
:1037600067FBB5F90C30B5F90A20C4F8E00E5B012F
:10377000C4F89C302323C4F8DC3E4FF48C63520120
:10378000C4F8A0300125A023C4F89820C4F8AC30B8
:1037900084F8915004F16C000AF04CF984F8D85E7A
:1037A00038BD00BFAA310020A831002038B50B7900
:1037B0000446FBB9B1F90830B1F906205B01C0F845
:1037C0009C302323C0F8DC3E4FF48C63C0F8A0305B
:1037D0005201A0230125C0F89820C0F8AC3080F831
:1037E00091506C300AF026F900F022FB84F8D85E84
:1037F000C4F8E00E38BD000070B5204E204DB6F97B
:103800000010B5F9002051EA0203044604D0FFF786
:103810003FFF002333802B8094F8D83E63B300F041
:1038200007FBD4F8E03EC31AB3F5FA7F04F10400B5
:103830001CD207EE903ADFED136AB8EEE77AC7EED6
:10384000267AB3EE0E7A67EE877AFDEEE77A17EE08
:10385000903AC3F12303C4F8DC3E5B0123EAE3732F
:10386000C4F8A030BDE870400DF0F4B9002384F82E
:10387000D83E84F89130F5E770BD00BFAA31002032
:10388000A83100200000FA43F02070474FF4A070E8
:1038900070472920FEF712BF2820FEF70FBF08B59A
:1038A000FEF7E0FECA20FEF709FFC320FEF7EAFE9E
:1038B0000820FEF7E7FE5020FEF7E4FECF20FEF7DB
:1038C000FDFE0020FEF7DEFEC120FEF7DBFE30200D
:1038D000FEF7D8FEED20FEF7F1FE6420FEF7D2FEE3
:1038E0000320FEF7CFFE1220FEF7CCFE8120FEF76C
:1038F000C9FEE820FEF7E2FE8520FEF7C3FE0020A9
:10390000FEF7C0FE7820FEF7BDFECB20FEF7D6FE08
:103910003920FEF7B7FE2C20FEF7B4FE0020FEF79C
:10392000B1FE3420FEF7AEFE0220FEF7ABFEF7201C
:10393000FEF7C4FE2020FEF7A5FEEA20FEF7BEFE3D
:103940000020FEF79FFE0020FEF79CFEB120FEF750
:10395000B5FE0020FEF796FE1B20FEF793FEB62074
:10396000FEF7ACFE0A20FEF78DFEA220FEF78AFECF
:10397000C020FEF7A3FE1020FEF784FEC120FEF754
:103980009DFE1020FEF77EFEC520FEF797FE452027
:10399000FEF778FE1520FEF775FEC720FEF78EFEB7
:1039A0009020FEF76FFE3620FEF788FEC820FEF757
:1039B00069FEF220FEF782FE0020FEF763FEB020D3
:1039C000FEF77CFEC220FEF75DFEB620FEF776FE17
:1039D0000A20FEF757FEA720FEF754FE2720FEF729
:1039E00051FE0420FEF74EFE2A20FEF767FE00205F
:1039F000FEF748FE0020FEF745FE0020FEF742FEDF
:103A0000EF20FEF73FFE2B20FEF758FE0020FEF7CA
:103A100039FE0020FEF736FE0120FEF733FE3F2080
:103A2000FEF730FEF620FEF749FE0120FEF72AFEE3
:103A30000020FEF727FE0620FEF724FE2C20FEF7CE
:103A40003DFEC820FEF788FE2620FEF737FE012047
:103A5000FEF718FEE020FEF731FE0F20FEF712FE03
:103A60002920FEF70FFE2420FEF70CFE0C20FEF7A7
:103A700009FE0E20FEF706FE0920FEF703FE4E208B
:103A8000FEF700FE7820FEF7FDFD3C20FEF7FAFD74
:103A90000920FEF7F7FD1320FEF7F4FD0520FEF7E1
:103AA000F1FD1720FEF7EEFD1120FEF7EBFD0020E3
:103AB000FEF7E8FDE120FEF701FE0020FEF7E2FD43
:103AC0001620FEF7DFFD1B20FEF7DCFD0420FEF7CD
:103AD000D9FD1120FEF7D6FD0720FEF7D3FD3120DA
:103AE000FEF7D0FD3320FEF7CDFD4220FEF7CAFDE4
:103AF0000520FEF7C7FD0C20FEF7C4FD0A20FEF7E7
:103B0000C1FD2820FEF7BEFD2F20FEF7BBFD0F20D4
:103B1000FEF7B8FD1120FEF7D1FDC820FEF71CFE10
:103B20002920FEF7CBFDBDE808402C20FEF7C6BDDE
:103B300008B5FEF797FD0321D320FEF7DBFD80B229
:103B400008BD10B5C4B2022203212046FEF740FD95
:103B50000A20FEF785FD204600220321FEF738FDEE
:103B6000BDE810400220FEF77BBD38B50446E4B244
:103B7000FEF72CFD00212046FEF742FD01210546FF
:103B80002046FEF73DFD40EA052080B238BD10B565
:103B9000C4B240212046FEF733FD030607D54C2171
:103BA0002046FEF72DFD003818BF012010BD012270
:103BB0004B212046FEF70CFD204600224B21FEF74C
:103BC00007FD0020F2E773B50423C4B20E46154684
:103BD000D7210DEB03022046FEF72CFD019B1BBAFB
:103BE0001A0DC3F30B23328020462B8001224B2178
:103BF000FEF7EEFC00224B212046FEF7E9FC02B066
:103C000070BD000010B50A4A1378984204460DD0E2
:103C1000517888420AD00BB141B90123D454FEF740
:103C2000D5FC2046BDE81040FFF78BBF10BD00BF9C
:103C3000AC31002010B5C4B209212046FEF7E0FCEB
:103C400040F00102D2B220460921BDE81040FEF743
:103C5000BFBC10B5C4B209212046FEF7D1FC092132
:103C600000F0FE022046BDE81040FEF7B1BC38B5BA
:103C7000C4B20D4620460A21FEF7C2FC40EA050206
:103C8000D2B220460A21BDE83840FEF7A1BC10B5EB
:103C90000446FEF79CFC20461F21FFF7E8FF204664
:103CA000BDE81040FFF7C6BF38B5C4B20D46204688
:103CB0000A21FEF7A5FC20EA0502D2B220460A211D
:103CC000BDE83840FEF784BC10B50446FFF7C1FFDD
:103CD00020461F21BDE81040FFF7E6BF10B5C0B277
:103CE0000C460B21FEF78CFC204010BD1F21FFF776
:103CF000F5BF0A46C0B20B21FEF76ABC1F21FFF7D1
:103D0000F8BF38B5C4B20D4620461721FEF778FC3F
:103D100020EA0502D2B220461721BDE83840FEF75E
:103D200057BC70B5C4B2064604212046FEF768FCB5
:103D3000042100F0FB0205462046FEF749FC304610
:103D4000F021FFF7DEFF05F0F80220460421FEF720
:103D50003FFC492220212046FEF73AFC0220FEF7D4
:103D60007FFC204601222121FEF732FC20469A22C8
:103D70004121FEF72DFC204601224A21FEF728FCB6
:103D8000204601224B21FEF723FC204600224B2136
:103D9000FEF71EFC204601225621FEF719FC2046A4
:103DA00001225821FEF714FC204601224021FEF793
:103DB0000FFC2046FF220B21FEF70AFCBDE87040F5
:103DC0000220FEF74DBC0000054BD3F8882042F4DA
:103DD0007002C3F888204FF000629A60704700BFFD
:103DE00000ED00E008B50B4B1A6842F400721A604F
:103DF0001A6842F480621A601A6842F480721A608B
:103E0000032000F02FF80020FEF7E8FEFEF7B2FCDA
:103E1000002008BD003C0240034A044B11681B7897
:103E20000B441360704700BFB0310020C800002071
:103E3000014B1868704700BFB031002038B5044608
:103E4000FFF7F6FF631C1CBF054B1B78054618BF28
:103E5000E418FFF7EDFF431BA342FAD338BD00BFC0
:103E6000C80000200749CA6822F4E0620302120475
:103E700003F4E063120C134343F0BF6343F40033D5
:103E8000CB60704700ED00E0164B30B5DC68C4F342
:103E90000224C4F10703251D042B28BF0423062D8B
:103EA0004FF0FF358CBF033C002405FA03F321EAF1
:103EB0000303A54022EA0502A340002843EA0203C7
:103EC000ACBF00F16040084A4FEA0313B8BF00F0EE
:103ED0000F00DBB2AABF00F56140135480F8003335
:103EE00030BD00BF00ED00E014ED00E0002807DB6E
:103EF000044A4109012300F01F00834042F82130A9
:103F0000704700BF00E100E010B5044650B14379AE
:103F100003F0FF0213B90271FEF74CFC0123637139
:103F2000002010BD0120FCE710B5044620B390F836
:103F3000393003F0FF021BB980F83820FEF752FC3D
:103F4000022384F83930236861681A6822F4403209
:103F50000A431A605A6BA16822F007020A435A63A7
:103F60001A6CE1686FF30D020A431A640020012302
:103F7000E06384F8393010BD0120FCE770477047DA
:103F8000036870B55E681D68F207044614D5E9053C
:103F900012D51A6822F480721A60C26B42F00102D4
:103FA000C26301229A60042380F83930002380F82C
:103FB0003830436903B19847B20616D5AB0414D51F
:103FC00023681A6822F400521A6020229A60E36B78
:103FD00043F00203E363042384F83930002384F8B8
:103FE000383063690BB120469847300716D529054C
:103FF00014D523681A6822F400621A6008229A60B5
:10400000E36B43F00403E363042384F839300023B3
:1040100084F8383063690BB12046984772070BD596
:104020006B0509D523681A6822F480621A6004229D
:104030009A602046FFF7A2FFB00714D5A90512D554
:1040400023681A6822F400721A6002229A60E36BF5
:10405000E363012384F83930002384F8383023697E
:104060000BB120469847F20613D5EB0411D523680F
:104070001A6822F480521A6010229A60E36BE3639C
:10408000012384F83930002384F838302046FFF7C4
:1040900076FF70BDF0B590F83820012A03464FF046
:1040A00002002BD0012283F8382083F8390003EB7B
:1040B0000112D2E90740556A174F44EA0040093C13
:1040C000012C9CBF05F07F4210434FEA01161A688D
:1040D00088BF40EA056091B9516A39400143516295
:1040E000012C9969916103D8596A21F07F4191624D
:1040F0000122002083F8392083F83800F0BDD1690F
:1041000039400143D1619919012C896911619CBF22
:1041100025F07F451562EBE7F0FFFC002DE9F74F36
:10412000DFF8BC916C4A00230D6801249C4004EA2E
:104130000506AC4340F0B7804D68032705F0030443
:104140004FEA430807FA08FC671E012F6FEA0C0CC0
:1041500034D8876807EA0C0ECF6807FA08F747EAF1
:104160000E078760476827EA060EC5F300179F40D1
:1041700047EA0E074760C76807EA0C0E8F6807FA20
:1041800008F747EA0E07022CC76019D14FEAD30A95
:1041900000EB8A0A03F0070BDAF820704FEA8B0B6A
:1041A0004FF00F0E0EFA0BFE27EA0E0E0F6907FAFC
:1041B0000BF747EA0E07CAF8207001E0032CDAD1AA
:1041C000076804FA08F407EA0C073C4315F4403F7B
:1041D000046068D000240194D9F8444044F4804439
:1041E000C9F84440D9F8444023F0030707F1804759
:1041F00004F4804407F59C37019403F0030C019C00
:10420000D7F808E04FEA8C0C0F2404FA0CF42EEADD
:10421000040E324CA0424DD004F58064A0424BD035
:1042200004F58064A04249D004F58064A04247D0E0
:1042300004F58064A04245D004F58064A04243D0D8
:1042400004F58064A04241D004F58064A0423FD0D0
:1042500004F58064A0423DD004F58064A04214BF00
:104260000A24092404FA0CF444EA0E04BC6094689D
:10427000F74315F4801F0CBF3C4034439460D4686E
:1042800015F4001F0CBF3C403443D460546815F44F
:10429000003F0CBF3C40344354601468ED0354BFEE
:1042A0003C40344314600133102B7FF43DAF03B026
:1042B000BDE8F08F0024D5E70124D3E70224D1E73D
:1042C0000324CFE70424CDE70524CBE70624C9E780
:1042D0000724C7E70824C5E7003C0140000002406E
:1042E000003802400369194214BF012000207047C2
:1042F0000AB1816170470904FBE7436901EA0302DF
:1043000021EA030141EA02418161704701684B697A
:1043100013F480634FF0000210D06FF480634B61A0
:104320002023026380F83D3080F83E20036C80F843
:104330003C2043F004030364012070471846704793
:104340002DE9F84606460F4691461D464FEA114AAA
:104350003368BAF1010F0CBF5C699C6927EA040459
:10436000A4B2B4FA84F46409A14501D0002025E088
:104370006A1CEED0FFF75CFD089BC01AA84201D86A
:10438000002DE5D13368BAF1010F0CBF5B699B6961
:1043900027EA03039BB2B3FA83F35B099945D7D1AC
:1043A00000232022336386F83D2086F83E30326CAD
:1043B00086F83C3042F0200232640120BDE8F886E5
:1043C0002DE9F04104460F4616469846256868696F
:1043D00027EA000080B2C0B16B695A0517D52B6877
:1043E00043F400732B606FF480636B612022002321
:1043F000236384F83D2084F83E30236C43F00403AB
:104400002364002384F83C300120BDE8F081731C54
:10441000DDD0FFF70DFDA0EB0800B04201D8002E63
:10442000D4D123685A6927EA020292B2002ACDD079
:1044300000232022236384F83D2084F83E30236C3F
:104440001343DDE770B504460D46164623685B69E5
:104450001B0601D500201EE02046FFF757FFC8B914
:104460006A1CF3D0FFF7E4FC801BA84201D8002DA2
:10447000ECD123685B6913F08003E7D1202223632A
:1044800084F83D2084F83E30226C84F83C3042F0C1
:1044900020022264012070BD2DE9F0431546026818
:1044A00085B0DDE90C789946136843F48073136096
:1044B0000E463B46CDF8008000224FF00111044625
:1044C000FFF73EFF236838B11B68DB0502D54FF4C8
:1044D00000732364032620E006F0FE061E611A49DD
:1044E00043463A462046FFF76BFFA8B9236803907E
:1044F0005A6903929B690393424639462046039BBF
:10450000FFF7A0FF064660B1236C042B01BF2268B1
:10451000136843F4007313600126304605B0BDE80C
:10452000F083B9F1010F236802D1EDB21D61F4E708
:104530002A0A1A61394642462046FFF783FF0028BF
:10454000E2D12368F1E700BF020001002DE9FF4737
:104550009A46036815461A6842F480621A601A681F
:10456000DDE90C7842F480721A600E463B46CDF8C5
:10457000008000224FF001110446FFF7E1FE23689E
:1045800038B11B68DB0544BF4FF40073236403207C
:1045900021E05FFA86F906F0FE061E612B494346CC
:1045A0003A462046FFF70CFFA0B9236803905A69EA
:1045B00003929B690393424639462046039BFFF7CB
:1045C00041FF58B1236C042B01BF2268136843F4E8
:1045D00000731360012004B0BDE8F087BAF1010F49
:1045E00023681AD1EDB242461D6139462046FFF7D5
:1045F00029FF02460028E5D121680B6843F4807347
:104600000B602046CDF800803B464FF00111FFF7CC
:1046100097FE226860B11368B4E72A0A1A61394626
:1046200042462046FFF70EFF0028CBD12368D9E78A
:1046300049F001031361054943463A462046FFF716
:10464000BFFE003818BF0120C5E700BF020001000F
:1046500070B504460D46164623685B695B0701D5B5
:1046600000201EE02046FFF751FEC8B96A1CF3D0B7
:10467000FFF7DEFB801BA84201D8002DECD1236898
:104680005B6913F00403E7D12022236384F83D2003
:1046900084F83E30226C84F83C3042F020022264E0
:1046A000012070BD70B504460D46164621684B6961
:1046B00013F0400301D0002011E04A69D2060FD563
:1046C0006FF010024A612022236384F83D2084F8B1
:1046D0003E30236C2364002384F83C30012070BDFD
:1046E000FFF7A6FB801BA84201D8002DDED123686E
:1046F0005B6913F04003D9D12022236384F83D2065
:1047000084F83E30236C1343E4E7000070B50446A0
:1047100008B9012070BD90F83D3003F0FF021BB9CD
:1047200080F83C20FEF780F8242384F83D3023688D
:104730001A6822F001021A601A6842F400421A60F4
:104740001A6822F400421A6001F09EFB3F4B656834
:104750009D4294BF3E4B3F4B98428CBF00230123A8
:10476000002BD6D12268394E51683B4BB0FBF3F396
:1047700021F03F011943B542516088BF4FF496764E
:10478000116A88BF734321F03F0184BF4FF47A76EA
:10479000B3FBF6F301330B431362D169431E2B487D
:1047A00021F44F41854221F0FF0132D86D0040F6DF
:1047B000FC70B3FBF5F30133034242D0C3F30B03A8
:1047C0001943D161D4E907301168034321F0C001D6
:1047D0000B4313609168D4E9030321F403410343BD
:1047E00021F0FF010B439360D4E90530D168034306
:1047F00021F0FF010B43D360136843F00103136002
:1048000000202023206484F83D30206384F83E009B
:1048100080E7A06850B905EB4505B3FBF5F301331C
:10482000C3F30B037BB143F40043C9E7192068438A
:10483000B3FBF0F30133C3F30B0323B143F4404361
:10484000BEE70423BCE70123BAE700BFA08601004E
:104850007F841E00FF083D0040420F002DE9F74312
:10486000044699460C9E0F469046FFF7E1FA94F8ED
:104870003D30202B054603D0022003B0BDE8F08375
:1048800000903C49192301222046FFF759FD0028DA
:10489000F2D194F83C30012BEED02068012384F84B
:1048A0003C300368D9075EBF036843F0010303602F
:1048B000036823F400630360212384F83D30402320
:1048C00084F83E30002323640A9B6362BDF82C30D9
:1048D0006385638D2385284BE3624246CDE90065FD
:1048E0004B4639462046FFF7D7FD00282AD0012045
:1048F000C3E7FFF7A7FD40B1236C042B01BF22687B
:10490000136843F400731360F1E7636A27681A467B
:1049100012F8011B39616262628D218D013A92B2F7
:1049200062857A69481E80B2520720850AD548B14F
:104930005A783A6102336362638D013B02399BB25C
:1049400021856385238D2A4631462046002BD0D110
:10495000FFF77EFE0028CFD12268136843F400736E
:104960001360202384F83D3084F83C0084F83E0036
:1049700083E700BF020010000000FFFF2DE9F043B5
:10498000044687B09946109F0D469046FFF750FAAF
:1049900094F83D30202B064604D00225284607B067
:1049A000BDE8F08300907A49192301222046FFF7E1
:1049B000C7FC0028F1D194F83C30012BEDD02068E1
:1049C000012384F83C300368DB075EBF036843F0D3
:1049D00001030360036823F400630360222384F867
:1049E0003D30402384F83E30002323640E9B6362F5
:1049F000BDF83C306385638D2385664BE3622946B1
:104A0000CDE900764B4642462046FFF79FFD05461E
:104A100008B10125C2E7228D2368B2B902905A6914
:104A200002929A690292029A1A6842F400721A601B
:104A3000DFF86481238D002B2CD1202284F83D20C7
:104A400084F83C3084F83E30A8E7012A0AD11A687D
:104A500022F480621A6003905A6903929A69039261
:104A6000039AE1E7022A0ED11A6822F480621A60E2
:104A70001A6842F400621A6004905A6904929B69B1
:104A80000493049BD4E705905A6905929B690593AA
:104A9000059BCDE7032B56D8012B15D1324639465D
:104AA0002046FFF7FFFD0028B3D123681A69636A27
:104AB0001A70636A01336362238D013B2385638D22
:104AC000013B9BB26385B5E7022B00963B464FF056
:104AD00000024146204619D1FFF732FC002898D148
:104AE00023681A6842F400721A601A69636A1A70BD
:104AF000626A531C6362238D013B2385638D013BF6
:104B00009BB2638523681B695370D2E7FFF718FCDB
:104B1000024600287FF47DAF2368196821F4806184
:104B200019601969636A1970636A01336362238DBE
:104B3000013B2385638D013B9BB263854146009613
:104B40003B462046C8E7324639462046FFF7AAFDD5
:104B500000287FF45EAF23681A69636A1A70628D59
:104B6000616A013A92B24B1C628522686362238DAE
:104B70005069013B9BB2400723857FF55BAF032B58
:104B800002BF136823F48063136013694B7090E7CE
:104B9000020010000000FFFF0400010010B590F8B3
:104BA0003D30202BDCB216D1242380F83D30036841
:104BB0001A6822F001021A605A6A22F010025A6240
:104BC0005A6A114359621A6842F001021A6080F869
:104BD0003D40002010BD0220FCE730B590F83D308C
:104BE000202BDCB216D10268242380F83D301368F4
:104BF00023F001031360556A4FF6F0732B400B430B
:104C00009BB25362136843F00103136080F83D4088
:104C1000002030BD0220FCE70068D1F800C0D201BE
:104C2000843283182DE9F043C6685D684C68D1F87A
:104C3000189005F470455D60C5680CF10107C5F377
:104C40000B45C6F30B4626443D4445EA06455D60E8
:104C5000C668CD68C6F30A062E449D6805F4704503
:104C60009D60C7688D68C7F30A0701353D4445EA72
:104C700006459D601D690E6925F007051D614FF011
:104C8000000E1E6191F832709D6991F83180C3F871
:104C900018E091F8305045EA096545EA082545EAEB
:104CA00007459D615D6925F0FF055D614D695D61A9
:104CB000DD6925F4E06525F00705DD61D1E90757D9
:104CC0003D43DD619D6A4D6AC3F828E0072E9D6271
:104CD0009CBF0E4DAE5DDD6A05F0E025DD6288BF4C
:104CE00001268D6AC96AA4EB0C047443754303342E
:104CF00044EA0544DC621C6B6FF30A041C6319630D
:104D0000835843F001038350BDE8F083344D02081B
:104D100038B50446002863D090F8A13003F0FF02B4
:104D20001BB980F8A020FDF7DBFD022384F8A13039
:104D300023689A6922F070429A61D4E90120024303
:104D4000E06899690243206902430A439A619A68BC
:104D5000244960690A409A609A6842EA0042A06960
:104D600002439A60DA68E0690A40DA60DA6842EA87
:104D70000042206A0243DA601A69606A0A401A61D6
:104D80001A6942EA0042A06A02431A615A690A405B
:104D90005A615A69E16A42EA0142216B0A435A6147
:104DA000DA6A94F8350094F8361002F07F42DA623D
:104DB000DD6A94F834202A4342EA002242EA0142A2
:104DC000DA625A6B42F006025A639A6942F00102B3
:104DD0009A6100200123C4F8A40084F8A13038BDF2
:104DE0000120FCE700F800F070477047036870B5D9
:104DF0009E6B5D6B7207044614D5690712D55A6B1A
:104E000022F004025A630422DA63D0F8A43043F09B
:104E10000103C0F8A430002380F8A12080F8A0305E
:104E2000FFF7E2FFB20716D5AB0714D523685A6B1C
:104E300022F002025A630222DA63D4F8A430134348
:104E4000C4F8A430042384F8A130002384F8A030EF
:104E50002046FFF7C9FFF00710D5E9070ED52368F4
:104E60005A6B22F001025A630122DA63002384F8AC
:104E7000A12084F8A0302046FCF7E4FE320711D5CB
:104E80002B070FD523685A6B22F008025A630822B9
:104E9000DA63012384F8A130002384F8A03020468F
:104EA000FFF7A3FF70BD2DE9F04190F8A030012B72
:104EB00006460F4694464FF002001FD04FF00108FF
:104EC00086F8A08086F8A10034240D4604FB026415
:104ED0000FCD38340FC40FCD0FC40FCD0FC42B68C6
:104EE0002360304662463946FFF796FE336800205D
:104EF000C3F8248086F8A18086F8A000BDE8F08180
:104F000090F8A020012A03464FF0020012D01A6840
:104F100083F8A100506B20F0010050630648016443
:104F2000516B41F0010151630020012283F8A1205F
:104F300083F8A000704700BF00680140F7B5044641
:104F400010B390F89534056803F0FF021BB980F8A0
:104F50009424FCF749FF0323B5F1A04F84F895345E
:104F600004BF0023A371206801F080FF237C8DF82B
:104F70000030251D95E80E00206801F0BCFE0146BA
:104F800030B1022384F895340125284603B0F0BDE2
:104F9000206801F071FF0028F3D1267904F1140391
:104FA00001270246C1B28E4203F124031BD800211F
:104FB00004F515730A46C8B2864203F1240320D8CB
:104FC000237C8DF8003095E80E00206801F0D0FFBA
:104FD00005460028D5D101236074206884F89534F3
:104FE00002F00AFBD1E723F80A0C43E9072203F891
:104FF000237C03F8241C03F8202C43F8142C0130E4
:10500000D0E743E9072203F8232C03F8240C03F824
:10501000202C43F8142C0131CDE710B5044600686C
:1050200094F89434012B15D0012384F89434C36888
:105030005B0606D5637B012B02BF836B43F4803391
:10504000836301F00DFF206802F0C8FA002084F8A5
:10505000940410BD0220FCE710B590F89424012AB6
:1050600004460AD0012280F894244174006802F0BA
:10507000A5FA002084F8940410BD0220FCE770B566
:1050800001F00F0606EBC60411F0800F05464FEA4B
:1050900084044FF0240020D000FB065004F11401DA
:1050A000012429444475C2F30A028A604A780E70CA
:1050B0000B7102B14E83022B04BF00234B7195F894
:1050C0009434012B12D00123286885F8943402F01F
:1050D00014F8002085F8940470BD00FB065004F518
:1050E00015710024294480F85542DCE70220F3E7DB
:1050F00010B5044601F00F0000EBC00311F0800F63
:105100004FEA83034FF0240215D002FB004203F163
:105110001401012321445375087094F89434012B31
:1051200012D00123206884F8943402F025F800207E
:1051300084F8940410BD02FB004203F515710023AE
:10514000214482F85532E7E70220F3E770B501F019
:105150000F05242404FB050104FB0504C4E998237E
:105160000023C4F8683284F8553284F85452164645
:1051700082790068012A01F5157108BFC4F87062D0
:1051800002F0A6F8002070BD70B501F00F052424D0
:1051900004FB050104FB0504C4E908230023A36202
:1051A0000123637525751646827900689A4201F1DC
:1051B000140108BF266302F08BF8002070BD38B5DB
:1051C000037901F00F05AB4204462BD311F0800F99
:1051D0004FF024001DD000FB054100FB05400123DA
:1051E0001431437501238B700D7094F894249A4206
:1051F0001AD0206884F8943402F08CF92DB9A17982
:10520000206804F29C4202F045FA002084F89404DD
:1052100038BD00FB01431A4603F51571002382F8DF
:105220005532DFE70120F3E70220F1E738B50379D3
:1052300001F00F029342044629D302EBC20311F09E
:10524000800F4FEA83034FF0240017D000FB024089
:1052500003F1140101232144437500258D700A7068
:1052600094F89434012B14D00123206884F89434EA
:1052700002F07BF984F89454284638BD00FB0240C4
:1052800003F515710023214480F85532E5E701202C
:10529000F3E70220F1E701F00F0303EBC3030A0673
:1052A0004FEA83034CBF03F1140103F51571014468
:1052B000006801F0B7BF00002DE9F04F066889B023
:1052C0000446304602F0D4F90390002840F058819B
:1052D000206802F09FF9002800F05281D6F80838C3
:1052E0002068C3F30D23C4F8D43402F093F9870780
:1052F00048BF2268206842BF536903F0020353612C
:1053000002F088F9C00606F500652DD5226893697C
:1053100023F010039361D6F8208008F4F013B3F55E
:10532000802F08F00F0740F02E8147F6F07318EA3F
:10533000030F14D0242303FB0747C8F30A19D7F837
:1053400060124A46304602F0C5F8D7F860324B4446
:10535000C7F86032D7F868324B44C7F86832226821
:10536000936943F010039361206802F053F901033D
:1053700000F11C81206802F04DF942030DD5206830
:1053800002F054F92746049006F5106B4FF0000A1E
:10539000049B2068002B40F0D381206802F03AF98A
:1053A000002813DA6B6823F001036B6094F8CC34A7
:1053B000012B40F06B82002184F8CC14204600F0D1
:1053C000E6FA2268536903F000435361206802F053
:1053D00021F901050AD5AB68DA0702D52046FCF7AA
:1053E00079FD2268536903F400635361206802F079
:1053F00011F9C30433D56B68206823F001036B6097
:10540000102101F069FD207906F510634FF67F3118
:10541000039A904200F23E82EB6943F00113EB6184
:10542000E37B002B00F05282D5F8843043F00B036D
:10543000C5F884306B6C43F00B036B64D6F800380E
:10544000206823F4FE63C6F8003804F29C42A17978
:1054500002F020F92268536903F4805353612068F5
:1054600002F0D8F8870416D5206802F005F9206804
:1054700001F038FEE071276800F000FDE279014696
:10548000384601F07DFC2046FCF711FD2268536987
:1054900003F400535361206802F0BCF8000707D5FD
:1054A0002046FCF700FD2268536903F008035361AE
:1054B000206802F0AFF8010600F11382206802F0C4
:1054C000A9F8C2020CD5A04606F512690127237976
:1054D000BB4200F21F822268536903F480135361B8
:1054E000206802F097F883022DD594F804E0234653
:1054F00006F5326001218E4520D993F87CC20268FE
:10550000BCF1010F40F01C82002A80F21982D4F80D
:10551000D47402F4803207F00107BA4240F01082DE
:1055200083F87BC2B26942F08002B26172691706E9
:1055300000F106826B6843F400736B602268536964
:1055400003F400135361206802F064F8410007D5AA
:105550002046FCF7E3FC2268536903F08043536163
:10556000206802F057F842070AD523685D686B0788
:1055700002D52046FCF7D6FC226853682B435360C3
:1055800009B0BDE8F08FB3F5402F7FF4E8AE0822F4
:1055900004F29C41304601F09DFF242303FB0747A2
:1055A000C8F30A18D7F868324344D6E6206802F0F8
:1055B00035F806F530680490A2460027049B206861
:1055C000002B3FF4D7AE049BDB0778D55FFA87FB4F
:1055D000594602F033F810F0010F81461FD02068C1
:1055E0000123C8F8083094F806C0016C00F5306358
:1055F00003EB4713BCF1010F9A6840F08B8012F067
:10560000080F07D0AF48814209D9120407D54FF4DB
:10561000004203E012F0200F5AD020229A6019F0C5
:10562000080F21D00823C8F808302368A5491A6C50
:1056300003F5306303EB47138A42986804D90104E9
:1056400044BF4FF40040986020460592FCF714FCDC
:10565000059A9C498A4207D9A179012904D1206879
:1056600004F29C4202F016F819F0100F1CBF102330
:10567000C8F8083019F0020F14D073691A0642BF37
:105680006B6843F480636B609AF85732012B06D144
:1056900000238AF8573259462046FCF737FC02238C
:1056A000C8F8083019F0200F1CBF2023C8F80830B4
:1056B00019F4005F1CBF4FF40053C8F80830049B76
:1056C0005B080137049308F120080AF1240A75E702
:1056D000DFF8F0C1614501D9120498D41A69DAF8EB
:1056E0007432C2F312029B1ACAF868326FB9D4F846
:1056F00064222AB904F29C42012101F0CBFF04E0AC
:10570000D4F860221A44C4F8602259462046FCF7B7
:10571000B9FB84E7DFF8B0C1614507D111043FF55B
:1057200076AF9006F1D520229A60EEE7002FECD1FB
:10573000D4F86432002BE8D104F29C423946DCE70D
:10574000049BDB0740F199805FFA8AF319460593C1
:1057500001F07DFF10F0010F80461FD06B6B01211F
:105760000AF00F0201FA02F223EA02036B63CBF89C
:105770000810A17901290DD1D7E9072313443B6211
:10578000BAF1000F06D1636A23B9206804F29C4283
:1057900001F080FF05992046FCF77DFB18F0080F0B
:1057A0001CBF0823CBF8083018F0100F1CBF1023C3
:1057B000CBF8083018F0400F1CBF4023CBF808305E
:1057C00018F0020F0FD05146304601F085FBFB7DEB
:1057D000012B05D100230599FB752046FCF79AFBA8
:1057E0000223CBF808302368069318F0800F44D0CA
:1057F000D7E909329A4240D8A3EB0208FB699845E1
:1058000028BF9846069B03F5106308F1030803EBD5
:105810004A134FEA98080793079B996989B2414553
:10582000D7E9093227D393420BD8069B0AF00F0021
:10583000D3F834280121814022EA0102C3F8342838
:105840001BE0A3EB0209FB69059A0698994528BF5E
:105850009946A3790093396A1FFA89F301F024FD70
:105860003B6A4B443B62BB6A09F103084B444FEA75
:105870009808BB62D0E79342D7D9049B5B080AF132
:10588000010A049324370BF1200B81E52046FCF735
:1058900039FB96E599601A6822F400121A60C3F881
:1058A0000812D3F8002222F40012C3F80022D3F821
:1058B000002242F00062C3F80022039A01320392F0
:1058C0002033A5E50A30544F0A31544F6B6943F435
:1058D000005343F02B036B612B6943F00B032B61E7
:1058E000ACE5B36923F08003B361012704F25728C4
:1058F0004FF024092379BB427FF6E0AD09FB07F3A3
:1059000018F80330012B03D1F9B22046FFF7C3FC8E
:105910000137EFE798F83C30D9F80020012B09D186
:10592000002A07DA67F07F0188F83B30C9B22046C9
:10593000FFF7B1FC013708F1240809F12009C6E599
:10594000013124332030D6E5006870B5436A120473
:1059500019B913438362002070BD846A4E1E03EBA5
:1059600014430024B44205D33F3100EB81001343BC
:105970004360F0E704F1400500EB850501346D68F4
:1059800003EB1543EEE70368002059627047704748
:105990002DE9F341044640B30368DE0710D42368C1
:1059A0009D075BD42368190700F19D8023685A077F
:1059B00000F1BD80A369002B40F0248100202CE081
:1059C0008D4B9A6802F00C02042A07D09A6802F004
:1059D0000C02082A0BD15B68590208D5864B1B685C
:1059E0009A03DCD56368002BD9D1012015E06368E8
:1059F000814DB3F5803F13D12B6843F480332B6086
:105A0000FEF716FA7C4E054633689B03C7D4FEF7B3
:105A10000FFA401B6428F7D9032002B0BDE8F081DB
:105A2000B3F5A02F04D12B6843F480232B60E3E768
:105A30002A6822F480322A602A6822F480222A60AE
:105A4000002BDDD1FEF7F4F906462B689F03A6D59F
:105A5000FEF7EEF9801B6428F7D9DDE7664B9A68FC
:105A600012F00C0F07D09A6802F00C02082A11D12C
:105A70005B685D020ED4604A1368990702D5E3683B
:105A8000012BB2D11368216923F0F80343EAC10363
:105A9000136087E7E268594BB2B101221A60FEF742
:105AA000C7F9554D06462B689B0707D52B68226919
:105AB00023F0F80343EAC2032B6073E7FEF7B8F95B
:105AC000801B0228EFD9A7E71A60FEF7B1F94A4E0A
:105AD000054633689F077FF565AFFEF7A9F9401BC0
